:040000000200513277
:01000B0032C2
:0100130032BA
:01001B0032B2
:0100230032AA
:01002B0032A2
:01003300329A
:01003B003292
:01004300328A
:03004B0002067139
:0C00AA00E4F53AF53BF53CF53D02004E54
:03004E0002058C1C
:2000B60075B1677E007F011EBEFF011FEE4F70F7E5B130E7FB75B288227598507589207597
:2000D6008DDCD28E438E10438780D29943A4012275FFDE75FFAD1200B61200CF43E104431A
:2000F600E34022AF8210990280FB8F992210980280FB8599821200F985998222C00F85819D
:200116000FE50F24FBF886820886830886F0120F29E5828583F045F070028062E50F24FBD3
:20013600FF8F0BE50F24FBF8860808860908860A90000175F00012086890000175F00012C8
:200156000F29AE827F00C3EF9E501FEF2401F582E43400F583E0FDBD0A0DEF2401F582E4A8
:200176003400F583740DF00F80DC752801752900752A007527008E2B7582C6120428D00FD7
:200196002275220074C025224017752D22752E00752F40752C007530017582C612049E803B
:2001B600E375230C752823752900752A40752700752B017582C612042822752D25752E00A1
:2001D600752F40752C017530027582C612049E74FFB52505758200805F7F008F068EF005AC
:2001F600F07C017D008006EC2CFCED33FDD5F0F7AA257B00EA5204EB5205EC4D600774317B
:200216002FF58280330E8E07BE080040D0E52630E0057582398021E52630E10575822A8043
:2002360017E52630E205758230800DE52630E30575822380037582FF22AF82E4FDFEEF7074
:200256001DC006C0057448C0E07410C0E07480C0E0120112158115811581D005D006C00674
:20027600C0057408C0E0E4C0E07408C0E0E4C0E07408C0E0E4C0E07408C0E0E4C0E07408A7
:20029600C0E0E4C0E0745EC0E07410C0E07480C0E0120112E58124F3F58190A12075F00725
:2002B600E41203C3D005D0067F00C007C006C0051201D0AC82D005D006D0078C03BCFF0211
:2002D6008003BB2A17902710E4F5F0C007C006C0051203C3D005D006D00780CEBB232AC037
:2002F60006C0051201D0AC82D005D006BC2313902710E4F5F0C006C0051203C3D005D006D1
:2003160080DD8D828E830203C2EBFA3395E0FCC007C006C005C004C003C002C002C0047465
:200336006EC0E07410C0E07480C0E0120112E58124FBF581D002D003D004D005D0068D11FF
:200356008E1290000AC004C003C0021207DBA882A983D002D003D004D007EA28F8EC39F942
:20037600E824D0FDE934FFFEC007C006C005C0031201D0AC82D003D005D006D007ECB50355
:200396001B902710E4F5F0C007C006C005C0031203C3D003D005D006D00780CC0FC3EF64E9
:2003B60080948550030202C08D828E8322AC82AD83AEF0FF780079007A007B00C3E89CE924
:2003D6009DEA9EEB9F500F08B8000909B900050ABA00E90B80E62220C7FDD2C530C3FDC2FC
:2003F600C5C2C3228582C210C30280FB228582C2D2C410C30280FB2230C3FD85C282C2C331
:200416002230C3FDAFC2C2C3D2C410C30280FB8F8222AF82C0071203EDD00774FE5FF5828C
:200436001203FA8527821203FA7F00AD2B7E001DBDFF011E8F037C00C3EB9DEC64808EF0E6
:2004560063F08095F0501FEF2528FCE43529FDAE2A8C828D838EF0120F41F582C00712031F
:20047600FAD0070F80C5AE2B7F001EBEFF011FEE2528FEEF3529FFAD2A8E828F838DF012E1
:200496000F41F58212040322AF82C0071203EDD0078F0674FE5EF582C0071203FA852C828E
:2004B6001204031203EDD00774014FF5821203FA7F00AD307E001DBDFF011E8F037C00C347
:2004D600EB9DEC64808EF063F08095F0502ED2C2EF252DFCE4352EFDAE2FC007C006C00516
:2004F600C00412040EAB82D004D005D006D0078C828D838EF0EB1207C00F80B6C2C2AE3074
:200516007F001EBEFF011FEE252DFEEF352EFFAD2FC007C006C005120417AC82D005D00688
:20053600D0078E828F838DF0EC1207C022753123752831752900752A40752720752B017562
:200556008230120428753100752831752900752A40752721752B017582301204287531003B
:20057600752831752900752A40752722752B01758230120428221200E61206441206551261
:20059600065E12066B75820D1200F97471C0E07410C0E07480C0E012094D158115811581E8
:2005B600120197E4F532F533C3E5329401E5339400501BC034C035747AC0E07410C0E074B3
:2005D60080C0E012094DE58124FBF58180DA120197747FC0E07410C0E07480C0E012094DCB
:2005F6001581158115811206E8120751E54160FCC3E5406480948540F312079A858243859D
:20061600834475110A751200120F8AAE82AF83C006C0077491C0E07410C0E07480C0E012DD
:20063600094DE58124FBF58175410080BF2275E12743A50153A77FAFB074804FF5B02243B1
:20065600A80243E608D2AF2275D98175DAC275DCC243D8402275CF93D2C622C0E0C0F0C0F5
:20067600D010DF0280620536E4B5360205370534E4B53402053575E90075F970C3743295FD
:2006960034E49535500CE4F534F5350532B532020533053EC3E53E64809482400675410157
:2006B600753E000540C374858540F063F08095F05003754000053FC3E53F64809484400BE9
:2006D600754201753F00800353D8C0D0D0D0F0D0E03212019774AFC0E07410C0E07480C0A3
:2006F600E012011215811581158175820112024FAE82AF838E048F05C374109C748E8DF0D8
:2007160063F08095F0500AEC24F0FCED34F1FD80E78C068D078E048F05ED30E70A74102C95
:20073600FC740E3DFD80F28C068D07C007C006120197D006D0078E388F392212019774D8C9
:20075600C0E07410C0E07480C0E012011215811581158175820112024FAE82AF83C007C000
:2007760006120197D006D0077511E87512038E828F83120F8A12091C85823A85833B85F011
:200796003CF53D22752D47752E00752F40752C027530027582C012049EAF477E00AC487DA9
:0A07B60000EC4EF582ED4FF58322B2
:201048000A54797065206469676974733B20656E6420772F230020202020202563256325E8
:201068006325632563002563000A53746172740D0A000D25750A000D5765206765742074D0
:20108800686973206661720A000D5468652063757272656E7420646972656374696F6E204F
:2010A80069732025750A000D456E74657220646573697265642068656164696E6720666F98
:2010C800722074686520636F6D706173732E0A000D456E7465722064657369726564206755
:1610E80061696E20666F722074686520636F6D706173732E0A00A4
:06008000E478FFF6D8FD54
:20005E007900E94400601B7A00901109785175AF00E493F2A308B8000205AFD9F4DAF275C0
:02007E00AFFFD2
:1B07C00020F71130F6138883A88220F509F6A8837583002280FEF280F5F02238
:1D07DB00E5828511F0A4C582C0F08512F0A4D0F025F0C5838511F0A42583F58322C5
:2007F800C00F85810FC082058105810581E50F24FBF8A90F0909E6F70809E6F70809E6F79B
:20081800A80F080886820886830886F0120F41FAA3120F41FBA3120F41FF74012AFCE43B48
:20083800FD8F06A80F080886820886830886F0EC1207C0A3ED1207C0A3EE1207C08A828B81
:20085800838FF0A80F08E61207C0850F81D00F2285820C85830D85F00E75550C7556007529
:200878005740850858850959850A5A850B5B9007F8120A1FAE82AF83AB0CAC0DAD0E8B82C5
:200898008C838DF0E41207C08E828F8322C00F85810FE50F24F8FF8F5BE50F24FBFF8F55E0
:2008B800755600755740E50F24F8F8865808865908865A9007F8120A1FAE82AF83E50F2450
:1B08D800FBF886030886040886058B828C838DF0E41207C08E828F83D00F22EB
:200086007800E84400600A790175AF00E4F309D8FC7850E84400600C7901900001E4F0A318
:0400A600D8FCD9FAAF
:2008F3007A10E4FBFCE58225E0F582E58333F583EB33FBEC33FCEB9511F5F0EC9512400607
:09091300FCABF0438201DADD22A5
:0D091C00AC83AB827A007900748E020F6606
:20092900C00F85810F1200F9D00F2285825885835985F05AE4F555F556F55785105B9009E1
:2009490029020A1FC00F85810FE50F24FBFF8F5BE4F555F556F557E50F24FBF8865808861E
:0D0969005908865A900929120A1FD00F2242
:20097600AF82C04BC04CC04D1209838007C049C04A8F82221581158115810553E4B5530299
:20099600055422AF8274302FFF24C6500A74072FFF3000034307208F82020976E582FFC47D
:2009B600540FF582C007120999D007740F5FF582020999858211854E12854F1385501485A6
:2009D6005115AA52751620EA2AFAE515235401FF8A064EFAE5122512F512E51333F513E550
:2009F6001433F514E51533F515C3EA95114008EAC39511FA431201D516CD85124E85134F98
:200A16008514508515518A522285824985834A85554B85564C85574DE4F553F554AD58AEAF
:200A360059AF5A8D828E838FF0120F41FC74012DF558E43EF5598F5AECFF7003020F22BFA9
:200A560025028003020F1AC201C202C203C204C205C206C207C208755C00755D007CFFAAAF
:200A760058AB59AE5A8A828B838EF0120F41FFA3AA82AB838A588B598E5ABF25078F82124A
:200A9600097680998F5F74D0255F5026E55F24C64020BCFF12E55D75F00AA4FD2F24D0F5B7
:200AB6005D70C2D20280BEEC75F00AA42F24D0FC80B3BF2E07BCFFAD7C0080A98F05BD617B
:200AD60000400CED248540075307DFD2008002C200BF2002806DBF2B028063BF2D02805924
:200AF600BF42028063BF43028068BF4403020CC4BF4603020CDABF4803020A7BBF490302A8
:200B16000CC4BF4A03020A7BBF4C028040BF4F03020CCBBF5003020C59BF5302805CBF5429
:200B360003020A7BBF5503020CD0BF5803020CD5BF5A03020A7B020CDED201020A7BD20365
:200B5600020A7BD204020A7BD206020A7BD207020A7B30060CE55B14FE8E5B8E01870780C2
:200B760011E55B24FEFE8E5B8E018705098706198D078F82120976020CE7E55B24FDFE8E23
:200B96005B8E01870309870509870619198B4E8D4F8E508B828D838EF0C004120F29AD8203
:200BB600AE83D004BCFF028D0420012AC3ED955D5024E55DC39DF55DAE5D8E031EEB60145E
:200BD600758220C006C005C004120976D004D005D00680E68E5D8C06854E82854F83855025
:200BF600F0120F41FCFF602F8E041EC374808CF063F08095F050208F82C006C0051209762B
:200C1600D005D006AA4EAB4FAC500ABA00010B8A4E8B4F8C5080C1200103020CE7C3ED9528
:200C36005D4003020CE7E55DC39DF55DAE5D8E041EEC7003020CE5758220C006120976D0CA
:200C56000680EBE55B24FDFC8C5B8C01870209870309870419198A4E8B4F8C50AC50BC8094
:200C76000040047F438014BC600040047F50800BBC400040047F4980027F588F82C00712BF
:200C9600097675823A120976758230120976758278120976D007BF4902800BBF5002800642
:200CB600854F821209B2854E821209B28023D205755C0A801C755C088017755C0A80127596
:200CD6005C10800DD20880098F8212097680028E5D30085CE55B24FCFE8E5B8E0187020997
:200CF60087030987040987061919198A4E8B4F8C508E51754EFE754F10755080854E6085E0
:200D16004F6185506274012560FAE43561FCAE628A4E8C4F8E508560828561838562F01212
:200D36000F41FEFF7003020A338F8212097680CCE55C7003020A33755E1C30062DE55B1417
:200D5600FC8C5B8C01E7FA3395E0FBFCFE8A4E8B4F8C508E51200566AA4E7B007C007E002A
:200D76008A4E8B4F8C508E518054300721E55B24FCFE8E5B8E0187020987030987040987AE
:200D9600061919198A4E8B4F8C508E518030E55B24FEFE8E5B8E01870409870619EE339507
:200DB600E0FBFA8C4E8E4F8B508A51200510AA4EAB4F7C007E008A4E8B4F8C508E51300518
:200DD60022E55130E71BC3E4954EFAE4954FFBE49550FCE49551FE8A4E8B4F8C508E5180B2
:200DF60002C205D209A95E7E00755200855C82C006C0011209C9D001D00620090BE552C449
:200E1600FCE7FB4CF7198002A7520EB209E54E454F4550455170D2895E8E05E55D70037566
:200E36005D01200224200121ED04FEAC5DC3EE9C5015758220C006C005C004120976D00441
:200E5600D005D0061C80E68C5D30050E75822DC005120976D005155D8023ED602030030E11
:200E760075822BC005120976D005155D800F30040C758220C005120976D005155D200122D7
:200E9600AE5D8E041EC3ED9C502B3002047C3080027C208C82C006C005120976D005D006E5
:200EB60080E0C3ED955D5008E55DC39DF55D8007755D0080028E5DA95E8D068E051EED6070
:200ED60026B20920090A09E7C4540FFD8D5280078705740F5DF552855282C006C0011209C0
:200EF60099D001D00680D4200103020A33AE5D8E051EED7003020A33758220C0061209761C
:130F1600D00680EB8F82120976020A3385538285548322CE
:0B10FE003C4E4F20464C4F41543E003A
:180F2900AA82AB83120F416003A380F8C3E5829AF582E5839BF583229E
:0D005100758162120FF5E582600302004E1A
:1C0F410020F71430F6148883A88220F507E6A88375830022E280F7E49322E022BF
:200F5D00FCABF0AA83A982749EF582C2D1EC30E716D2D1E9F42401F9EAF43400FAEBF43493
:0D0F7D0000FBECF43400FC120FC2020FF96F
:200F8A00C2D5E58330E70DD2D5E4C39582F582E49583F583E51230E70DB2D5E4C39511F5F0
:180FAA0011E49512F5121208F330D50BE4C39582F582E49583F58322A4
:200FC2007804EC7011E58224F8500AF582E4C9CACBFCD8EF22EC7820058220E713D582012E
:130FE20022C3E933F9EA33FAEB33FBEC33FCD8EA1582223C
:040FF50075820022DF
:200FF900B98003EA13B34010EA2401FAE43BFBE43CFC50047C800582BC000EBB000BBA003C
:2010190008E4F5F0F583F58222A2D1E582138CF092F78B838A8222E4F583F58275F080F4FB
:0F103900A2D11322E4F583F58275F0C0747F22F3
:00000001FF
