:040000000200513277
:01000B0032C2
:0100130032BA
:01001B0032B2
:0100230032AA
:01002B0032A2
:01003300329A
:01003B003292
:01004300328A
:03004B0002061B8F
:2000AA007532007533707534C875350A7536EE7537077538AC75390DE4F53AF53BF53CF589
:0E00CA003DF53EF53FF542F543F54402004E8C
:03004E000205AEFA
:2000D80075B1677E007F011EBEFF011FEE4F70F7E5B130E7FB75B288227598507589207575
:2000F8008DDCD28E438E10438780D29943A4012275FFDE75FFAD1200D81200F143E10443B4
:20011800E34022AF8210990280FB8F992210980280FB85998212011B85998222C00F858157
:200138000FE50F24FBF886820886830886F0120E50E5828583F045F070028062E50F24FB8B
:20015800FF8F0BE50F24FBF8860808860908860A90000175F0001207C590000175F000124A
:200178000E50AE827F00C3EF9E501FEF2401F582E43400F583E0FDBD0A0DEF2401F582E460
:200198003400F583740DF00F80DC752801752900752A007527008E2B7582C612044AD00F93
:2001B8002275220074C025224017752D22752E00752F40752C007530017582C61204C080F7
:2001D800E375230C752823752900752A40752700752B017582C612044A22752D25752E005D
:2001F800752F40752C017530027582C61204C074FFB52505758200805F7F008F068EF00568
:20021800F07C017D008006EC2CFCED33FDD5F0F7AA257B00EA5204EB5205EC4D6007743158
:200238002FF58280330E8E07BE080040D0E52630E0057582398021E52630E10575822A8021
:2002580017E52630E205758230800DE52630E30575822380037582FF22AF82E4FDFEEF7052
:200278001DC006C0057488C0E0740EC0E07480C0E0120134158115811581D005D006C006F2
:20029800C0057408C0E0E4C0E07408C0E0E4C0E07408C0E0E4C0E07408C0E0E4C0E0740885
:2002B800C0E0E4C0E0749EC0E0740EC0E07480C0E0120134E58124F3F58190A12075F007A3
:2002D800E41203E5D005D0067F00C007C006C0051201F2AC82D005D006D0078C03BCFF02AB
:2002F8008003BB2A17902710E4F5F0C007C006C0051203E5D005D006D00780CEBB232AC0F3
:2003180006C0051201F2AC82D005D006BC2313902710E4F5F0C006C0051203E5D005D0066A
:2003380080DD8D828E830203E4EBFA3395E0FCC007C006C005C004C003C002C002C0047421
:20035800AEC0E0740EC0E07480C0E0120134E58124FBF581D002D003D004D005D0068D117D
:200378008E1290000AC004C003C002120738A882A983D002D003D004D007EA28F8EC39F9C3
:20039800E824D0FDE934FFFEC007C006C005C0031201F2AC82D003D005D006D007ECB50311
:2003B8001B902710E4F5F0C007C006C005C0031203E5D003D005D006D00780CC0FC3EF64A5
:2003D80080948550030202E28D828E8322AC82AD83AEF0FF780079007A007B00C3E89CE9E0
:2003F8009DEA9EEB9F500F08B8000909B900050ABA00E90B80E62220C7FDD2C530C3FDC2DA
:20041800C5C2C3228582C210C30280FB228582C2D2C410C30280FB2230C3FD85C282C2C30E
:200438002230C3FDAFC2C2C3D2C410C30280FB8F8222AF82C00712040FD00774FE5FF58247
:2004580012041C85278212041C7F00AD2B7E001DBDFF011E8F037C00C3EB9DEC64808EF07E
:2004780063F08095F0501FEF2528FCE43529FDAE2A8C828D838EF0120E68F582C0071204D6
:200498001CD0070F80C5AE2B7F001EBEFF011FEE2528FEEF3529FFAD2A8E828F838DF0129D
:2004B8000E68F58212042522AF82C00712040FD0078F0674FE5EF582C00712041C852C82DE
:2004D80012042512040FD00774014FF58212041C7F00AD307E001DBDFF011E8F037C00C3BD
:2004F800EB9DEC64808EF063F08095F0502ED2C2EF252DFCE4352EFDAE2FC007C006C005F4
:20051800C004120430AB82D004D005D006D0078C828D838EF0EB12071D0F80B6C2C2AE30D2
:200538007F001EBEFF011FEE252DFEEF352EFFAD2FC007C006C005120439AC82D005D00644
:20055800D0078E828F838DF0EC12071D22753123752831752900752A40752720752B0175E3
:20057800823012044A753100752831752900752A40752721752B0175823012044A753100D5
:20059800752831752900752A40752722752B0175823012044A2212010875822012011B127E
:2005B80005FE12060212060C12060674B1C0E0740EC0E07480C0E0120874158115811581F9
:2005D80085343A85353BAC3AAD3BE4FEFF74FFC39CFC74FF9DFDE49EFEE49FFF8CEA8DFA92
:2005F8001206D180FB2243A5012275E1272275CF93D2C62275DAC275D84075D981D2AF43F1
:20061800E60822C0E0C0D030DF23053F74FE253F5006753E01753F000542E54224FA500399
:200638007542008532E98533F9C2DF800353D8C0D0D0D0E032752D45752E00752F40752CFA
:20065800027530027582C01204C0AF457E00AC467D00EC4EF582ED4FF58322AE82AF83E59D
:2006780043C39EFEE5449FFFC3EE9408EF64809487500874102EFE740E3FFFC374089E74A5
:20069800878FF063F08095F05008EE24F0FEEF34F1FFEE2534FEEF3535FFC3EE9536EF95DC
:2006B800375004AE36AF37C3E5389EE5399F5004AE38AF398E828F8322E53E604774FB25CE
:2006D80042504112064D858240858341C040C04174D5C0E0740EC0E07480C0E0120874E527
:2006F8008124FBF58185408285418312067385823A85833B74FFC3953AF5EA74FF953BF511
:05071800FA753E00220D
:200E88000A54797065206469676974733B20656E6420772F230020202020202563256325AA
:200EA8006325632563002563000D456D62656464656420436F6E74726F6C20436F6D706107
:200EC8007373205374656572696E670A005468652063757272656E74206469726563746971
:090EE8006F6E206973202575006E
:06008000E478FFF6D8FD54
:20005E007900E94400601B7A00900EFC785175AF00E493F2A308B8000205AFD9F4DAF275D0
:02007E00AFFFD2
:1B071D0020F71130F6138883A88220F509F6A8837583002280FEF280F5F022DB
:1D073800E5828511F0A4C582C0F08512F0A4D0F025F0C5838511F0A42583F5832268
:20075500C00F85810FC082058105810581E50F24FBF8A90F0909E6F70809E6F70809E6F73E
:20077500A80F080886820886830886F0120E68FAA3120E68FBA3120E68FF74012AFCE43B7A
:20079500FD8F06A80F080886820886830886F0EC12071DA3ED12071DA3EE12071D8A828B0E
:2007B500838FF0A80F08E612071D850F81D00F2285820C85830D85F00E75530C7554007574
:2007D5005540850856850957850A58850B59900755120946AE82AF83AB0CAC0DAD0E8B82F0
:2007F5008C838DF0E412071D8E828F8322C00F85810FE50F24F8FF8F59E50F24FBFF8F532B
:20081500755400755540E50F24F8F88656088657088658900755120946AE82AF83E50F247A
:1B083500FBF886030886040886058B828C838DF0E412071D8E828F83D00F2231
:200086007800E84400600A790175AF00E4F309D8FC7850E84400600C7901900001E4F0A318
:0400A600D8FCD9FAAF
:20085000C00F85810F12011BD00F2285825685835785F058E4F553F554F5558510599008A7
:2008700050020946C00F85810FE50F24FBFF8F59E4F553F554F555E50F24FBF886560886B5
:0D08900057088658900850120946D00F22D4
:20089D00AF82C049C04AC04B1208AA8007C047C0488F82221581158115810551E4B551025B
:2008BD00055222AF8274302FFF24C6500A74072FFF3000034307208F8202089DE582FFC433
:2008DD00540FF582C0071208C0D007740F5FF5820208C0858211854C12854D13854E14853A
:2008FD004F15AA50751620EA2AFAE515235401FF8A064EFAE5122512F512E51333F513E52E
:20091D001433F514E51533F515C3EA95114008EAC39511FA431201D516CD85124C85134D75
:20093D0085144E85154F8A502285824785834885534985544A85554BE4F551F552AD56AEA5
:20095D0057AF588D828E838FF0120E68FC74012DF556E43EF5578F58ECFF7003020E49BF41
:20097D0025028003020E41C201C202C203C204C205C206C207C208755A00755B007CFFAA67
:20099D0056AB57AE588A828B838EF0120E68FFA3AA82AB838A568B578E58BF25078F82120A
:2009BD00089D80998F5D74D0255D5026E55D24C64020BCFF12E55B75F00AA4FD2F24D0F573
:2009DD005B70C2D20280BEEC75F00AA42F24D0FC80B3BF2E07BCFFAD7C0080A98F05BD6157
:2009FD0000400CED248540075307DFD2008002C200BF2002806DBF2B028063BF2D028059FE
:200A1D00BF42028063BF43028068BF4403020BEBBF4603020C01BF48030209A2BF4903020E
:200A3D000BEBBF4A030209A2BF4C028040BF4F03020BF2BF5003020B80BF5302805CBF546B
:200A5D00030209A2BF5503020BF7BF5803020BFCBF5A030209A2020C05D2010209A2D2035A
:200A7D000209A2D2040209A2D2060209A2D2070209A230060CE55914FE8E598E0187078008
:200A9D0011E55924FEFE8E598E018705098706198D078F8212089D020C0EE55924FDFE8EB6
:200ABD00598E01870309870509870619198B4C8D4D8E4E8B828D838EF0C004120E50AD82BF
:200ADD00AE83D004BCFF028D0420012AC3ED955B5024E55BC39DF55BAE5B8E031EEB601440
:200AFD00758220C006C005C00412089DD004D005D00680E68E5B8C06854C82854D83854EE1
:200B1D00F0120E68FCFF602F8E041EC374808CF063F08095F050208F82C006C00512089DB8
:200B3D00D005D006AA4CAB4DAC4E0ABA00010B8A4C8B4D8C4E80C1200103020C0EC3ED95E7
:200B5D005B4003020C0EE55BC39DF55BAE5B8E041EEC7003020C0C758220C00612089DD038
:200B7D000680EBE55924FDFC8C598C01870209870309870419198A4C8B4D8C4EAC4EBC807A
:200B9D000040047F438014BC600040047F50800BBC400040047F4980027F588F82C0071299
:200BBD00089D75823A12089D75823012089D75827812089DD007BF4902800BBF5002800684
:200BDD00854D821208D9854C821208D98023D205755A0A801C755A088017755A0A8012752E
:200BFD005A10800DD20880098F8212089D80028E5B30085CE55924FCFE8E598E0187020953
:200C1D0087030987040987061919198A4C8B4D8C4E8E4F754CF1754D0E754E80854C5E85DA
:200C3D004D5F854E607401255EFAE4355FFCAE608A4C8C4D8E4E855E82855F838560F01206
:200C5D000E68FEFF700302095A8F8212089D80CCE55A700302095A755C1C30062DE559145F
:200C7D00FC8C598C01E7FA3395E0FBFCFE8A4C8B4D8C4E8E4F200566AA4C7B007C007E0010
:200C9D008A4C8B4D8C4E8E4F8054300721E55924FCFE8E598E018702098703098704098794
:200CBD00061919198A4C8B4D8C4E8E4F8030E55924FEFE8E598E01870409870619EE3395ED
:200CDD00E0FBFA8C4C8E4D8B4E8A4F200510AA4CAB4D7C007E008A4C8B4D8C4E8E4F300506
:200CFD0022E54F30E71BC3E4954CFAE4954DFBE4954EFCE4954FFE8A4C8B4D8C4E8E4F809E
:200D1D0002C205D209A95C7E00755000855A82C006C0011208F0D001D00620090BE550C404
:200D3D00FCE7FB4CF7198002A7500EB209E54C454D454E454F70D2895C8E05E55B7003754E
:200D5D005B01200224200121ED04FEAC5BC3EE9C5015758220C006C005C00412089DD004F9
:200D7D00D005D0061C80E68C5B30050E75822DC00512089DD005155B8023ED602030030EC9
:200D9D0075822BC00512089DD005155B800F30040C758220C00512089DD005155B20012269
:200DBD00AE5B8E041EC3ED9C502B3002047C3080027C208C82C006C00512089DD005D0069B
:200DDD0080E0C3ED955B5008E55BC39DF55B8007755B0080028E5BA95C8D068E051EED6056
:200DFD0026B20920090A09E7C4540FFD8D5080078705740F5DF550855082C006C0011208A1
:200E1D00C0D001D00680D420010302095AAE5B8E051EED700302095A758220C00612089D5E
:130E3D00D00680EB8F8212089D02095A8551828552832260
:0B0EF1003C4E4F20464C4F41543E0049
:180E5000AA82AB83120E686003A380F8C3E5829AF582E5839BF5832252
:0D005100758160120E84E582600302004E8E
:1C0E680020F71430F6148883A88220F507E6A88375830022E280F7E49322E02299
:040E84007582002251
:00000001FF
