:040000000200513277
:01000B0032C2
:0100130032BA
:01001B0032B2
:0100230032AA
:01002B0032A2
:01003300329A
:01003B003292
:01004300328A
:03004B0002077D2C
:2000AA00E4F537F538F539F53AF53DF53EF541F5427543C875440A7545C875460AF549F50D
:2000CA004AF54BF54CF54DF54EF54FF550F551F552F553F554F555F556F557F558F559F5AE
:0800EA005AF55BF55C02004EC3
:03004E000205C8E0
:2000F20075B1677E007F011EBEFF011FEE4F70F7E5B130E7FB75B28822759850758920755B
:200112008DDCD28E438E10438780D29943A4012275FFDE75FFAD1200F212010B43E1044364
:20013200E34022AF8210990280FB8F992210980280FB85998212013585998222C01585811D
:2001520015E51524FBF886820886830886F0121D19E5828583F045F070028062E51524FB87
:20017200FF8F11E51524FBF8860E08860F08861090000175F00012151590000175F00012B4
:200192001D19AE827F00C3EF9E501FEF2401F582E43400F583E0FDBD0A0DEF2401F582E46E
:2001B2003400F583740DF00F80DC752901752A00752B007528008E2C7582C6120464D01554
:2001D2002275230074C025234017752E23752F00753040752D007531017582C61204DA80BB
:2001F200E375240C752924752A00752B40752800752C017582C612046422752E26752F001F
:20021200753040752D017531027582C61204DA74FFB52605758200805F7F008F068EF0052F
:20023200F07C017D008006EC2CFCED33FDD5F0F7AA267B00EA5204EB5205EC4D600774313D
:200252002FF58280330E8E07BE080040D0E52730E0057582398021E52730E10575822A8005
:2002720017E52730E205758230800DE52730E30575822380037582FF22AF82E4FDFEEF7036
:200292001DC006C005749EC0E0741DC0E07480C0E012014E158115811581D005D006C00699
:2002B200C0057408C0E0E4C0E07408C0E0E4C0E07408C0E0E4C0E07408C0E0E4C0E074086B
:2002D200C0E0E4C0E074B4C0E0741DC0E07480C0E012014EE58124F3F58190A12075F0074A
:2002F200E41203FFD005D0067F00C007C006C00512020CAC82D005D006D0078C03BCFF025C
:200312008003BB2A17902710E4F5F0C007C006C0051203FFD005D006D00780CEBB232AC0BE
:2003320006C00512020CAC82D005D006BC2313902710E4F5F0C006C0051203FFD005D0061B
:2003520080DD8D828E830203FEEBFA3395E0FCC007C006C005C004C003C002C002C00474ED
:20037200C4C0E0741DC0E07480C0E012014EE58124FBF581D002D003D004D005D0068D171E
:200392008E1890000AC004C003C002121488A882A983D002D003D004D007EA28F8EC39F946
:2003B200E824D0FDE934FFFEC007C006C005C00312020CAC82D003D005D006D007ECB503DC
:2003D2001B902710E4F5F0C007C006C005C0031203FFD003D005D006D00780CC0FC3EF6471
:2003F20080948550030202FC8D828E8322AC82AD83AEF0FF780079007A007B00C3E89CE9AC
:200412009DEA9EEB9F500F08B8000909B900050ABA00E90B80E62220C7FDD2C530C3FDC2BF
:20043200C5C2C3228582C210C30280FB228582C2D2C410C30280FB2230C3FD85C282C2C3F4
:200452002230C3FDAFC2C2C3D2C410C30280FB8F8222AF82C007120429D00774FE5FF58213
:200472001204368528821204367F00AD2C7E001DBDFF011E8F037C00C3EB9DEC64808EF02E
:2004920063F08095F0501FEF2529FCE4352AFDAE2B8C828D838EF0121D31F582C0071204E1
:2004B20036D0070F80C5AE2C7F001EBEFF011FEE2529FEEF352AFFAD2B8E828F838DF01265
:2004D2001D31F58212043F22AF82C007120429D0078F0674FE5EF582C007120436852D829D
:2004F20012043F120429D00774014FF5821204367F00AD317E001DBDFF011E8F037C00C354
:20051200EB9DEC64808EF063F08095F0502ED2C2EF252EFCE4352FFDAE30C007C006C005D6
:20053200C00412044AAB82D004D005D006D0078C828D838EF0EB12143D0F80B6C2C2AE3170
:200552007F001EBEFF011FEE252EFEEF352FFFAD30C007C006C005120453AC82D005D0060D
:20057200D0078E828F838DF0EC12143D22753223752932752A00752B40752820752C017595
:200592008230120464753200752932752A00752B40752821752C017582301204647532007F
:2005B200752932752A00752B40752822752C017582301204642212012212073D12075B12A5
:2005D20007641207CC12077775820D12013574C7C0E0741DC0E07480C0E012172315811546
:2005F20081158175EA3275FAF575EB3275FBF575EC3275FCF575ED3275FDF5753B0074FFCF
:20061200253B50FA120CEC1207EC120B44120C6AAE567F00C006C007C052C053C054C055C8
:2006320074D0C0E0741DC0E0120DABE58124F8F581E4F53BF53C74E6C0E0741DC0E074806D
:20065200C0E01217231581158115817411C0E0741EC0E07480C0E0121723158115811581E1
:20067200E53D6006753D00120AD1E53F600F753F001208A385824C85834D120911E53E60E6
:2006920043753E007582051207D685824A121D4DAC82AD83AEF0FFC004C005C006C00790F9
:2006B2009A6775F04D743D12122CAC82AD83AEF0FFE58124FCF5818C828D838EF0EF121DC3
:2006D2005885824B7414B549977490255BF55B7401355CF55C75170A751800854C82854DCE
:2006F20083120D82AE82AF8375170A751800855082855183C007C006120D82AC82AD83D033
:2007120006D007C05BC05CC006C007C004C0057442C0E0741EC0E07480C0E0121723E581CF
:2007320024F7F5817549000206722275E12753BD7F43A50F53A57FAF9074804FF59053A741
:200752007FAFB074804FF5B02243A80243E608D2AF2275D98175DAC275DBC275DCC275DD87
:20077200C275D8402275CF93D2C622C0E0C0D010DF02803E053C75E90075F970E53C24CDF7
:200792005002053B0549054174F425415006753D01754100054074F825405006753F0175FE
:2007B2004000054274F62542500B754200753E01800353D8C0D0D0D0E03275D10375AA8031
:2007D20043AB01228582ACAFAA74DF5FF5AA43AA10E5AA30E5FB859C82227453C0E0741E3F
:2007F200C0E07480C0E01217231581158115817476C0E0741EC0E07480C0E0121723158173
:200812001581158174BAC0E0741EC0E07480C0E012172315811581158112013FAF82BF7541
:200832000B74322550F550E43551F551BF640CE55024CEF550E55134FFF551BF660885503F
:200852005985515A804AC3E5509410E551940E400675501075510EE55045517004F550F557
:200872005175170A751800855082855183120D82AE82AF83C006C00774CEC0E0741EC0E09E
:200892007480C0E0121723E58124FBF58102082B22752E5D752F00753040752D027531023F
:2008B2007582C01204DAAF5D7E00AC5E7D00EC4EF582ED4FF58322752E47752F0075304074
:2008D200752D027531027582E01204DAAF477E00AC487D00EC4206ED4207754751752947B2
:2008F200752A00752B40752800752C017582E0C007C006120464D006D0078E828F8322E574
:2009120050C3954CF537E551954DF538C3E53794F8E53864809478500C74102537F537740C
:200932000E3538F538C37408953774878538F063F08095F0500CE53724F0F537E53834F1F8
:20095200F538AC37E538FD3395E0FE8C828D838EF0121373AC82AD83AEF0FFC004C005C03D
:2009720006C0078552828553838554F0E55512122CAC82AD83AEF0FFE58124FCF5818C828C
:200992008D838EF0EF1213A0AC82AD83AEF0FF85565FE4F560F561F562E537C39539FAE55C
:2009B20038953A8A17F5183395E0F519F51A855F828560838561F0E562C007C006C005C0AE
:2009D200041215A0A882A983AAF0FBD004D005D006D007E82CFCE93DFDEA3EFEEB3FFFC3B4
:2009F20074209C74039DE49E74808FF063F08095F050087C207D037E007F00C3EC94E0EDD3
:200A120094FCEE94FFEF6480947F50087CE07DFC7EFF7FFF853957853A5885373985383A8D
:200A32008C028D0374CDC39AF533740A9BF53474CD2AF535740A3BF536C3E5339498E534E5
:200A5200648094885006753398753408C374E49533748C8534F063F08095F050067533E477
:200A720075340CC3E5359498E536648094885006753598753608C374E49535748C8536F0B0
:200A920063F08095F050067535E475360C74CD2CFC740A3DFD74FFC39CF5EA74FF9DF5FA80
:200AB200AE35AF3674FFC39EF5EC74FF9FF5FCAE33AF3474FFC39EF5ED74FF9FF5FD2212F2
:200AD20008C985824E85834FC37446954EE4954F5006754E46754F007432C3954EF517E400
:200AF200954FF518900024121488AE82AF83AC59AD5AEE2CFEEF3DFF8E048F05C3EC941067
:200B1200ED6480948E400AEC24F0FCED34F1FD80EB8C068D07C3E49E74808FF063F08095CA
:200B3200F0400A74102EFE740E3FFF80E88E508F512274E4C0E0741EC0E07480C0E01217CA
:200B520023158115811581740AC0E0741FC0E07480C0E012172315811581158174BAC0E0DD
:200B7200741EC0E07480C0E012172315811581158112013FAF82BF7530C00774CDC0E014EC
:200B9200C0E0C0E0743DC0E08552828553838554F0E55512160E85825285835385F054F553
:200BB20055E58124FCF581D007BF6430C00774CDC0E014C0E0C0E0743DC0E085528285532A
:200BD200838554F0E555120D7785825285835385F054F555E58124FCF581D007BF660280A6
:200BF20076E4C0E0C0E07470C0E07441C0E08552828553838554F0E555121458AF82E581A4
:200C120024FCF581EF700AF552F553755470755541E4C0E0C0E0C0E0C0E0855282855383D8
:200C32008554F0E5551213FBAF82E58124FCF581EF7008F552F553F554F555C052C053C0E4
:200C520054C0557442C0E0741FC0E0120DABE58124FAF581020B8322745EC0E0741FC0E075
:200C72007480C0E01217231581158115817484C0E0741FC0E07480C0E012172315811581E9
:200C9200158174BAC0E0741EC0E07480C0E012172315811581158112013FAF82BF7502054C
:200CB20056BF64021556BF6602802E7438255650037556C8E5567002F556AE567F00C00619
:200CD200C00774B8C0E0741FC0E07480C0E0121723E58124FBF58180BE2275EB0375FBF737
:200CF20074D1C0E0741FC0E07480C0E012172315811581158112013FAF82BF750CE5EB2471
:200D1200F6F5EBE5FB34FFF5FBBF640B740A25EBF5EBE435FBF5FBBF66028048C3742F955E
:200D3200EB74F895FB500675EB2F75FBF8C3E5EB9453E5FB94F2500675EB5375FBF274FFAF
:200D5200C395EBFE74FF95FBFFC006C0077412C0E07420C0E07480C0E0121723E58124FBF2
:050D7200F581809122D3
:201D9E000A54797065206469676974733B20656E6420772F23002020202020256325632585
:201DBE006325632563002563000A53746172740D0A000D686B703A2025322E3166200A0DDE
:201DDE00686B643A202575000A0D2D2D2D2D2D2D2D2D2D2D2D2D4441544120434F4C4C45DE
:201DFE004354494F4E2D2D2D2D2D2D2D2D2D2D2D2D0A000A0D44657369726564204865611D
:201E1E0064696E67097C0941637475616C2048656164696E67097C0954696D6520286D7305
:201E3E00290A0D000D257509097C09257509097C0925750A000D506C656173652073656C66
:201E5E00656374206120646573697265642068656164696E672E0A000D2775272077696C43
:201E7E006C20696E6372656D656E74206279203520646567726565732E20276427207769A4
:201E9E006C6C2064656372656D656E74206279203520646567726565732E0A000D2766272D
:201EBE00207768656E2066696E69736865640A000D446573697265642068656164696E6701
:201EDE003A2025750A000D506C656173652073656C656374206120646573697265642068D6
:201EFE00656164696E67206B702E0A000D2775272077696C6C20696E6372656D656E74207C
:201F1E00627920302E312E202764272077696C6C2064656372656D656E7420627920302EF1
:201F3E00312E0A000D446573697265642068656164696E67206B703A2025322E31660A00E2
:201F5E000D506C656173652073656C656374206120646573697265642068656164696E67EB
:201F7E00206B642E0A000D2775272077696C6C20696E6372656D656E7420627920312E20F5
:201F9E002764272077696C6C2064656372656D656E7420627920312E0A000D44657369723A
:201FBE0065642068656164696E67206B643A2025750A000D41646A7573742066616E20610F
:201FDE006E676C652E2027752720666F722075702C2027642720666F7220646F776E2C2037
:1D1FFE00276627207768656E2066696E69736865642E0A000D50573A2025750A00EC
:0B0D7700A8811818C6B2E7C602160ECD
:200D82007A10E4FBFCE58225E0F582E58333F583EB33FBEC33FCEB9517F5F0EC9518400667
:090DA200FCABF0438201DADD2212
:200DAB00C015858115E51524FDF8868318868218E493A3B42577C200C201C202C203C204A6
:200DCB00C20579087700C206E493A324C64017240A50157005B50802D205D204FAE775F06C
:200DEB000AA42AF780E2240A2430B46C04D20080D7B46804D20180D0B47303020E43B46410
:200E0B000612111D020E9FB4750612111D020EBFB4630518E6188017B47803020E7EB466F4
:200E2B0003020FD3B42E0679097700809B600612120F020DBB021229C083C08286F018868B
:200E4B008318868218300419C205C082C083121D316007A31508E50870F41211FAD083D01B
:200E6B0082121D316006A312120F80F5D082D083020DBB120E9620010C120E963000061284
:200E8B000E96120E96121221020DBBE61211FFE618021200ED30E71CD203E9F42401F920B4
:200EAB000112EAF43400FA30000AEBF43400FBECF43400FC200110300008EB7024EC70214B
:200ECB00C200EA701CD201E97017200614300409E508600515081211FA743012120F020DA3
:200EEB00BBC082C083121137300460790A30001DEB54F0703619EB540F703019EA54F07056
:200F0B002A19EA540F702419EF54F0701E790520010BEF540F701419EE54F0700E7903EE15
:200F2B00540F700719ED54F0700119E508A203994019F508C003C002C007C006C00512117D
:200F4B00FAD005D006D007D002D003300319C003C002C007C006C005742D12120FD005D0C9
:200F6B0006D007D002D00320014030002CC005C006C0078A82EBF5831211FFE583121200B8
:200F8B00E5821211FFE582121200D0E0F5821211FFE582D083D08280058D828E83EF121225
:200FAB0000E5831211FFE58380038D82EE121200E5821211FFE582121200121221D083D014
:200FCB008230060122020DBB30040EE508D39509F50850287508008023E6547FFA188603D8
:200FEB0008AE82AF839021E77D07E4932BA3E4933A5003A3DDF48D098E828F83C000121009
:20100B00FFC082C083EFB47E02801940112482FDC3EA33FAEB33FBEC33FCDDF48006F42414
:20102B007F1212FD75F01BE4F8FFFEFD90217BE933F9EA33FAEB33FBEC33FC5017E4932D18
:20104B00D4FD7401933ED4FE7402933FD4FF74039338D4F8A3A3A3A3D5F0D4E47C50FBFAA9
:20106B00F9E509232354FC88831212FDED29D4F50DEE3AD4F50CEF3BD4F50BE5833CD4F568
:20108B000A92D5D083D082D0001210FFC000C3749E9F5005D000020DD3C0821212FDD0824E
:2010AB0030D50FE92401F9E43AFAE43BFBE43CFC40E2D206120EBF20040CE509600812103B
:2010CB00EF7003D509F4E5096015742E12120F7800D20208E81210EF121200E8B509F4D0BE
:2010EB0000020DBB14C31392D5240AF9E720D501C4540F22E618F9E618FC33E9339203FFA9
:20110B006003430480E618FBE618FA7900C201D20022E6F9FD18200112AA01E6F918300080
:20112B000AAC02AB01E6FA18E6F91822E975F06484FE740AC5F084C445F0FD30010122EA10
:20114B00540FF990201B932DD4FDE94410933ED4FEEAC4540FF990203B932DD4FDE9441029
:20116B00933ED4FEE94420933400D4FF20000122EB540FF990206B932DD4FDE94410933E96
:20118B00D4FEE94420933FD4FFE43400FAEBC4540FF990209B932DD4FDE94410933ED4FEA7
:2011AB00E94420933FD4FFE94430933AD4FAEC540FF99020DB7B001211CDECC4540FF99060
:2011CB00212B932DD4FDE94410933ED4FEE94420933FD4FFE94430933AD4FAE94440933B22
:2011EB00D4FB227420300502743012120F1508E50870F022C4540F7003300219D202249058
:20120B00D43440D4C083C082C000F582120135D000D082D083222002FC743002120FD01542
:01122B0022A0
:20201B0000561268248036924804601672288440000205071012151720232528303335388D
:20203B00009692888480767268646056524844400040812263044586276809509132731402
:20205B000000000101020202030304040405050600367208448016528824609632680440DF
:20207B00005510662176328742985308641975300006131926323945525865727885919824
:20209B000076522804805632088460361288644000857157432814008671574329140086A9
:2020BB00000409141924293438434853586368720001020304050607080910111213141503
:2020DB000016324864809612284460769208244000724416886032057749219365381082FB
:2020FB00007755331088664421997754321088650016335067830017345067840118345129
:20211B0000000000000001010101010102020202005612682480369248046016722884403A
:20213B00005409631872278136914500540963180043873074176104489135792266095359
:20215B00006836057342107947158452218958260002050810131618212426293234374058
:20217B00000000500000002500005012000025060050120300255601501278002506390023
:20219B00125319005676090028880400144402000722010004610000523000002615000077
:2021BB0063070000810300009101000095000000480000002400000012000000060000006B
:1A21DB000300000001000000010000007DC5DDC334C2E0BE38BD86BBE4B99C
:20122C001212CFBC00030216D1EF60FA30D502B2D1E583B4FF030216E7E582B4FF030216E2
:20124C00E7258340072482400B0216D124831450030216E7F582EA8DF0A4A8F0EA8EF0A49F
:20126C0028F8E435F0F9EB8DF0A428E935F0F9E433CA8FF0A429F9EA35F0FAEBF88EF0A4D1
:20128C0029F9EA35F0FAE433FBEC8DF0A429F9EA35F0FAE43BFBE88FF0A42AFAEB35F0FB79
:2012AC00E433CCFD8EF0A42AFAEB35F0FBE43CFCED8FF0A42BFBEC35F0FC20E70312134023
:0312CC000216B057
:2012CF00AA82AB83A2F73392D1F5826002D2F7ACF0E58124F9F8E6FD08E6FE0886F008E682
:0E12EF00A2F73392D5F5836002D2F7AFF0225A
:06008000E478FFF6D8FD54
:2012FD006040F82582500274FFF582E824F8501ECCCBCAF9E4CC24F85014CBCAF9E4CB24F9
:20131D00F8500BCAF9E4CA24F8500379002224086010F8C3EC13FCEB13FBEA13FAE913F9AB
:03133D00D8F122C2
:201340007804EC7011E58224F8500AF582E4C9CACBFCD8EF22EC7820058220E713D58201AC
:1313600022C3E933F9EA33FAEB33FBEC33FCD8EA158222BA
:20137300FCABF0AA83A982749EF582C2D1EC30E716D2D1E9F42401F9EAF43400FAEBF43479
:0D13930000FBECF43400FC1213400216B015
:2013A00012142BC3749E9582403979001212FD30D126E9F42401F582EAF43400F583EBF4D4
:2013C0003400F5F0ECF43400700AE582458345F0700122E430E70F22EC20E71489828A8324
:1B13E0008BF02230D10AE4F582F583F5F074802274FFF582F583F5F0747F2220
:20005E007900E94400601B7A00902200785175AF00E493F2A308B8000205AFD9F4DAF275B8
:02007E00AFFFD2
:2013FB00FFA8811818121685D2D133E6400730E70B7582012220E70675820022C2D11216AD
:10141B0067E97003F5822230D101B3E433F5822200
:12142B00AA82AB83A2F73392D1F5826002D2F7ACF022C6
:1B143D0020F71130F6138883A88220F509F6A8837583002280FEF280F5F022AE
:20145800FFA8811818121685D2D133E6400730E70B7582002220E70675820122C2D112164F
:1014780067E97003F5822220D101B3E433F58222B3
:1D148800E5828517F0A4C582C0F08518F0A4D0F025F0C5838517F0A42583F58322F9
:2014A500C015858115C082058105810581E51524FBF8A9150909E6F70809E6F70809E6F7C9
:2014C500A815080886820886830886F0121D31FAA3121D31FBA3121D31FF74012AFCE43B8F
:2014E500FD8F06A815080886820886830886F0EC12143DA3ED12143DA3EE12143D8A828B24
:20150500838FF0A81508E612143D851581D0152285821285831385F014756F127570007587
:201525007140850E72850F738510748511759014A51217F5AE82AF83AB12AC13AD148B82C2
:201545008C838DF0E412143D8E828F8322C015858115E51524F8FF8F75E51524FBFF8F6F50
:20156500757000757140E51524F8F886720886730886749014A51217F5AE82AF83E515246B
:1B158500FBF886030886040886058B828C838DF0E412143D8E828F83D01522A1
:2015A000AAF0FBE5828517F0A4FCADF0E5838517F0A42DFDE435F0FEE5828518F0A42DFDDB
:2015C000E5F03EFEE433FFEA8517F0A42EFEE5F03FFFE5838518F0A42EFEE5F03FFFE5824C
:2015E0008519F0A42EFEE5F03FFFEB8517F0A42FFFEA8518F0A42FFFE5838519F0A42FFF20
:0E160000E582851AF0A42F8EF08D838C822255
:200086007800E84400600A790175AF00E4F309D8FC7850E84400600C7901900001E4F0A318
:0400A600D8FCD9FAAF
:20160E001212CF7900E583B58202800D5003121CFFE583C395821212FDE5D0C465D020E190
:20162E0017EA2DFAEB3EFBEC3FFC500974011212FDEC4480FC0216B0C3EA9DFAEB9EFBEC12
:19164E009FFC500FC3E499F9E49AFAE49BFBE49CFCB2D11213400216B032
:201667007901AA82E68F82B5821318E6B5F00E18E6B5830918E68A82B58202790022B4807A
:201687000FE5F0700AE5837006E58270027F00EFB6801518B6001018B6000B18B6000608E2
:0916A70008087600220808082258
:2016B000B98003EA13B34010EA2401FAE43BFBE43CFC50047C800582BC000EBB000BBA007E
:2016D00008E4F5F0F583F58222A2D1E582138CF092F78B838A8222E4F583F58275F080F43E
:0F16F000A2D11322E4F583F58275F0C0747F2236
:2016FF00C015858115120135D0152285827285837385F074E4F56FF570F5718516759016E6
:20171F00FF0217F5C015858115E51524FBFF8F75E4F56FF570F571E51524FBF886720886E7
:0D173F00730886749016FF1217F5D015225E
:20174C00AF82C065C066C0671217598007C063C0648F8222158115811581056DE4B56D021B
:20176C00056E22AF8274302FFF24C6500A74072FFF3007034307208F8202174CE582FFC494
:20178C00540FF582C00712176FD007740F5FF58202176F858217856818856919856A1A8594
:2017AC006B1BAA6C751C20EA2AFAE51B235401FF8A064EFAE5182518F518E51933F519E508
:2017CC001A33F51AE51B33F51BC3EA95174008EAC39517FA431801D51CCD85186885196944
:2017EC00851A6A851B6B8A6C22858263858364856F65857066857167E4F56DF56EAD72AE54
:20180C0073AF748D828E838FF0121D31FC74012DF572E43EF5738F74ECFF7003021CF8BF62
:20182C0025028003021CF0C208C209C20AC20BC20CC20DC20EC20F7576007577007CFFAA7C
:20184C0072AB73AE748A828B838EF0121D31FFA3AA82AB838A728B738E74BF25078F8212CC
:20186C00174C80998F7974D025795026E57924C64020BCFF12E57775F00AA4FD2F24D0F587
:20188C007770C2D20980BEEC75F00AA42F24D0FC80B3BF2E07BCFFAD7C0080A98F05BD6176
:2018AC0000400CED248540075307DFD2078002C207BF2002806DBF2B028063BF2D02805932
:2018CC00BF42028063BF43028068BF4403021A9ABF4603021AB0BF4803021851BF49030218
:2018EC001A9ABF4A03021851BF4C028040BF4F03021AA1BF5003021A2FBF5302805CBF54B6
:20190C0003021851BF5503021AA6BF5803021AABBF5A03021851021AB4D208021851D20A1B
:20192C00021851D20B021851D20D021851D20E021851300D0CE57514FE8E758E01870780FE
:20194C0011E57524FEFE8E758E018705098706198D078F8212174C021ABDE57524FDFE8E29
:20196C00758E01870309870509870619198B688D698E6A8B828D838EF0C004121D19AD82B9
:20198C00AE83D004BCFF028D0420082AC3ED95775024E577C39DF577AE778E031EEB60140B
:2019AC00758220C006C005C00412174CD004D005D00680E68E778C06856882856983856AF5
:2019CC00F0121D31FCFF602F8E041EC374808CF063F08095F050208F82C006C00512174C65
:2019EC00D005D006AA68AB69AC6A0ABA00010B8A688B698C6A80C1200803021ABDC3ED95BE
:201A0C00774003021ABDE577C39DF577AE778E041EEC7003021ABB758220C00612174CD0D2
:201A2C000680EBE57524FDFC8C758C01870209870309870419198A688B698C6AAC6ABC8014
:201A4C000040047F438014BC600040047F50800BBC400040047F4980027F588F82C00712DB
:201A6C00174C75823A12174C75823012174C75827812174CD007BF4902800BBF50028006CE
:201A8C008569821217888568821217888023D20C75760A801C757608801775760A80127561
:201AAC007610800DD20F80098F8212174C80028E77300F5CE57524FCFE8E758E0187020959
:201ACC0087030987040987061919198A688B698C6A8E6B7568F5756921756A8085687A850A
:201AEC00697B856A7C7401257AFAE4357BFCAE7C8A688C698E6A857A82857B83857CF012DD
:201B0C001D31FEFF70030218098F8212174C80CCE5767003021809757882300D2DE57514CE
:201B2C00FC8C758C01E7FA3395E0FBFCFE8A688B698C6A8E6B200C66AA687B007C007E00A3
:201B4C008A688B698C6A8E6B8054300E21E57524FCFE8E758E018702098703098704098727
:201B6C00061919198A688B698C6A8E6B8030E57524FEFE8E758E01870409870619EE339587
:201B8C00E0FBFA8C688E698B6A8A6B200C10AA68AB697C007E008A688B698C6A8E6B300C22
:201BAC0022E56B30E71BC3E49568FAE49569FBE4956AFCE4956BFE8A688B698C6A8E6B80E4
:201BCC0002C20CD210A9787E00756C00857682C006C00112179FD001D00620100BE56CC404
:201BEC00FCE7FB4CF7198002A76C0EB210E5684569456A456B70D289788E05E577700375C6
:201C0C007701200924200821ED04FEAC77C3EE9C5015758220C006C005C00412174CD00437
:201C2C00D005D0061C80E68C77300C0E75822DC00512174CD00515778023ED6020300A0E07
:201C4C0075822BC00512174CD0051577800F300B0C758220C00512174CD0051577200822E9
:201C6C00AE778E041EC3ED9C502B3009047C3080027C208C82C006C00512174CD005D006FC
:201C8C0080E0C3ED95775008E577C39DF577800775770080028E77A9788D068E051EED60F0
:201CAC0026B21020100A09E7C4540FFD8D6C80078705740F5DF56C856C82C006C001121772
:201CCC006FD001D00680D4200803021809AE778E051EED7003021809758220C00612174C95
:131CEC00D00680EB8F8212174C021809856D82856E8322EF
:0B21F5003C4E4F20464C4F41543E0032
:1A1CFF00E582C583F582A2D133A2D592D11392D5ECCFFCEBCEFBEACDFA226D
:181D1900AA82AB83121D316003A380F8C3E5829AF582E5839BF58322A2
:0D005100758182121D73E582600302004E6E
:1C1D310020F71430F6148883A88220F507E6A88375830022E280F7E49322E022C1
:0B1D4D00E4AC82FBFAF97486021D6909
:081D58007F86121D79F582223D
:131D6000FCABF0AA83A982749EC2D1F5821213400216B038
:041D73007582002253
:201D77007F9E12142B30D1030216D1C3EF9582500974FFF5F0F583F5822279001212FD8943
:071D9700828A838BF0EC222D
:00000001FF
