:040000000200513277
:01000B0032C2
:0100130032BA
:01001B0032B2
:0100230032AA
:01002B0032A2
:01003300329A
:01003B003292
:01004300328A
:03004B0002074366
:2000AA00E4F537F538F539F53AF53DF53EF541F542F543F544F545F546F547F548F549F538
:1E00CA004A754BC8754C0A754DC8754E0AF551F552F553F554F555F556F55702004ED5
:03004E000205BEEA
:2000E80075B1677E007F011EBEFF011FEE4F70F7E5B130E7FB75B288227598507589207565
:200108008DDCD28E438E10438780D29943A4012275FFDE75FFAD1200E812010143E1044382
:20012800E34022AF8210990280FB8F992210980280FB85998212012B85998222C015858131
:2001480015E51524FBF886820886830886F0121BDCE5828583F045F070028062E51524FBD0
:20016800FF8F11E51524FBF8860E08860F08861090000175F0001213D890000175F00012FD
:200188001BDCAE827F00C3EF9E501FEF2401F582E43400F583E0FDBD0A0DEF2401F582E4B7
:2001A8003400F583740DF00F80DC752901752A00752B007528008E2C7582C612045AD01568
:2001C8002275230074C025234017752E23752F00753040752D007531017582C61204D080CF
:2001E800E375240C752924752A00752B40752800752C017582C612045A22752E26752F0033
:20020800753040752D017531027582C61204D074FFB52605758200805F7F008F068EF00543
:20022800F07C017D008006EC2CFCED33FDD5F0F7AA267B00EA5204EB5205EC4D6007743147
:200248002FF58280330E8E07BE080040D0E52730E0057582398021E52730E10575822A800F
:2002680017E52730E205758230800DE52730E30575822380037582FF22AF82E4FDFEEF7040
:200288001DC006C0057473C0E0741CC0E07480C0E0120144158115811581D005D006C006D9
:2002A800C0057408C0E0E4C0E07408C0E0E4C0E07408C0E0E4C0E07408C0E0E4C0E0740875
:2002C800C0E0E4C0E07489C0E0741CC0E07480C0E0120144E58124F3F58190A12075F0078A
:2002E800E41203F5D005D0067F00C007C006C005120202AC82D005D006D0078C03BCFF027A
:200308008003BB2A17902710E4F5F0C007C006C0051203F5D005D006D00780CEBB232AC0D2
:2003280006C005120202AC82D005D006BC2313902710E4F5F0C006C0051203F5D005D00639
:2003480080DD8D828E830203F4EBFA3395E0FCC007C006C005C004C003C002C002C0047401
:2003680099C0E0741CC0E07480C0E0120144E58124FBF581D002D003D004D005D0068D175E
:200388008E1890000AC004C003C00212134BA882A983D002D003D004D007EA28F8EC39F98E
:2003A800E824D0FDE934FFFEC007C006C005C003120202AC82D003D005D006D007ECB503F0
:2003C8001B902710E4F5F0C007C006C005C0031203F5D003D005D006D00780CC0FC3EF6485
:2003E80080948550030202F28D828E8322AC82AD83AEF0FF780079007A007B00C3E89CE9C0
:200408009DEA9EEB9F500F08B8000909B900050ABA00E90B80E62220C7FDD2C530C3FDC2C9
:20042800C5C2C3228582C210C30280FB228582C2D2C410C30280FB2230C3FD85C282C2C3FE
:200448002230C3FDAFC2C2C3D2C410C30280FB8F8222AF82C00712041FD00774FE5FF58227
:2004680012042C85288212042C7F00AD2C7E001DBDFF011E8F037C00C3EB9DEC64808EF04C
:2004880063F08095F0501FEF2529FCE4352AFDAE2B8C828D838EF0121BF4F582C00712042A
:2004A8002CD0070F80C5AE2C7F001EBEFF011FEE2529FEEF352AFFAD2B8E828F838DF01279
:2004C8001BF4F58212043522AF82C00712041FD0078F0674FE5EF582C00712042C852D8204
:2004E80012043512041FD00774014FF58212042C7F00AD317E001DBDFF011E8F037C00C37C
:20050800EB9DEC64808EF063F08095F0502ED2C2EF252EFCE4352FFDAE30C007C006C005E0
:20052800C004120440AB82D004D005D006D0078C828D838EF0EB1213000F80B6C2C2AE31C2
:200548007F001EBEFF011FEE252EFEEF352FFFAD30C007C006C005120449AC82D005D00621
:20056800D0078E828F838DF0EC12130022753223752932752A00752B40752820752C0175DD
:20058800823012045A753200752932752A00752B40752821752C0175823012045A7532009D
:2005A800752932752A00752B40752822752C0175823012045A221201181207031207211237
:2005C800072A12079212073D75820D12012B749CC0E0741CC0E07480C0E01215E615811573
:2005E80081158175EA3275FAF575EB3275FBF575EC3275FCF575ED3275FDF5753B0074FFD9
:20060800253B50FA120C721208F3120B66120BE8AE5B7F00AC5A7D00C006C007C004C005E2
:2006280074A5C0E0741CC0E07480C0E01215E6E58124F9F581E4F53BF53C74B7C0E0741C8F
:20064800C0E07480C0E01215E615811581158174E2C0E0741CC0E07480C0E01215E6158132
:2006680015811581E53D600F753D001209B68582568583571209FEE53F600C753F001209FE
:2006880090858254858355E53E6043753E0075820512079C858252121C10AC82AD83AEF04D
:2006A800FFC004C005C006C007909A6775F04D743D121189AC82AD83AEF0FFE58124FCF507
:2006C800818C828D838EF0EF121C1B8582537414B55191C035C036C033C034C054C05574D5
:2006E80007C0E0741DC0E07480C0E01215E6E58124F7F58175510002066C2275E12753BD99
:200708007F43A50F53A57FAF9074804FF59053A77FAFB074804FF5B02243A80243E608D20B
:20072800AF2275D98175DAC275DBC275DCC275DDC275D8402275CF93D2C622C0E0C0D01047
:20074800DF02803E053C75E90075F970E53C24CD5002053B0551054174F425415006753D5F
:2007680001754100054074F825405006753F01754000054274F62542500B754200753E0106
:20078800800353D8C0D0D0D0E03275D10375AA8043AB01228582ACAFAA74DF5FF5AA43AA1E
:2007A80010E5AA30E5FB859C82227419C0E0741DC0E07480C0E01215E61581158115817488
:2007C80042C0E0741DC0E07480C0E01215E6158115811581747AC0E0741DC0E07480C0E048
:2007E8001215E6158115811581120135AF82BF7530C00774CDC0E014C0E0C0E0743DC0E0F8
:200808008543828544838545F0E5461214D185824385834485F045F546E58124FCF581D007
:2008280007BF6430C00774CDC0E014C0E0C0E0743DC0E08543828544838545F0E546120C70
:20084800FD85824385834485F045F546E58124FCF581D007BF66028076E4C0E0C0E0742060
:20086800C0E07441C0E08543828544838545F0E54612131BAF82E58124FCF581EF700AF535
:2008880043F544754520754641E4C0E0C0E0C0E0C0E08543828544838545F0E5461212D02B
:2008A800AF82E58124FCF581EF7008F543F544F545F546C043C044C045C046748EC0E0748E
:2008C8001DC0E0120D08E58124FAF5810207F1221209B6AE82AF83C3EE945AEF648094805D
:2008E800500575820180037582002274ADC0E0741DC0E07480C0E01215E6158115811581B2
:2009080074D0C0E0741DC0E07480C0E01215E6158115811581747AC0E0741DC0E07480C0E4
:20092800E01215E6158115811581120135AF82BF750B74322558F558E43559F559BF640CE9
:20094800E55824CEF558E55934FFF559BF66028036C3E5589410E559940E4006755810755B
:20096800590EE55845597004F558F559C058C0597414C0E0741EC0E07480C0E01215E6E50D
:200988008124FBF58180A322752E5C752F00753040752D027531027582C01204D0AF5C7EFA
:2009A80000AC5D7D00EC4EF582ED4FF58322752E4F752F00753040752D027531027582E084
:2009C8001204D0AF4F7E00AC507D00EC4206ED4207754F5175294F752A00752B40752800AC
:2009E800752C017582E0C007C00612045AD006D0078E828F8322E558C39554F537E55995A0
:200A080055F538C3E53794F8E53864809478500C74102537F537740E3538F538C37408957C
:200A28003774878538F063F08095F0500CE53724F0F537E53834F1F538AC5A7D007E007FD0
:200A480000853717E538F5183395E0F519F51A8C828D838EF0EF121463AC82AD83AEF0FFBD
:200A6800855B5EE4F55FF560F561E537C39539FAE538953A8A17F5183395E0F519F51A85C2
:200A88005E82855F838560F0E561C007C006C005C004121463A882A983AAF0FBD004D005B9
:200AA800D006D007E82CFCE93DFDEA3EFEEB3FFF85373985383A74CDC39CF8740A9DF9E483
:200AC8009EE49F8833893474CD2CF8740A3DF9E43EFAE43FFB88358936C3E53394D0E5344E
:200AE8006480948750067533D0753407C374AC9533748D8534F063F08095F050067533AC1A
:200B080075340DC3E53594D0E5366480948750067535D0753607C374AC9535748D8536F0E1
:200B280063F08095F050067535AC75360D74FFC39CFC74FF9DFDE49EE49F8CEA8DFAAE3333
:200B4800AF3474FFC39EF5EC74FF9FF5FCAE35AF3674FFC39EF5ED74FF9FF5FD2222742A8E
:200B6800C0E0741EC0E07480C0E01215E61581158115817450C0E0741EC0E07480C0E012FC
:200B880015E6158115811581747AC0E0741DC0E07480C0E01215E615811581158112013526
:200BA800AF82BF7502055ABF6402155ABF6602802E74F1255A5003755A0FE55A7002F55AE9
:200BC800AE5A7F00C006C0077484C0E0741EC0E07480C0E01215E6E58124FBF58180BE2233
:200BE800749DC0E0741EC0E07480C0E01215E615811581158174C3C0E0741EC0E07480C0EA
:200C0800E01215E6158115811581747AC0E0741DC0E07480C0E01215E615811581158112E9
:200C28000135AF82BF7506740A255BF55BBF6406E55B24F6F55BBF6602802E7438255B5099
:200C480003755BC8E55B7002F55BAE5B7F00C006C00774F9C0E0741EC0E07480C0E01215E0
:200C6800E6E58124FBF58180B62275EB0375FBF77412C0E0741FC0E07480C0E01215E6155A
:200C88008115811581120135AF82BF750CE5EB24F6F5EBE5FB34FFF5FBBF640B740A25EB5D
:200CA800F5EBE435FBF5FBBF66028048C3742F95EB74F895FB500675EB2F75FBF8C3E5EB97
:200CC8009453E5FB94F2500675EB5375FBF274FFC395EBFE74FF95FBFFC006C0077453C08A
:150CE800E0741FC0E07480C0E01215E6E58124FBF58180912215
:201C73000A54797065206469676974733B20656E6420772F230020202020202563256325B1
:201C93006325632563002563000A53746172740D0A000D686B703A2025750A0D686B643A3B
:201CB300202575000A0D2D2D2D2D2D2D2D2D2D2D2D2D4441544120434F4C4C454354494F4C
:201CD3004E2D2D2D2D2D2D2D2D2D2D2D2D0A000A0D48656164696E6709097C0974656D7069
:201CF3005F6D6F746F72707709097C094572726F720A0D000D257509097C092575090909AF
:201D13007C0925750A000D506C656173652073656C6563742061206465736972656420736C
:201D330074656572696E67206761696E2E0A000D2775272077696C6C20696E6372656D6500
:201D53006E7420627920302E312E202764272077696C6C2064656372656D656E742062793A
:201D730020302E312E0A000D276627207768656E2066696E69736865640A000D44657369D0
:201D9300726564207374656572696E67206761696E3A2025322E31660A000D506C65617333
:201DB300652073656C656374206120646573697265642068656164696E672E0A000D2775B9
:201DD300272077696C6C20696E6372656D656E74206279203520646567726565732E202748
:201DF30064272077696C6C2064656372656D656E74206279203520646567726565732E0A0F
:201E1300000D446573697265642068656164696E673A2025750A000D506C656173652073FA
:201E3300656C656374206120646573697265642068656164696E67206B702E0A000D277535
:201E5300272077696C6C20696E6372656D656E7420627920312E202764272077696C6C2047
:201E730064656372656D656E7420627920312E0A000D446573697265642068656164696EBE
:201E930067206B703A2025750A000D506C656173652073656C656374206120646573697210
:201EB30065642068656164696E67206B642E0A000D2775272077696C6C20696E6372656DE9
:201ED300656E742062792031302E202764272077696C6C2064656372656D656E7420627982
:201EF3002031302E0A000D446573697265642068656164696E67206B643A2025750A000D5F
:201F130041646A7573742066616E20616E676C652E2027752720666F722075702C20276473
:201F33002720666F7220646F776E2C20276627207768656E2066696E69736865642E0A00B4
:091F53000D50573A2025750A00D3
:0B0CFD00A8811818C6B2E7C60214D187
:200D0800C015858115E51524FDF8868318868218E493A3B42577C200C201C202C203C20449
:200D2800C20579087700C206E493A324C64017240A50157005B50802D205D204FAE775F00F
:200D48000AA42AF780E2240A2430B46C04D20080D7B46804D20180D0B47303020DA0B46457
:200D68000612107A020DFCB4750612107A020E1CB4630518E6188017B47803020DDBB466CB
:200D880003020F30B42E0679097700809B600612116C020D18021186C083C08286F01886BD
:200DA8008318868218300419C205C082C083121BF46007A31508E50870F4121157D083D0A1
:200DC80082121BF46006A312116C80F5D082D083020D18120DF320010C120DF330000612F6
:200DE8000DF3120DF312117E020D18E612115CE61802115DED30E71CD203E9F42401F9202E
:200E08000112EAF43400FA30000AEBF43400FBECF43400FC200110300008EB7024EC7021EE
:200E2800C200EA701CD201E97017200614300409E50860051508121157743012116C020D8D
:200E480018C082C083121094300460790A30001DEB54F0703619EB540F703019EA54F07040
:200E68002A19EA540F702419EF54F0701E790520010BEF540F701419EE54F0700E7903EEB9
:200E8800540F700719ED54F0700119E508A203994019F508C003C002C007C006C005121121
:200EA80057D005D006D007D002D003300319C003C002C007C006C005742D12116CD005D0B4
:200EC80006D007D002D00320014030002CC005C006C0078A82EBF58312115CE58312115DA3
:200EE800E58212115CE58212115DD0E0F58212115CE582D083D08280058D828E83EF1211B4
:200F08005DE58312115CE58380038D82EE12115DE58212115CE58212115D12117ED083D08C
:200F28008230060122020D1830040EE508D39509F50850287508008023E6547FFA1886031E
:200F480008AE82AF839021287D07E4932BA3E4933A5003A3DDF48D098E828F83C00012106B
:200F68005CC082C083EFB47E02801940112482FDC3EA33FAEB33FBEC33FCDDF48006F4245B
:200F88007F12125A75F01BE4F8FFFEFD9020BCE933F9EA33FAEB33FBEC33FC5017E4932D1F
:200FA800D4FD7401933ED4FE7402933FD4FF74039338D4F8A3A3A3A3D5F0D4E47C50FBFA4D
:200FC800F9E509232354FC888312125AED29D4F50DEE3AD4F50CEF3BD4F50BE5833CD4F5AF
:200FE8000A92D5D083D082D00012105CC000C3749E9F5005D000020D30C08212125AD082DB
:2010080030D50FE92401F9E43AFAE43BFBE43CFC40E2D206120E1C20040CE5096008121081
:201028004C7003D509F4E5096015742E12116C7800D20208E812104C12115DE8B509F4D0EF
:2010480000020D1814C31392D5240AF9E720D501C4540F22E618F9E618FC33E9339203FFEF
:201068006003430480E618FBE618FA7900C201D20022E6F9FD18200112AA01E6F918300024
:201088000AAC02AB01E6FA18E6F91822E975F06484FE740AC5F084C445F0FD30010122EAB4
:2010A800540FF9901F5C932DD4FDE94410933ED4FEEAC4540FF9901F7C932DD4FDE944104D
:2010C800933ED4FEE94420933400D4FF20000122EB540FF9901FAC932DD4FDE94410933EFA
:2010E800D4FEE94420933FD4FFE43400FAEBC4540FF9901FDC932DD4FDE94410933ED4FE0B
:20110800E94420933FD4FFE94430933AD4FAEC540FF990201C7B0012112AECC4540FF99065
:20112800206C932DD4FDE94410933ED4FEE94420933FD4FFE94430933AD4FAE94440933B85
:20114800D4FB227420300502743012116C1508E50870F022C4540F7003300219D20224909F
:20116800D43440D4C083C082C000F58212012BD000D082D083222002FC743002116CD01594
:011188002244
:201F5C0000561268248036924804601672288440000205071012151720232528303335384D
:201F7C000096928884807672686460565248444000408122630445862768095091327314C2
:201F9C0000000001010202020303040404050506003672084480165288246096326804409F
:201FBC000055106621763287429853086419753000061319263239455258657278859198E4
:201FDC00007652280480563208846036128864400085715743281400867157432914008669
:201FFC000004091419242934384348535863687200010203040506070809101112131415C3
:20201C000016324864809612284460769208244000724416886032057749219365381082BA
:20203C000077553310886644219977543210886500163350678300173450678401183451E8
:20205C000000000000000101010101010202020200561268248036924804601672288440FA
:20207C00005409631872278136914500540963180043873074176104489135792266095319
:20209C00006836057342107947158452218958260002050810131618212426293234374018
:2020BC000000005000000025000050120000250600501203002556015012780025063900E3
:2020DC00125319005676090028880400144402000722010004610000523000002615000037
:2020FC0063070000810300009101000095000000480000002400000012000000060000002B
:1A211C000300000001000000010000007DC5DDC334C2E0BE38BD86BBE4B95B
:2011890012122CBC0003021594EF60FA30D502B2D1E583B4FF030215AAE582B4FF030215A6
:2011A900AA258340072482400B02159424831450030215AAF582EA8DF0A4A8F0EA8EF0A4FC
:2011C90028F8E435F0F9EB8DF0A428E935F0F9E433CA8FF0A429F9EA35F0FAEBF88EF0A475
:2011E90029F9EA35F0FAE433FBEC8DF0A429F9EA35F0FAE43BFBE88FF0A42AFAEB35F0FB1D
:20120900E433CCFD8EF0A42AFAEB35F0FBE43CFCED8FF0A42BFBEC35F0FC20E70312129D6A
:0312290002157338
:20122C00AA82AB83A2F73392D1F5826002D2F7ACF0E58124F9F8E6FD08E6FE0886F008E625
:0E124C00A2F73392D5F5836002D2F7AFF022FD
:06008000E478FFF6D8FD54
:20125A006040F82582500274FFF582E824F8501ECCCBCAF9E4CC24F85014CBCAF9E4CB249C
:20127A00F8500BCAF9E4CA24F8500379002224086010F8C3EC13FCEB13FBEA13FAE913F94F
:03129A00D8F12266
:20129D007804EC7011E58224F8500AF582E4C9CACBFCD8EF22EC7820058220E713D5820150
:1312BD0022C3E933F9EA33FAEB33FBEC33FCD8EA1582225E
:20005E007900E94400601B7A00902141785175AF00E493F2A308B8000205AFD9F4DAF27578
:02007E00AFFFD2
:2012D000FFA8811818121548D2D133E6400730E70B7582012220E70675820022C2D1121518
:1012F0002AE97003F5822230D101B3E433F582226A
:1B13000020F71130F6138883A88220F509F6A8837583002280FEF280F5F022EC
:20131B00FFA8811818121548D2D133E6400730E70B7582002220E70675820122C2D11215CC
:10133B002AE97003F5822220D101B3E433F582222E
:1D134B00E5828517F0A4C582C0F08518F0A4D0F025F0C5838517F0A42583F5832237
:20136800C015858115C082058105810581E51524FBF8A9150909E6F70809E6F70809E6F707
:20138800A815080886820886830886F0121BF4FAA3121BF4FBA3121BF4FF74012AFCE43B8A
:2013A800FD8F06A815080886820886830886F0EC121300A3ED121300A3EE1213008A828B1C
:2013C800838FF0A81508E6121300851581D0152285821285831385F014756E12756F007506
:2013E8007040850E71850F728510738511749013681216B8AE82AF83AB12AC13AD148B8282
:201408008C838DF0E41213008E828F8322C015858115E51524F8FF8F74E51524FBFF8F6ECE
:20142800756F00757040E51524F8F886710886720886739013681216B8AE82AF83E515242A
:1B144800FBF886030886040886058B828C838DF0E41213008E828F83D015221D
:20146300AAF0FBE5828517F0A4FCADF0E5838517F0A42DFDE435F0FEE5828518F0A42DFD19
:20148300E5F03EFEE433FFEA8517F0A42EFEE5F03FFFE5838518F0A42EFEE5F03FFFE5828A
:2014A3008519F0A42EFEE5F03FFFEB8517F0A42FFFEA8518F0A42FFFE5838519F0A42FFF5E
:0E14C300E582851AF0A42F8EF08D838C822294
:200086007800E84400600A790175AF00E4F309D8FC7850E84400600C7901900001E4F0A318
:0400A600D8FCD9FAAF
:2014D10012122C7900E583B58202800D5003121BC2E583C3958212125AE5D0C465D020E153
:2014F10017EA2DFAEB3EFBEC3FFC5009740112125AEC4480FC021573C3EA9DFAEB9EFBEC32
:191511009FFC500FC3E499F9E49AFAE49BFBE49CFCB2D112129D02157352
:20152A007901AA82E68F82B5821318E6B5F00E18E6B5830918E68A82B58202790022B480B8
:20154A000FE5F0700AE5837006E58270027F00EFB6801518B6001018B6000B18B600060820
:09156A0008087600220808082296
:20157300B98003EA13B34010EA2401FAE43BFBE43CFC50047C800582BC000EBB000BBA00BC
:2015930008E4F5F0F583F58222A2D1E582138CF092F78B838A8222E4F583F58275F080F47C
:0F15B300A2D11322E4F583F58275F0C0747F2274
:2015C200C01585811512012BD0152285827185837285F073E4F56EF56FF570851674901536
:2015E200C20216B8C015858115E51524FBFF8F74E4F56EF56FF570E51524FBF886710886A6
:0D160200720886739015C21216B8D015221A
:20160F00AF82C064C065C06612161C8007C062C0638F8222158115811581056CE4B56C029E
:20162F00056D22AF8274302FFF24C6500A74072FFF3007034307208F8202160FE582FFC411
:20164F00540FF582C007121632D007740F5FF58202163285821785671885681985691A8551
:20166F006A1BAA6B751C20EA2AFAE51B235401FF8A064EFAE5182518F518E51933F519E548
:20168F001A33F51AE51B33F51BC3EA95174008EAC39517FA431801D51CCD85186785196884
:2016AF00851A69851B6A8A6B22858262858363856E64856F65857066E4F56CF56DAD71AEA0
:2016CF0072AF738D828E838FF0121BF4FC74012DF571E43EF5728F73ECFF7003021BBBBF23
:2016EF0025028003021BB3C208C209C20AC20BC20CC20DC20EC20F7575007576007CFFAAFB
:20170F0071AB72AE738A828B838EF0121BF4FFA3AA82AB838A718B728E73BF25078F82124F
:20172F00160F80998F7874D025785026E57824C64020BCFF12E57675F00AA4FD2F24D0F507
:20174F007670C2D20980BEEC75F00AA42F24D0FC80B3BF2E07BCFFAD7C0080A98F05BD61B5
:20176F0000400CED248540075307DFD2078002C207BF2002806DBF2B028063BF2D02805970
:20178F00BF42028063BF43028068BF440302195DBF4603021973BF4803021714BF49030210
:2017AF00195DBF4A03021714BF4C028040BF4F03021964BF50030218F2BF5302805CBF54ED
:2017CF0003021714BF5503021969BF580302196EBF5A03021714021977D208021714D20ACE
:2017EF00021714D20B021714D20D021714D20E021714300D0CE57414FE8E748E0187078037
:20180F0011E57424FEFE8E748E018705098706198D078F8212160F021980E57424FDFE8EE6
:20182F00748E01870309870509870619198B678D688E698B828D838EF0C004121BDCAD823A
:20184F00AE83D004BCFF028D0420082AC3ED95765024E576C39DF576AE768E031EEB60144D
:20186F00758220C006C005C00412160FD004D005D00680E68E768C06856782856883856975
:20188F00F0121BF4FCFF602F8E041EC374808CF063F08095F050208F82C006C00512160F20
:2018AF00D005D006AA67AB68AC690ABA00010B8A678B688C6980C1200803021980C3ED9540
:2018CF00764003021980E576C39DF576AE768E041EEC700302197E758220C00612160FD0CF
:2018EF000680EBE57424FDFC8C748C01870209870309870419198A678B688C69AC69BC8059
:20190F000040047F438014BC600040047F50800BBC400040047F4980027F588F82C0071219
:20192F00160F75823A12160F75823012160F75827812160FD007BF4902800BBF5002800604
:20194F0085688212164B85678212164B8023D20C75750A801C757508801775750A80127520
:20196F007510800DD20F80098F8212160F80028E76300F5CE57424FCFE8E748E01870209D9
:20198F0087030987040987061919198A678B688C698E6A7567367568217569808567798510
:2019AF00687A85697B74012579FAE4357AFCAE7B8A678C688E69857982857A83857BF01228
:2019CF001BF4FEFF70030216CC8F8212160F80CCE57570030216CC757781300D2DE574140C
:2019EF00FC8C748C01E7FA3395E0FBFCFE8A678B688C698E6A200C66AA677B007C007E00E8
:201A0F008A678B688C698E6A8054300E21E57424FCFE8E748E01870209870309870409876B
:201A2F00061919198A678B688C698E6A8030E57424FEFE8E748E01870409870619EE3395CB
:201A4F00E0FBFA8C678E688B698A6A200C10AA67AB687C007E008A678B688C698E6A300C6A
:201A6F0022E56A30E71BC3E49567FAE49568FBE49569FCE4956AFE8A678B688C698E6A802B
:201A8F0002C20CD210A9777E00756B00857582C006C001121662D001D00620100BE56BC484
:201AAF00FCE7FB4CF7198002A76B0EB210E56745684569456A70D289778E05E5767003750B
:201ACF007601200924200821ED04FEAC76C3EE9C5015758220C006C005C00412160FD004B6
:201AEF00D005D0061C80E68C76300C0E75822DC00512160FD00515768023ED6020300A0E86
:201B0F0075822BC00512160FD0051576800F300B0C758220C00512160FD0051576200822A5
:201B2F00AE768E041EC3ED9C502B3009047C3080027C208C82C006C00512160FD005D00679
:201B4F0080E0C3ED95765008E576C39DF576800775760080028E76A9778D068E051EED6034
:201B6F0026B21020100A09E7C4540FFD8D6B80078705740F5DF56B856B82C006C0011216B4
:201B8F0032D001D00680D42008030216CCAE768E051EED70030216CC758220C00612160FCD
:131BAF00D00680EB8F8212160F0216CC856C82856D8322AC
:0B2136003C4E4F20464C4F41543E00F1
:1A1BC200E582C583F582A2D133A2D592D11392D5ECCFFCEBCEFBEACDFA22AB
:181BDC00AA82AB83121BF46003A380F8C3E5829AF582E5839BF5832220
:0D005100758181121C36E582600302004EAD
:1C1BF40020F71430F6148883A88220F507E6A88375830022E280F7E49322E02200
:0B1C1000E4AC82FBFAF97486021C2C85
:081C1B007F86121C3CF58222B9
:131C2300FCABF0AA83A982749EC2D1F58212129D02157358
:041C36007582002291
:201C3A007F9E121C6130D103021594C3EF9582500974FFF5F0F583F58222790012125A8924
:071C5A00828A838BF0EC226B
:121C6100AA82AB83A2F73392D1F5826002D2F7ACF02288
:00000001FF
