:0400000002001132B7
:03000B0002037B72
:1E006A00E4F508F509F50A750B07F50C750D01F50EF50FF51075113275120175136457
:0300920002000E5B
:03000E000200F1FC
:2000950075B1677E007F011EBEFF011FEE4F70F7E5B130E7FB75B2882275985075892075B8
:2000B5008DDCD28E438E10438780D29943A4012275FFDE75FFAD1200951200AE43E104437D
:2000D500E34022AF8210990280FB8F992210980280FB8599821200D8859982221200C512CB
:2000F500034C1203641203697582201200D87442C0E0740BC0E07480C0E01204F8158115E2
:20011500811581E51060030203461203C2E5828583F045F070F4D28CE50D24F55003020380
:200135000612039D85820CE50BB50C0280EAE50C60030201EAC2B6D2B5750A00C3E51295B4
:200155000A50030202FBE50F70F21203AAE5828583F045F0601DE4F508F509AE117F00C328
:20017500EE9508EF950950F3050ED2B3C2B4750F0180C91203B6E5828583F045F0601BE475
:20019500F508F509AE117F00C3EE9508EF950950F3750F01C2B3D2B480A21203AAE58285A6
:2001B50083F045F060281203B6E5828583F045F0601CE4F508F509AE117F00C3EE9508EFC5
:2001D500950950F3750F01C2B3D2B4020151C2B3D2B40201517401B50C028003020294C2F1
:2001F500B5D2B6750A00C3E512950A50030202FBE50F70F21203B6E5828583F045F0601D51
:20021500E4F508F509AE117F00C3EE9508EF950950F3050ED2B3C2B4750F0180C91203AAF3
:20023500E5828583F045F0601BE4F508F509AE117F00C3EE9508EF950950F3750F01C2B365
:20025500D2B480A21203AAE5828583F045F060281203B6E5828583F045F0601CE4F508F555
:2002750009AE117F00C3EE9508EF950950F3750F01C2B3D2B40201FBC2B3D2B40201FB7419
:2002950002B50C62C2B6C2B5750A00C3E512950A4054E50F70F51203AAE5828583F045F01D
:2002B500603E1203B6E5828583F045F06032E4F508F509AE117F00C3EE9508EF950950F35F
:2002D500744AC0E0740BC0E07480C0E01204F8158115811581050ED2B3C2B4750F0180AB6A
:2002F500C2B3D2B480A5050D850C0B750F0002012D750A00E50A7004C2B780F8AE0E7F0059
:20031500C006C007746EC0E0740BC0E07480C0E01204F8E58124FBF5817481C0E0740BC029
:20033500E07480C0E01204F8158115811581751001D2B70201182243A7F853A7FCAFB0746D
:20035500034FF5B053A6FEAFA074014FF5A022D2A9D2AF22438E085389F0438901C28C757D
:200375008A00758C0022C0E0C0D00508E4B5080205097451B5080C7401B50907050AE4F51D
:2003950008F509D0D0D0E0321203CE751A03751B00120B082220B0059000018003900000FB
:1903B5002220B10590000180039000002220A005900001800390000022E6
:200B420053746172740D0A000D596F75207072657373656420427574746F6E203020616E33
:200B62006420427574746F6E20310A000D46494E414C20524553554C54533A20257500203B
:0B0B82006F7574206F662031300A0090
:0A008800751401E4F515F516F517DF
:2003CE0085141A85151B85161C85171D904E6D75F0C67441120419AC82AD83AEF0FF743935
:2003EE002CF51474303DF515E43EF516E43FF517AC16AD178C82747F5DF58322AE82AF8393
:0B040E008E148F157516007517002264
:06004000E478FFF6D8FD94
:20001E007900E94400601B7A00900B98780175AF00E493F2A308B8000205AFD9F4DAF275C7
:02003E00AFFF12
:20041900AAF0FBE582851AF0A4FCADF0E583851AF0A42DFDE435F0FEE582851BF0A42DFD6A
:20043900E5F03EFEE433FFEA851AF0A42EFEE5F03FFFE583851BF0A42EFEE5F03FFFE582DE
:20045900851CF0A42EFEE5F03FFFEB851AF0A42FFFEA851BF0A42FFFE583851CF0A42FFFAC
:0E047900E582851DF0A42F8EF08D838C8222EB
:20048700E51A451B60467A01E51A25E0F51AE51B334012F51BE582951AE583951B40030AB2
:2004A70080E6C3E51B13F51BE51A13F51AC3E582951AF5F0E583951B4005F58385F082C37B
:0D04C700E51B13F51BE51A13F51ADAE12207
:200046007800E84400600A790175AF00E4F309D8FC7800E84400600C7900900001E4F0A3A9
:04006600D8FCD9FAEF
:2004D400C0198581191200D8D0192285823185833285F033E4F52EF52FF53085183490044C
:2004F400D40205CAC019858119E51924FBFF8F34E4F52EF52FF530E51924FBF886310886C2
:0D051400320886339004D41205CAD0192293
:20052100AF82C024C025C02612052E8007C022C0238F8222158115811581052CE4B52C025C
:20054100052D22AF8274302FFF24C6500A74072FFF3000034307208F82020521E582FFC456
:20056100540FF582C007120544D007740F5FF58202054485821A85271B85281C85291D8502
:200581002A1EAA2B751F20EA2AFAE51E235401FF8A064EFAE51B251BF51BE51C33F51CE5AF
:2005A1001D33F51DE51E33F51EC3EA951A4008EAC3951AFA431B01D51FCD851B27851C28E5
:2005C100851D29851E2A8A2B22858222858323852E24852F25853026E4F52CF52DAD31AE19
:2005E10032AF338D828E838FF0120AECFC74012DF531E43EF5328F33ECFF7003020ACDBF7A
:2006010025028003020AC5C201C202C203C204C205C206C207C2087535007536007CFFAAB0
:2006210031AB32AE338A828B838EF0120AECFFA3AA82AB838A318B328E33BF25078F8212E7
:20064100052180998F3874D025385026E53824C64020BCFF12E53675F00AA4FD2F24D0F505
:200661003670C2D20280BEEC75F00AA42F24D0FC80B3BF2E07BCFFAD7C0080A98F05BD61FB
:2006810000400CED248540075307DFD2008002C200BF2002806DBF2B028063BF2D0280597D
:2006A100BF42028063BF43028068BF440302086FBF4603020885BF4803020626BF4903020C
:2006C100086FBF4A03020626BF4C028040BF4F03020876BF5003020804BF5302805CBF54E7
:2006E10003020626BF550302087BBF5803020880BF5A03020626020889D201020626D203D5
:20070100020626D204020626D206020626D20702062630060CE53414FE8E348E01870780CD
:2007210011E53424FEFE8E348E018705098706198D078F82120521020892E53424FDFE8EA3
:20074100348E01870309870509870619198B278D288E298B828D838EF0C004120AD4AD8252
:20076100AE83D004BCFF028D0420012AC3ED95365024E536C39DF536AE368E031EEB601453
:20078100758220C006C005C004120521D004D005D00680E68E368C06852782852883852973
:2007A100F0120AECFCFF602F8E041EC374808CF063F08095F050208F82C006C00512052137
:2007C100D005D006AA27AB28AC290ABA00010B8A278B288C2980C1200103020892C3ED95C5
:2007E100364003020892E536C39DF536AE368E041EEC7003020890758220C006120521D0CB
:200801000680EBE53424FDFC8C348C01870209870309870419198A278B288C29AC29BC80D7
:200821000040047F438014BC600040047F50800BBC400040047F4980027F588F82C0071218
:20084100052175823A120521758230120521758278120521D007BF4902800BBF50028006FF
:2008610085288212055D85278212055D8023D20575350A801C753508801775350A80127564
:200881003510800DD20880098F8212052180028E3630085CE53424FCFE8E348E01870209E5
:2008A10087030987040987061919198A278B288C298E2A75278D75280B752980852739850E
:2008C100283A85293B74012539FAE4353AFCAE3B8A278C288E29853982853A83853BF01267
:2008E1000AECFEFF70030205DE8F8212052180CCE53570030205DE75374130062DE5341428
:20090100FC8C348C01E7FA3395E0FBFCFE8A278B288C298E2A200566AA277B007C007E006D
:200921008A278B288C298E2A8054300721E53424FCFE8E348E0187020987030987040987F1
:20094100061919198A278B288C298E2A8030E53424FEFE8E348E01870409870619EE33954A
:20096100E0FBFA8C278E288B298A2A200510AA27AB287C007E008A278B288C298E2A3005F7
:2009810022E52A30E71BC3E49527FAE49528FBE49529FCE4952AFE8A278B288C298E2A806A
:2009A10002C205D209A9377E00752B00853582C006C001120574D001D00620090BE52BC497
:2009C100FCE7FB4CF7198002A72B0EB209E52745284529452A70D289378E05E536700375D1
:2009E1003601200224200121ED04FEAC36C3EE9C5015758220C006C005C004120521D00442
:200A0100D005D0061C80E68C3630050E75822DC005120521D00515368023ED602030030E11
:200A210075822BC005120521D0051536800F30040C758220C005120521D005153620012230
:200A4100AE368E041EC3ED9C502B3002047C3080027C208C82C006C005120521D005D006BE
:200A610080E0C3ED95365008E536C39DF536800775360080028E36A9378D068E051EED60B3
:200A810026B20920090A09E7C4540FFD8D2B80078705740F5DF52B852B82C006C001120592
:200AA10044D001D00680D42001030205DEAE368E051EED70030205DE758220C006120521FE
:130AC100D00680EB8F821205210205DE852C82852D832229
:0B0B8D003C4E4F20464C4F41543E00B0
:180AD400AA82AB83120AEC6003A380F8C3E5829AF582E5839BF5832252
:0D001100758141120B3EE582600302000E76
:1C0AEC0020F71430F6148883A88220F507E6A88375830022E280F7E49322E02219
:200B0800C2D5E58330E70DD2D5E4C39582F582E49583F583E51B30E70BE4C3951AF51AE4EF
:160B2800951BF51B12048730D50BE4C39582F582E49583F583227F
:040B3E00758200229A
:00000001FF
