:0400000002001132B7
:03000B000202826C
:12006A00E4F508F509F50A750B07F50CF50DF50EF50F15
:0300860002000E67
:03000E000200E508
:2000890075B1677E007F011EBEFF011FEE4F70F7E5B130E7FB75B2882275985075892075C4
:2000A9008DDCD28E438E10438780D29943A4012275FFDE75FFAD1200891200A243E10443A1
:2000C900E34022AF8210990280FB8F992210980280FB8599821200CC859982221200B912EF
:2000E900025312026B1202707582201200CC7449C0E0740AC0E07480C0E01203FF158115DC
:200109008115811202C9E5828583F045F060177451C0E0740AC0E07480C0E01203FF158116
:200129001581158180DD7460C0E0740AC0E07480C0E01203FF158115811581D28CC008C04B
:20014900097474C0E0740AC0E07480C0E01203FFE58124FBF581E50D24F5500302022112AF
:2001690002A485820CE50BB50C03020201E50C7029C2B6D2B5E50A60030201F9E50F6003D6
:200189000201F974B14402600B050ED2B3C2B4750F0180E1C2B3D2B480DB7401B50C23C21F
:2001A900B5D2B6E50A7049E50F704574BD4402600B050ED2B3C2B4750F0180E7C2B3D2B4D1
:2001C90080E17402B50C29C2B6C2B5E50A7021E50F701D74B14402601174BD4402600B05A2
:2001E9000ED2B3C2B4750F0180E1C2B3D2B480DB050D850C0B750F00AE0E7F00C006C007B7
:200209007482C0E0740AC0E07480C0E01203FFE58124FBF58102015F20B0FDE4F508F50970
:20022900D2B3C2B430B0FDC28CC2B3C2B4C008C0097498C0E0740AC0E07480C0E01203FFA1
:20024900E58124FBF58102010C2243A7F853A7FCAFB074034FF5B053A6FEAFA074014FF5C8
:20026900A022D2A9D2AF22438E085389F0438901C28C758A00758C0022C0E0C0D00508E492
:20028900B5080205097451B5080C7401B50907050AE4F508F509D0D0D0E0321202D57516DC
:2002A90003751700120A0F2220B00590000180039000002220B10590000180039000002222
:0C02C90020A0059000018003900000229E
:200A490053746172740D0A00537769746368206973206F6666210054686973206973206A60
:200A690075737420612074657374004F766572666C6F77733A20257500436F727265637423
:200A890020726573706F6E7365733A202575000D4E756D626572206F66204F766572666C5E
:0A0AA9006F7773203D2025640A00DA
:0A007C00751001E4F511F512F513FB
:2002D500851016851117851218851319904E6D75F0C67441120320AC82AD83AEF0FF743949
:2002F5002CF51074303DF511E43EF512E43FF513AC12AD138C82747F5DF58322AE82AF83A5
:0B0315008E108F11751200751300226E
:06004000E478FFF6D8FD94
:20001E007900E94400601B7A00900ABE780175AF00E493F2A308B8000205AFD9F4DAF275A2
:02003E00AFFF12
:20032000AAF0FBE5828516F0A4FCADF0E5838516F0A42DFDE435F0FEE5828517F0A42DFD70
:20034000E5F03EFEE433FFEA8516F0A42EFEE5F03FFFE5838517F0A42EFEE5F03FFFE582E0
:200360008518F0A42EFEE5F03FFFEB8516F0A42FFFEA8517F0A42FFFE5838518F0A42FFFB6
:0E038000E5828519F0A42F8EF08D838C8222E9
:20038E00E516451760467A01E51625E0F516E517334012F517E5829516E583951740030ACC
:2003AE0080E6C3E51713F517E51613F516C3E5829516F5F0E58395174005F58385F082C38D
:0D03CE00E51713F517E51613F516DAE12211
:200046007800E84400600A790175AF00E4F309D8FC7800E84400600C7900900001E4F0A3A9
:04006600D8FCD9FAEF
:2003DB00C0158581151200CCD0152285823185833285F033E4F52EF52FF530851434900363
:2003FB00DB0204D1C015858115E51524FBFF8F34E4F52EF52FF530E51524FBF886310886BF
:0D041B00320886339003DB1204D1D0152285
:20042800AF82C024C025C0261204358007C022C0238F8222158115811581052CE4B52C0250
:20044800052D22AF8274302FFF24C6500A74072FFF3000034307208F82020428E582FFC44A
:20046800540FF582C00712044BD007740F5FF58202044B8582168527178528188529198500
:200488002A1AAA2B751B20EA2AFAE51A235401FF8A064EFAE5172517F517E51833F518E5C9
:2004A8001933F519E51A33F51AC3EA95164008EAC39516FA431701D51BCD85172785182807
:2004C800851929851A2A8A2B22858222858323852E24852F25853026E4F52CF52DAD31AE1B
:2004E80032AF338D828E838FF01209F3FC74012DF531E43EF5328F33ECFF70030209D4BF68
:20050800250280030209CCC201C202C203C204C205C206C207C2087535007536007CFFAAA4
:2005280031AB32AE338A828B838EF01209F3FFA3AA82AB838A318B328E33BF25078F8212DB
:20054800042880998F3874D025385026E53824C64020BCFF12E53675F00AA4FD2F24D0F5F9
:200568003670C2D20280BEEC75F00AA42F24D0FC80B3BF2E07BCFFAD7C0080A98F05BD61F5
:2005880000400CED248540075307DFD2008002C200BF2002806DBF2B028063BF2D02805977
:2005A800BF42028063BF43028068BF4403020776BF460302078CBF480302052DBF490302F4
:2005C8000776BF4A0302052DBF4C028040BF4F0302077DBF500302070BBF5302805CBF54C9
:2005E8000302052DBF5503020782BF5803020787BF5A0302052D020790D20102052DD203AB
:2006080002052DD20402052DD20602052DD20702052D30060CE53414FE8E348E01870780AF
:2006280011E53424FEFE8E348E018705098706198D078F82120428020799E53424FDFE8E91
:20064800348E01870309870509870619198B278D288E298B828D838EF0C0041209DBAD8246
:20066800AE83D004BCFF028D0420012AC3ED95365024E536C39DF536AE368E031EEB60144D
:20068800758220C006C005C004120428D004D005D00680E68E368C06852782852883852967
:2006A800F01209F3FCFF602F8E041EC374808CF063F08095F050208F82C006C00512042825
:2006C800D005D006AA27AB28AC290ABA00010B8A278B288C2980C1200103020799C3ED95B9
:2006E800364003020799E536C39DF536AE368E041EEC7003020797758220C006120428D0B3
:200708000680EBE53424FDFC8C348C01870209870309870419198A278B288C29AC29BC80D1
:200728000040047F438014BC600040047F50800BBC400040047F4980027F588F82C0071212
:20074800042875823A120428758230120428758278120428D007BF4902800BBF50028006E1
:200768008528821204648527821204648023D20575350A801C753508801775350A80127552
:200788003510800DD20880098F8212042880028E3630085CE53424FCFE8E348E01870209D9
:2007A80087030987040987061919198A278B288C298E2A7527B375280A75298085273985E3
:2007C800283A85293B74012539FAE4353AFCAE3B8A278C288E29853982853A83853BF01261
:2007E80009F3FEFF70030204E58F8212042880CCE53570030204E575374130062DE534140A
:20080800FC8C348C01E7FA3395E0FBFCFE8A278B288C298E2A200566AA277B007C007E0067
:200828008A278B288C298E2A8054300721E53424FCFE8E348E0187020987030987040987EB
:20084800061919198A278B288C298E2A8030E53424FEFE8E348E01870409870619EE339544
:20086800E0FBFA8C278E288B298A2A200510AA27AB287C007E008A278B288C298E2A3005F1
:2008880022E52A30E71BC3E49527FAE49528FBE49529FCE4952AFE8A278B288C298E2A8064
:2008A80002C205D209A9377E00752B00853582C006C00112047BD001D00620090BE52BC48B
:2008C800FCE7FB4CF7198002A72B0EB209E52745284529452A70D289378E05E536700375CB
:2008E8003601200224200121ED04FEAC36C3EE9C5015758220C006C005C004120428D00436
:20090800D005D0061C80E68C3630050E75822DC005120428D00515368023ED602030030E05
:2009280075822BC005120428D0051536800F30040C758220C005120428D00515362001221E
:20094800AE368E041EC3ED9C502B3002047C3080027C208C82C006C005120428D005D006B2
:2009680080E0C3ED95365008E536C39DF536800775360080028E36A9378D068E051EED60AD
:2009880026B20920090A09E7C4540FFD8D2B80078705740F5DF52B852B82C006C00112048D
:2009A8004BD001D00680D42001030204E5AE368E051EED70030204E5758220C006120428DF
:1309C800D00680EB8F821204280204E5852C82852D832217
:0B0AB3003C4E4F20464C4F41543E008B
:1809DB00AA82AB831209F36003A380F8C3E5829AF582E5839BF5832246
:0D001100758141120A45E582600302000E70
:1C09F30020F71430F6148883A88220F507E6A88375830022E280F7E49322E02213
:200A0F00C2D5E58330E70DD2D5E4C39582F582E49583F583E51730E70BE4C39516F516E4F5
:160A2F009517F51712038E30D50BE4C39582F582E49583F583227B
:040A45007582002294
:00000001FF
