:0400000002001132B7
:03000B00020349A4
:15006A00E4F508F509F50A750B07F50C750D01F50EF50FF5108C
:0300890002000E64
:03000E000200E805
:20008C0075B1677E007F011EBEFF011FEE4F70F7E5B130E7FB75B2882275985075892075C1
:2000AC008DDCD28E438E10438780D29943A4012275FFDE75FFAD12008C1200A543E1044398
:2000CC00E34022AF8210990280FB8F992210980280FB8599821200CF859982221200BC12E6
:2000EC00031A1203321203377582201200CF7410C0E0740BC0E07480C0E01204C6158115EE
:20010C00811581E5106003020314120390E5828583F045F070F4D28CE50D24F550030202EE
:20012C00D412036B85820CE50BB50C030202B4AE0C7F00C006C0077418C0E0740BC0E0745B
:20014C0080C0E01204C6E58124FBF581E50C7065C2B6D2B5750A00E50A600302028FE50F7F
:20016C00600302028F7478440360207427C0E0740BC0E07480C0E01204C61581158115813E
:20018C00050ED2B3C2B4750F0180CC748444036009750F01C2B3D2B480BD74784403600F6D
:2001AC00748444036009750F01C2B3D2B480A8C2B3D2B480A27401B50C65C2B5D2B6750AAD
:2001CC0000E50A600302028FE50F600302028F748444036020743EC0E0740BC0E07480C060
:2001EC00E01204C6158115811581050ED2B3C2B4750F0180CC747844036009750F01C2B300
:20020C00D2B480BD74784403600F748444036009750F01C2B3D2B480A8C2B3D2B480A2748C
:20022C0002B50C5FC2B6C2B5750A00E50A7054E50F705074784403602674844403602074CF
:20024C0054C0E0740BC0E07480C0E01204C6158115811581050ED2B3C2B4750F0180CC74FA
:20026C007844036009750F01C2B3D2B480BD748444036009750F01C2B3D2B480AEC2B3D2F0
:20028C00B480A8050DAE0D7F00C006C0077478C0E0740BC0E07480C0E01204C6E58124FBFD
:2002AC00F581850C0B750F00AE0E7F00C006C0077488C0E0740BC0E07480C0E01204C6E5C4
:2002CC008124FBF581020124750A00E50A7004C2B780F8AE0E7F00C006C00774A0C0E07412
:2002EC000BC0E07480C0E01204C6E58124FBF58174B3C0E0740BC0E07480C0E01204C61571
:20030C008115811581751001D2B702010F2243A7F853A7FCAFB074034FF5B053A6FEAFA0F9
:20032C0074014FF5A022D2A9D2AF22438E085389F0438901C28C758A00758C0022C0E0C0D6
:20034C00D00508E4B5080205097451B5080C7401B50907050AE4F508F509D0D0D0E03212B9
:20036C00039C751703751800120AD62220B00590000180039000002220B10590000180031D
:10038C009000002220A00590000180039000002224
:200B100053746172740D0A000D4E756D6265722069732025750A000D596F75207072657346
:200B300073656420427574746F6E20300A000D596F752070757368656420427574746F6EE4
:200B500020310A000D596F75207072657373656420427574746F6E203020616E64204275B4
:200B700074746F6E20310A000D4974206973207475726E2025750A000D436F7272656374F3
:200B900020726573706F6E7365733A2025750A000D46494E414C20524553554C54533A2022
:0F0BB000257500206F7574206F662031300A00A4
:0A007F00751101E4F512F513F514F4
:20039C0085111785121885131985141A904E6D75F0C674411203E7AC82AD83AEF0FF7439B2
:2003BC002CF51174303DF512E43EF513E43FF514AC13AD148C82747F5DF58322AE82AF83D7
:0B03DC008E118F1275130075140022A3
:06004000E478FFF6D8FD94
:20001E007900E94400601B7A00900BCA780175AF00E493F2A308B8000205AFD9F4DAF27595
:02003E00AFFF12
:2003E700AAF0FBE5828517F0A4FCADF0E5838517F0A42DFDE435F0FEE5828518F0A42DFDA6
:20040700E5F03EFEE433FFEA8517F0A42EFEE5F03FFFE5838518F0A42EFEE5F03FFFE58216
:200427008519F0A42EFEE5F03FFFEB8517F0A42FFFEA8518F0A42FFFE5838519F0A42FFFEA
:0E044700E582851AF0A42F8EF08D838C822220
:20045500E517451860467A01E51725E0F517E518334012F518E5829517E583951840030AFC
:2004750080E6C3E51813F518E51713F517C3E5829517F5F0E58395184005F58385F082C3BF
:0D049500E51813F518E51713F517DAE12245
:200046007800E84400600A790175AF00E4F309D8FC7800E84400600C7900900001E4F0A3A9
:04006600D8FCD9FAEF
:2004A200C0168581161200CFD0162285823185833285F033E4F52EF52FF530851534900493
:2004C200A2020598C016858116E51624FBFF8F34E4F52EF52FF530E51624FBF88631088664
:0D04E200320886339004A2120598D016222D
:2004EF00AF82C024C025C0261204FC8007C022C0238F8222158115811581052CE4B52C02C2
:20050F00052D22AF8274302FFF24C6500A74072FFF3000034307208F820204EFE582FFC4BB
:20052F00540FF582C007120512D007740F5FF58202051285821785271885281985291A85A4
:20054F002A1BAA2B751C20EA2AFAE51B235401FF8A064EFAE5182518F518E51933F519E5F9
:20056F001A33F51AE51B33F51BC3EA95174008EAC39517FA431801D51CCD85182785192835
:20058F00851A29851B2A8A2B22858222858323852E24852F25853026E4F52CF52DAD31AE51
:2005AF0032AF338D828E838FF0120ABAFC74012DF531E43EF5328F33ECFF7003020A9BBF10
:2005CF0025028003020A93C201C202C203C204C205C206C207C2087535007536007CFFAA15
:2005EF0031AB32AE338A828B838EF0120ABAFFA3AA82AB838A318B328E33BF25078F82124C
:20060F0004EF80998F3874D025385026E53824C64020BCFF12E53675F00AA4FD2F24D0F56A
:20062F003670C2D20280BEEC75F00AA42F24D0FC80B3BF2E07BCFFAD7C0080A98F05BD612D
:20064F0000400CED248540075307DFD2008002C200BF2002806DBF2B028063BF2D028059AF
:20066F00BF42028063BF43028068BF440302083DBF4603020853BF48030205F4BF490302D5
:20068F00083DBF4A030205F4BF4C028040BF4F03020844BF50030207D2BF5302805CBF54E3
:2006AF00030205F4BF5503020849BF580302084EBF5A030205F4020857D2010205F4D20336
:2006CF000205F4D2040205F4D2060205F4D2070205F430060CE53414FE8E348E01870780CC
:2006EF0011E53424FEFE8E348E018705098706198D078F821204EF020860E53424FDFE8E3B
:20070F00348E01870309870509870619198B278D288E298B828D838EF0C004120AA2AD82B6
:20072F00AE83D004BCFF028D0420012AC3ED95365024E536C39DF536AE368E031EEB601485
:20074F00758220C006C005C0041204EFD004D005D00680E68E368C068527828528838529D8
:20076F00F0120ABAFCFF602F8E041EC374808CF063F08095F050208F82C006C0051204EFCE
:20078F00D005D006AA27AB28AC290ABA00010B8A278B288C2980C1200103020860C3ED9529
:2007AF00364003020860E536C39DF536AE368E041EEC700302085E758220C0061204EFD094
:2007CF000680EBE53424FDFC8C348C01870209870309870419198A278B288C29AC29BC800A
:2007EF000040047F438014BC600040047F50800BBC400040047F4980027F588F82C007124B
:20080F0004EF75823A1204EF7582301204EF7582781204EFD007BF4902800BBF50028006FD
:20082F0085288212052B85278212052B8023D20575350A801C753508801775350A801275FA
:20084F003510800DD20880098F821204EF80028E3630085CE53424FCFE8E348E018702094A
:20086F0087030987040987061919198A278B288C298E2A7527BF75280B752980852739850E
:20088F00283A85293B74012539FAE4353AFCAE3B8A278C288E29853982853A83853BF01299
:2008AF000ABAFEFF70030205AC8F821204EF80CCE53570030205AC75374130062DE5341423
:2008CF00FC8C348C01E7FA3395E0FBFCFE8A278B288C298E2A200566AA277B007C007E00A0
:2008EF008A278B288C298E2A8054300721E53424FCFE8E348E018702098703098704098724
:20090F00061919198A278B288C298E2A8030E53424FEFE8E348E01870409870619EE33957C
:20092F00E0FBFA8C278E288B298A2A200510AA27AB287C007E008A278B288C298E2A300529
:20094F0022E52A30E71BC3E49527FAE49528FBE49529FCE4952AFE8A278B288C298E2A809C
:20096F0002C205D209A9377E00752B00853582C006C001120542D001D00620090BE52BC4FB
:20098F00FCE7FB4CF7198002A72B0EB209E52745284529452A70D289378E05E53670037503
:2009AF003601200224200121ED04FEAC36C3EE9C5015758220C006C005C0041204EFD004A7
:2009CF00D005D0061C80E68C3630050E75822DC0051204EFD00515368023ED602030030E77
:2009EF0075822BC0051204EFD0051536800F30040C758220C0051204EFD0051536200122C9
:200A0F00AE368E041EC3ED9C502B3002047C3080027C208C82C006C0051204EFD005D00623
:200A2F0080E0C3ED95365008E536C39DF536800775360080028E36A9378D068E051EED60E5
:200A4F0026B20920090A09E7C4540FFD8D2B80078705740F5DF52B852B82C006C0011205C4
:200A6F0012D001D00680D42001030205ACAE368E051EED70030205AC758220C0061204EFF9
:130A8F00D00680EB8F821204EF0205AC852C82852D8322C0
:0B0BBF003C4E4F20464C4F41543E007E
:180AA200AA82AB83120ABA6003A380F8C3E5829AF582E5839BF58322B6
:0D001100758141120B0CE582600302000EA8
:1C0ABA0020F71430F6148883A88220F507E6A88375830022E280F7E49322E0224B
:200AD600C2D5E58330E70DD2D5E4C39582F582E49583F583E51830E70BE4C39517F517E42B
:160AF6009518F51812045530D50BE4C39582F582E49583F58322EA
:040B0C0075820022CC
:00000001FF
