:0400000002001132B7
:03000B00020DA93A
:20006A00E4F522F523F524F525F526F527F529F52AF52BF52CF52DF52EF52FF530F531F5D2
:20008A0032F533F534F535F536753707F538753907F53A753B07F53C753D07F53E753F072B
:1600AA00F540754107F542754307F544754507F546754707F54823
:0300CA0002000E23
:03000E00020129C3
:2000CD0075B1677E007F011EBEFF011FEE4F70F7E5B130E7FB75B288227598507589207580
:2000ED008DDCD28E438E10438780D29943A4012275FFDE75FFAD1200CD1200E643E10443D5
:20010D00E34022AF8210990280FB8F992210980280FB859982120110859982221200FD75BE
:20012D008220120110120D2C120D65120D92120D97758220120110D2B1D2B2C2A4C2A5C2E7
:20014D00B4C2B5C284C2857428C0E07416C0E07480C0E0120FA6158115811581120DCBE588
:20016D00828583F045F060F4120DCBE5828583F045F070F4F582120D6F858228740FF535AC
:20018D00C0E0E4C0E07470C0E07416C0E07480C0E0120FA6E58124FBF5817485C0E0741607
:2001AD00C0E07480C0E0120FA6158115811581C2B1748FC0E07416C0E07480C0E0120FA6DA
:2001CD0015811581158190003775F04012051C74A5C0E07416C0E07480C0E0120FA61581DD
:2001ED0015811581E4F529F52AE5292529FEE52A33EE2437F9870609870719C006C0077489
:20020D00BAC0E07416C0E07480C0E0120FA6E58124FBF5810529E4B52902052AC3E5299471
:20022D0003E52A6480948040C074BDC0E07416C0E07480C0E0120FA615811581158174BF5C
:20024D00C0E07416C0E07480C0E0120FA6158115811581750E3D750F007510409000377565
:20026D00F0401207E1AF82BF0303020300C28CE4F522F523F524D28C120DCBE5828583F02B
:20028D0045F070051205A380EFC28C120DCBE5828583F045F070F485243690003D75F040FD
:2002AD00120C25C3E536953540057527068023C3E5369535501CE53675F005A4F58285F093
:2002CD008385350E750F001215ECAE82AF83EE04F527E5272525F52575270075493D754AF9
:2002ED0000754B4085254C90003775F04012084A020260D2B1C2B274D3C0E07416C0E0744B
:20030D0080C0E0120FA615811581158190003775F04012051C74A5C0E07416C0E07480C0F1
:20032D00E0120FA6158115811581E4F529F52AE5292529FEE52A33EE2437F9870609870724
:20034D0019C006C00774BAC0E07416C0E07480C0E0120FA6E58124FBF5810529E4B52902AA
:20036D00052AC3E5299403E52A6480948040C074BDC0E07416C0E07480C0E0120FA61581E6
:20038D001581158174BFC0E07416C0E07480C0E0120FA6158115811581750E3D750F007551
:2003AD00104090003775F0401207E1AF82BF0303020446C28CE4F522F523F524D28C120D41
:2003CD00CBE5828583F045F070051205A380EFC28C120DCBE5828583F045F070F485243604
:2003ED0090003D75F040120C25C3E536953540057527068023C3E5369535501CE53675F075
:20040D0005A4F58285F08385350E750F001215ECAE82AF83EE04F527E5272526F5267527DA
:20042D0000754D3D754E00754F4085265090003775F040120A030203A6AE257F00C006C0E0
:20044D000774E8C0E07416C0E07480C0E0120FA6E58124FBF581AE267F00C006C00774FCBC
:20046D00C0E07416C0E07480C0E0120FA6E58124FBF58174BDC0E07416C0E07480C0E012AE
:20048D000FA6158115811581C28CE4F522F523F524D28C74FF252450FAC28CC3E525952624
:2004AD0050177410C0E07417C0E07480C0E0120FA61581158115818038C3E52695255017B5
:2004CD007424C0E07417C0E07480C0E0120FA6158115811581801AE526B525157438C0E0AF
:2004ED007417C0E07480C0E0120FA6158115811581120DCBE5828583F045F060F4120DCBEB
:20050D00E5828583F045F0700302014480EF22AD82AE83AFF0C007C006C005120D85AC82CC
:20052D00D005D006D0077B008D828E838FF0EC120E83A3EB120E8374022DFAE43EFB8F0405
:20054D00C007C006C005C004C003C002120D85A982D002D003D004D005D006890079008A74
:20056D00828B838CF0E8120E83A3E9120E8374042DFDE43EFEC006C005120D85AC82D005B4
:20058D00D006D0077B008D828E838FF0EC120E83A3EB120E8322120DE3E5828583F045F00F
:2005AD007006C2A4C2A5803A120DD7E5828583F045F07012120DE3E5828583F045F0600629
:2005CD00C2A4D2A5801C120DD7E5828583F045F06010120DE3E5828583F045F06004D2A42B
:2005ED00C2A5120DFBE5828583F045F07006C2B4C2B5803A120DEFE5828583F045F0701298
:20060D00120DFBE5828583F045F06006C2B4D2B5801C120DEFE5828583F045F06010120DEF
:20062D00FBE5828583F045F06004D2B4C2B5120E13E5828583F045F07006C284C285803A39
:20064D00120E07E5828583F045F07012120E13E5828583F045F06006C284D285801C120ECA
:20066D0007E5828583F045F06010120E13E5828583F045F06004D284C28522AD82AE83AF69
:20068D00F0752B00752C00752D00752E00752F00E4F530F533F529F52AE5292529FBE52A5F
:2006AD0033FCEB2DFBEC3EFC8F028B828C838AF012159AFBA312159AFC4B7004052B8052C1
:2006CD00E5292529FBE52A33FCEB2DFBEC3EFC8F028B828C838AF012159AFBA312159AFCFC
:2006ED00BB0107BC0004052C8028E5292529FBE52A33FCEB2DFBEC3EFC8F028B828C838A8C
:20070D00F012159AFBA312159AFCBB0205BC0002052DE5292529FBE52A33FCEB250EFBEC74
:20072D00350FFCAA108B828C838AF012159AFBA312159AFC4B7004052E8056E5292529FBE1
:20074D00E52A33FCEB250EFBEC350FFCAA108B828C838AF012159AFBA312159AFCBB0107DA
:20076D00BC0004052F802AE5292529FBE52A33FCEB250EFBEC350FFCAA108B828C838AF0A4
:20078D0012159AFBA312159AFCBB0205BC000205300529E4B52902052AC3E5299403E52AE3
:2007AD006480948050030206A6C3E52E952B4006E52B2533F533C3E52F952C4006E52C25B3
:2007CD0033F533C3E530952D4006E52D2533F53385338222AD82AE83AFF0E4F534F529F5C4
:2007ED002AE5292529FBE52A33FCEB2DF8EC3EF98F02888289838AF012159AF8A312159ABC
:20080D00F9EB250EFBEC350FFCAA108B828C838AF012159AFBA312159AFCE8B50306E9B5DD
:20082D00040205340529E4B52902052AC3E5299403E52A6480948040A885348222AD82AEBA
:20084D0083AFF0E4F529F52AC007C006C005745BC0E07417C0E07480C0E0120FA615811556
:20086D00811581D005D006D007E4F529F52AE5292529FBE52A33FCEB2549FBEC354AFCAAB7
:20088D004B8B828C838AF012159AFBA312159AFCC007C006C005C003C00474BAC0E074161D
:2008AD00C0E07480C0E0120FA6E58124FBF581D005D006D0070529E4B52902052AC3E529C1
:2008CD009403E52A6480948040A485490E854A0F854B108D828E838FF0C007C006C00512EC
:2008ED000688E582FC3395E0FBC004C003745DC0E07417C0E07480C0E0120FA6E58124FB54
:20090D00F581D005D006D00785490E854A0F854B108D828E838FF0C007C006C0051207E14D
:20092D00E582FC3395E0FBC004C003745DC0E07417C0E07480C0E0120FA6E58124FBF5812B
:20094D00AB4C7C00C003C004745DC0E07417C0E07480C0E0120FA6E58124FBF581D005D0F9
:20096D0006D00785490E854A0F854B108D828E838FF0C007C006C005120688E582D005D056
:20098D0006D007700FC007C006C005120BB7D005D006D00785490E854A0F854B108D828E0F
:2009AD00838FF01207E1AF82BF03357461C0E07417C0E07480C0E0120FA615811581158149
:2009CD00AE4C7F00C006C007746CC0E07417C0E07480C0E0120FA6E58124FBF581120BCF17
:2009ED0074BDC0E07416C0E07480C0E0120FA615811581158122AD82AE83AFF0C007C00624
:200A0D00C005745BC0E07417C0E07480C0E0120FA6158115811581D005D006D007E4F529C9
:200A2D00F52AE5292529FBE52A33FCEB254DFBEC354EFCAA4F8B828C838AF012159AFBA344
:200A4D0012159AFCC007C006C005C003C00474BAC0E07416C0E07480C0E0120FA6E5812416
:200A6D00FBF581D005D006D0070529E4B52902052AC3E5299403E52A6480948040A4854D30
:200A8D000E854E0F854F108D828E838FF0C007C006C005120688E582FC3395E0FBC004C05A
:200AAD0003745DC0E07417C0E07480C0E0120FA6E58124FBF581D005D006D007854D0E854D
:200ACD004E0F854F108D828E838FF0C007C006C0051207E1E582FC3395E0FBC004C00374DC
:200AED005DC0E07417C0E07480C0E0120FA6E58124FBF581AB507C00C003C004745DC0E0FC
:200B0D007417C0E07480C0E0120FA6E58124FBF581D005D006D007854D0E854E0F854F101F
:200B2D008D828E838FF0C007C006C005120688E582D005D006D007700FC007C006C005124B
:200B4D000BB7D005D006D007854D0E854E0F854F108D828E838FF01207E1AF82BF03357469
:200B6D0061C0E07417C0E07480C0E0120FA6158115811581AE507F00C006C007747FC0E082
:200B8D007417C0E07480C0E0120FA6E58124FBF581120BCF74BDC0E07416C0E07480C0E04C
:200BAD00120FA615811581158122C28CE4F522F523F524D28CE52424FA4004C28780F6D2A9
:200BCD008722E4F522F523F5247531A8F532F529F52AC28CE4F522F523D28CC37464952270
:200BED00E495234004C28780F2C28CE4F522F523D28CC374329522E495234004D28780F2C3
:200C0D000529E4B52902052AC3E5299405E52A6480948040BDD28722AD82AE83AFF020A4FA
:200C2D001320A5108D828E838FF0E4120E83A3120E83802E20A41530A5128D828E838FF046
:200C4D007401120E83A3E4120E83801630A41320A5108D828E838FF07402120E83A3E412A2
:200C6D000E8320B41C20B51974022DFAE43EFB8F048A828B838CF0E4120E83A3120E8380C8
:200C8D004020B41E30B51B74022DFAE43EFB8F048A828B838CF07401120E83A3E4120E83F0
:200CAD00801F30B41C20B51974022DFAE43EFB8F048A828B838CF07402120E83A3E4120EF7
:200CCD008320841C20851974042DFAE43EFB8F048A828B838CF0E4120E83A3120E83803E96
:200CED0020841E30851B74042DFAE43EFB8F048A828B838CF07401120E83A3E4120E8380AE
:200D0D001D30841A20851774042DFDE43EFE8D828E838FF07402120E83A3E4120E8322AFAA
:200D2D00BD74FE5FF5BDAFA574FE5FF5A543900143A4B053A4F3AF80740C4FF58043A610E6
:200D4D0053A613AFA074EC4FF5A043A73653A7FEAFB074014FF5B02275D10375AA8043AB0F
:200D6D0001228582ACAFAA74DF5FF5AA43AA10E5AA30E5FB859C8222120E38750E03750F23
:200D8D00001215B622D2A9D2AF22438E085389F0438901C28C758A00758C0022C0E0C0D017
:200DAD000522E4B5220205237451B5220C7401B523070524E4F522F523D0D0D0E03220B090
:200DCD000590000180039000002220A30590000180039000002220A2059000018003900042
:200DED00002220A70590000180039000002220A60590000180039000002220830590000168
:200E0D0080039000002220820590000180039000002220B0157492C0E07417C0E07480C0B9
:0B0E2D00E0120FA6158115811581222F
:201628000D5365742074686520737065656420706F7420616E642070726573732074686563
:201648002070757368627574746F6E20746F20626567696E204C49544543204D6173746533
:20166800726D696E642E0A000D5374617274696E6720506572696F643A2025750020736548
:20168800636F6E64730A000A0D416D62657220506C61796572205475726E0A0A000D436FFA
:2016A800727265637420416E73776572202D2D2D20002564000A000D09436F6C6F720953A7
:2016C800706F740953636F72650A000A0D477265656E20506C61796572205475726E0A0038
:2016E8000A0D416D62657220506F696E7473203D202575002C20477265656E20506F696E3D
:201708007473203D202575000D0957696E6E657220697320416D626572210A000D09576936
:201728006E6E657220697320477265656E210A000D09497427732061207469652E20464989
:2017480047485420544F20544845204445415448210A000D000925750009284D617463685B
:2017680021290A00416D62657220506F696E7473203D2025750A00477265656E20506F692F
:201788006E7473203D2025750A000D596F7520707573686564207468652073746172742009
:0917A800627574746F6E2E0A0064
:0A00C000750801E4F509F50AF50BD7
:200E380085080E85090F850A10850B11904E6D75F0C67441120E9EAC82AD83AEF0FF743991
:200E58002CF50874303DF509E43EF50AE43FF50BAC0AAD0B8C82747F5DF58322AE82AF8366
:0B0E78008E088F09750A00750B002220
:06004000E478FFF6D8FD94
:20001E007900E94400601B7A009017BC780175AF00E493F2A308B8000205AFD9F4DAF27597
:02003E00AFFF12
:1B0E830020F71130F6138883A88220F509F6A8837583002280FEF280F5F0226E
:200E9E00AAF0FBE582850EF0A4FCADF0E583850EF0A42DFDE435F0FEE582850FF0A42DFDFF
:200EBE00E5F03EFEE433FFEA850EF0A42EFEE5F03FFFE583850FF0A42EFEE5F03FFFE58267
:200EDE008510F0A42EFEE5F03FFFEB850EF0A42FFFEA850FF0A42FFFE5838510F0A42FFF4D
:0E0EFE00E5828511F0A42F8EF08D838C822268
:200F0C00E50E450F60467A01E50E25E0F50EE50F334012F50FE582950EE583950F40030A82
:200F2C0080E6C3E50F13F50FE50E13F50EC3E582950EF5F0E583950F4005F58385F082C333
:0D0F4C00E50F13F50FE50E13F50EDAE122A7
:200046007800E84400600A790175AF00E4F309D8FC7800E84400600C7900900001E4F0A3A9
:04006600D8FCD9FAEF
:200F59007A10E4FBFCE58225E0F582E58333F583EB33FBEC33FCEB950EF5F0EC950F4006A0
:090F7900FCABF0438201DADD2239
:200F8200C00D85810D120110D00D2285826085836185F062E4F55DF55EF55F850C63900F36
:200FA20082021078C00D85810DE50D24FBFF8F63E4F55DF55EF55FE50D24FBF886600886E7
:0D0FC20061088662900F82121078D00D2217
:200FCF00AF82C053C054C055120FDC8007C051C0528F8222158115811581055BE4B55B02A3
:200FEF00055C22AF8274302FFF24C6500A74072FFF3000034307208F82020FCFE582FFC4B7
:20100F00540FF582C007120FF2D007740F5FF582020FF285820E85560F855710855811857C
:20102F005912AA5A751320EA2AFAE512235401FF8A064EFAE50F250FF50FE51033F510E5F8
:20104F001133F511E51233F512C3EA950E4008EAC3950EFA430F01D513CD850F5685105746
:20106F008511588512598A5A22858251858352855D53855E54855F55E4F55BF55CAD60AEE6
:20108F0061AF628D828E838FF012159AFC74012DF560E43EF5618F62ECFF700302157BBF64
:2010AF0025028003021573C201C202C203C204C205C206C207C2087564007565007CFFAAE1
:2010CF0060AB61AE628A828B838EF012159AFFA3AA82AB838A608B618E62BF25078F82125C
:2010EF000FCF80998F6774D025675026E56724C64020BCFF12E56575F00AA4FD2F24D0F5D9
:20110F006570C2D20280BEEC75F00AA42F24D0FC80B3BF2E07BCFFAD7C0080A98F05BD6113
:20112F0000400CED248540075307DFD2008002C200BF2002806DBF2B028063BF2D028059C4
:20114F00BF42028063BF43028068BF440302131DBF4603021333BF48030210D4BF49030229
:20116F00131DBF4A030210D4BF4C028040BF4F03021324BF50030212B2BF5302805CBF544C
:20118F00030210D4BF5503021329BF580302132EBF5A030210D4021337D2010210D4D203C9
:2011AF000210D4D2040210D4D2060210D4D2070210D430060CE56314FE8E638E01870780D7
:2011CF0011E56324FEFE8E638E018705098706198D078F82120FCF021340E56324FDFE8EED
:2011EF00638E01870309870509870619198B568D578E588B828D838EF0C004121582AD8225
:20120F00AE83D004BCFF028D0420012AC3ED95655024E565C39DF565AE658E031EEB6014DE
:20122F00758220C006C005C004120FCFD004D005D00680E68E658C06855682855783855846
:20124F00F012159AFCFF602F8E041EC374808CF063F08095F050208F82C006C005120FCF0D
:20126F00D005D006AA56AB57AC580ABA00010B8A568B578C5880C1200103021340C3ED9539
:20128F00654003021340E565C39DF565AE658E041EEC700302133E758220C006120FCFD02C
:2012AF000680EBE56324FDFC8C638C01870209870309870419198A568B578C58AC58BC8005
:2012CF000040047F438014BC600040047F50800BBC400040047F4980027F588F82C0071260
:2012EF000FCF75823A120FCF758230120FCF758278120FCFD007BF4902800BBF5002800667
:20130F0085578212100B85568212100B8023D20575640A801C756408801775640A8012754E
:20132F006410800DD20880098F82120FCF80028E6530085CE56324FCFE8E638E01870209B8
:20134F0087030987040987061919198A568B578C588E597556B1755717755880855668857E
:20136F00576985586A74012568FAE43569FCAE6A8A568C578E58856882856983856AF0124B
:20138F00159AFEFF700302108C8F82120FCF80CCE564700302108C75661930062DE5631427
:2013AF00FC8C638C01E7FA3395E0FBFCFE8A568B578C588E59200566AA567B007C007E009B
:2013CF008A568B578C588E598054300721E56324FCFE8E638E01870209870309870409871F
:2013EF00061919198A568B578C588E598030E56324FEFE8E638E01870409870619EE339578
:20140F00E0FBFA8C568E578B588A59200510AA56AB577C007E008A568B578C588E59300568
:20142F0022E55930E71BC3E49556FAE49557FBE49558FCE49559FE8A568B578C588E59800A
:20144F0002C205D209A9667E00755A00856482C006C001121022D001D00620090BE55AC469
:20146F00FCE7FB4CF7198002A75A0EB209E55645574558455970D289668E05E565700375CF
:20148F006501200224200121ED04FEAC65C3EE9C5015758220C006C005C004120FCFD00473
:2014AF00D005D0061C80E68C6530050E75822DC005120FCFD00515658023ED602030030E43
:2014CF0075822BC005120FCFD0051565800F30040C758220C005120FCFD0051565200122AA
:2014EF00AE658E041EC3ED9C502B3002047C3080027C208C82C006C005120FCFD005D0061F
:20150F0080E0C3ED95655008E565C39DF565800775650080028E65A9668D068E051EED60E0
:20152F0026B20920090A09E7C4540FFD8D5A80078705740F5DF55A855A82C006C001120F42
:20154F00F2D001D00680D420010302108CAE658E051EED700302108C758220C006120FCF3E
:13156F00D00680EB8F82120FCF02108C855B82855C8322A1
:0B17B1003C4E4F20464C4F41543E0080
:18158200AA82AB8312159A6003A380F8C3E5829AF582E5839BF58322E0
:0D00110075816A121624E582600302000E5C
:1C159A0020F71430F6148883A88220F507E6A88375830022E280F7E49322E02260
:2015B600C2D5E58330E70DD2D5E4C39582F582E49583F583E50F30E70BE4C3950EF50EE45B
:1615D600950FF50F120F0C30D50BE4C39582F582E49583F583224F
:2015EC00C2D5E58330E70DD2D5E4C39582F582E49583F583E50F30E70DB2D5E4C3950EF58E
:18160C000EE4950FF50F120F5930D50BE4C39582F582E49583F58322D7
:0416240075820022A9
:00000001FF
