:040000000200513277
:01000B0032C2
:0100130032BA
:01001B0032B2
:0100230032AA
:01002B0032A2
:01003300329A
:01003B003292
:01004300328A
:03004B0002023D71
:2000AA00750800750970750AC8750B0A750CEE750D07750EAC750F0DE4F510F511F512024A
:0200CA00004EE6
:03004E0002012884
:2000CC0075B1677E007F011EBEFF011FEE4F70F7E5B130E7FB75B288227598507589207581
:2000EC008DDCD28E438E10438780D29943A4012275FFDE75FFAD1200CC1200E543E10443D8
:20010C00E34022AF8210990280FB8F992210980280FB85998212010F859982221200FC75C1
:20012C00822012010F12022612022A12022E7496C0E07408C0E07480C0E01202821581159A
:20014C00811581850A10850B11AC10AD11E4FEFF74FFC39CFC74FF9DFDE49EE49F8CEC8DFC
:20016C00FC74BDC0E07408C0E07480C0E0120282158115811581E51224CE50FA74D9C0E07E
:20018C007408C0E07480C0E01202821581158115811201A380FB22120119AF82BF6618C39B
:2001AC00E510950EE511950F5027740A2510F510E43511F511801ABF7317C3E50C9510E581
:2001CC000D9511500CE51024F6F510E51134FFF511C3E50E9510E50F95115006850E10854E
:2001EC000F11C3E510950CE511950D5006850C10850D11C010C01174F2C0E07408C0E07411
:20020C0080C0E0120282E58124FBF58174FFC39510F5EC74FF9511F5FC2243A5042275E1D5
:20022C00272275DCC275D84075D981D2AF43E60822C0E0C0D030DF128508E98509F9C2DF37
:12024C00E51224CD40070512800353D8C0D0D0D0E0326A
:20089600456D62656464656420436F6E74726F6C204472697665204D6F746F7220436F6EAC
:2008B60074726F6C0D0A000D57616974206F6E65207365636F6E6420746F20737461727459
:2008D6002E0A000D4F6E65207365636F6E6420686173207061737365642E0A000D505720F7
:0708F60069732025750A005B
:06008000E478FFF6D8FD54
:20005E007900E94400601B7A00900908780175AF00E493F2A308B8000205AFD9F4DAF27519
:02007E00AFFFD2
:200086007800E84400600A790175AF00E4F309D8FC7800E84400600C7900900001E4F0A369
:0400A600D8FCD9FAAF
:20025E00C01485811412010FD0142285823185833285F033E4F52EF52FF5308513349002A2
:20027E005E020354C014858114E51424FBFF8F34E4F52EF52FF530E51424FBF8863108863C
:0D029E003208863390025E120354D0142201
:2002AB00AF82C024C025C0261202B88007C022C0238F8222158115811581052CE4B52C024E
:2002CB00052D22AF8274302FFF24C6500A74072FFF3000034307208F820202ABE582FFC448
:2002EB00540FF582C0071202CED007740F5FF5820202CE8582158527168528178529188581
:20030B002A19AA2B751A20EA2AFAE519235401FF8A064EFAE5162516F516E51733F517E54F
:20032B001833F518E51933F519C3EA95154008EAC39515FA431601D51ACD8516278517288F
:20034B0085182985192A8A2B22858222858323852E24852F25853026E4F52CF52DAD31AE9B
:20036B0032AF338D828E838FF0120876FC74012DF531E43EF5328F33ECFF7003020857BFE2
:20038B002502800302084FC201C202C203C204C205C206C207C2087535007536007CFFAAA1
:2003AB0031AB32AE338A828B838EF0120876FFA3AA82AB838A318B328E33BF25078F8212D8
:2003CB0002AB80998F3874D025385026E53824C64020BCFF12E53675F00AA4FD2F24D0F5F7
:2003EB003670C2D20280BEEC75F00AA42F24D0FC80B3BF2E07BCFFAD7C0080A98F05BD6174
:20040B0000400CED248540075307DFD2008002C200BF2002806DBF2B028063BF2D028059F5
:20042B00BF42028063BF43028068BF44030205F9BF460302060FBF48030203B0BF490302EE
:20044B0005F9BF4A030203B0BF4C028040BF4F03020600BF500302058EBF5302805CBF5442
:20046B00030203B0BF5503020605BF580302060ABF5A030203B0020613D2010203B0D20320
:20048B000203B0D2040203B0D2060203B0D2070203B030060CE53414FE8E348E018707802A
:2004AB0011E53424FEFE8E348E018705098706198D078F821202AB02061CE53424FDFE8E0D
:2004CB00348E01870309870509870619198B278D288E298B828D838EF0C00412085EAD8243
:2004EB00AE83D004BCFF028D0420012AC3ED95365024E536C39DF536AE368E031EEB6014CC
:20050B00758220C006C005C0041202ABD004D005D00680E68E368C06852782852883852964
:20052B00F0120876FCFF602F8E041EC374808CF063F08095F050208F82C006C0051202ABA0
:20054B00D005D006AA27AB28AC290ABA00010B8A278B288C2980C120010302061CC3ED95B5
:20056B0036400302061CE536C39DF536AE368E041EEC700302061A758220C0061202ABD0AC
:20058B000680EBE53424FDFC8C348C01870209870309870419198A278B288C29AC29BC8050
:2005AB000040047F438014BC600040047F50800BBC400040047F4980027F588F82C0071291
:2005CB0002AB75823A1202AB7582301202AB7582781202ABD007BF4902800BBF500280065C
:2005EB008528821202E78527821202E78023D20575350A801C753508801775350A801275CF
:20060B003510800DD20880098F821202AB80028E3630085CE53424FCFE8E348E01870209D6
:20062B0087030987040987061919198A278B288C298E2A7527FD7528087529808527398519
:20064B00283A85293B74012539FAE4353AFCAE3B8A278C288E29853982853A83853BF012DF
:20066B000876FEFF70030203688F821202AB80CCE535700302036875374130062DE5341481
:20068B00FC8C348C01E7FA3395E0FBFCFE8A278B288C298E2A200566AA277B007C007E00E6
:2006AB008A278B288C298E2A8054300721E53424FCFE8E348E01870209870309870409876A
:2006CB00061919198A278B288C298E2A8030E53424FEFE8E348E01870409870619EE3395C3
:2006EB00E0FBFA8C278E288B298A2A200510AA27AB287C007E008A278B288C298E2A300570
:20070B0022E52A30E71BC3E49527FAE49528FBE49529FCE4952AFE8A278B288C298E2A80E2
:20072B0002C205D209A9377E00752B00853582C006C0011202FED001D00620090BE52BC488
:20074B00FCE7FB4CF7198002A72B0EB209E52745284529452A70D289378E05E53670037549
:20076B003601200224200121ED04FEAC36C3EE9C5015758220C006C005C0041202ABD00433
:20078B00D005D0061C80E68C3630050E75822DC0051202ABD00515368023ED602030030E03
:2007AB0075822BC0051202ABD0051536800F30040C758220C0051202ABD00515362001229B
:2007CB00AE368E041EC3ED9C502B3002047C3080027C208C82C006C0051202ABD005D006B0
:2007EB0080E0C3ED95365008E536C39DF536800775360080028E36A9378D068E051EED602C
:20080B0026B20920090A09E7C4540FFD8D2B80078705740F5DF52B852B82C006C00112020D
:20082B00CED001D00680D4200103020368AE368E051EED7003020368758220C0061202AB55
:13084B00D00680EB8F821202AB020368852C82852D832292
:0B08FD003C4E4F20464C4F41543E0043
:18085E00AA82AB831208766003A380F8C3E5829AF582E5839BF5832242
:0D005100758141120892E582600302004EA5
:1C08760020F71430F6148883A88220F507E6A88375830022E280F7E49322E02291
:040892007582002249
:00000001FF
