:040000000200513277
:01000B0032C2
:0100130032BA
:01001B0032B2
:0100230032AA
:01002B0032A2
:01003300329A
:01003B003292
:01004300328A
:03004B0002063575
:2000AA007532007533707534C875350A7536EE7537077538AC75390DE4F53AF53BF53CF589
:0F00CA003DF53EF53F75402DF543F54402004EE0
:03004E000205AFF9
:2000D90075B1677E007F011EBEFF011FEE4F70F7E5B130E7FB75B288227598507589207574
:2000F9008DDCD28E438E10438780D29943A4012275FFDE75FFAD1200D91200F243E10443B1
:20011900E34022AF8210990280FB8F992210980280FB85998212011C85998222C00F858155
:200139000FE50F24FBF886820886830886F0120EE1E5828583F045F070028062E50F24FBF9
:20015900FF8F0BE50F24FBF8860808860908860A90000175F00012085690000175F00012B7
:200179000EE1AE827F00C3EF9E501FEF2401F582E43400F583E0FDBD0A0DEF2401F582E4CE
:200199003400F583740DF00F80DC752801752900752A007527008E2B7582C612044BD00F91
:2001B9002275220074C025224017752D22752E00752F40752C007530017582C61204C180F5
:2001D900E375230C752823752900752A40752700752B017582C612044B22752D25752E005B
:2001F900752F40752C017530027582C61204C174FFB52505758200805F7F008F068EF00566
:20021900F07C017D008006EC2CFCED33FDD5F0F7AA257B00EA5204EB5205EC4D6007743157
:200239002FF58280330E8E07BE080040D0E52630E0057582398021E52630E10575822A8020
:2002590017E52630E205758230800DE52630E30575822380037582FF22AF82E4FDFEEF7051
:200279001DC006C0057419C0E0740FC0E07480C0E0120135158115811581D005D006C0065E
:20029900C0057408C0E0E4C0E07408C0E0E4C0E07408C0E0E4C0E07408C0E0E4C0E0740884
:2002B900C0E0E4C0E0742FC0E0740FC0E07480C0E0120135E58124F3F58190A12075F0070F
:2002D900E41203E6D005D0067F00C007C006C0051201F3AC82D005D006D0078C03BCFF02A8
:2002F9008003BB2A17902710E4F5F0C007C006C0051203E6D005D006D00780CEBB232AC0F1
:2003190006C0051201F3AC82D005D006BC2313902710E4F5F0C006C0051203E6D005D00667
:2003390080DD8D828E830203E5EBFA3395E0FCC007C006C005C004C003C002C002C004741F
:200359003FC0E0740FC0E07480C0E0120135E58124FBF581D002D003D004D005D0068D11E9
:200379008E1290000AC004C003C0021207C9A882A983D002D003D004D007EA28F8EC39F931
:20039900E824D0FDE934FFFEC007C006C005C0031201F3AC82D003D005D006D007ECB5030F
:2003B9001B902710E4F5F0C007C006C005C0031203E6D003D005D006D00780CC0FC3EF64A3
:2003D90080948550030202E38D828E8322AC82AD83AEF0FF780079007A007B00C3E89CE9DE
:2003F9009DEA9EEB9F500F08B8000909B900050ABA00E90B80E62220C7FDD2C530C3FDC2D9
:20041900C5C2C3228582C210C30280FB228582C2D2C410C30280FB2230C3FD85C282C2C30D
:200439002230C3FDAFC2C2C3D2C410C30280FB8F8222AF82C007120410D00774FE5FF58245
:2004590012041D85278212041D7F00AD2B7E001DBDFF011E8F037C00C3EB9DEC64808EF07B
:2004790063F08095F0501FEF2528FCE43529FDAE2A8C828D838EF0120EF9F582C007120444
:200499001DD0070F80C5AE2B7F001EBEFF011FEE2528FEEF3529FFAD2A8E828F838DF0129B
:2004B9000EF9F58212042622AF82C007120410D0078F0674FE5EF582C00712041D852C8249
:2004D900120426120410D00774014FF58212041D7F00AD307E001DBDFF011E8F037C00C3B9
:2004F900EB9DEC64808EF063F08095F0502ED2C2EF252DFCE4352EFDAE2FC007C006C005F3
:20051900C004120431AB82D004D005D006D0078C828D838EF0EB1207AE0F80B6C2C2AE303F
:200539007F001EBEFF011FEE252DFEEF352EFFAD2FC007C006C00512043AAC82D005D00642
:20055900D0078E828F838DF0EC1207AE22753123752831752900752A40752720752B017551
:20057900823012044B753100752831752900752A40752721752B0175823012044B753100D2
:20059900752831752900752A40752722752B0175823012044B2212010975822012011C127A
:2005B900060E12061C1206261206207442C0E0740FC0E07480C0E012090515811581158175
:2005D90085343A85353BAC3AAD3BE4FEFF74FFC39CFC74FF9DFDE49EFEE49FFF8CEA8DFA91
:2005F90075412D75420074FF254450FA20B6F71206BD80F82243A50453A7BFAFB074404FDF
:20061900F5B02275E1272275CF93D2C62275DCC275D84075D981D2AF43E60822C0E0C0D057
:2006390030DF31053F74FC253F5006753E01753F000543E54324FA50037543008532E985CD
:2006590033F9C2DF74FF2544400D74FC254350070544800353D8C0D0D0D0E032752D4575C7
:200679002E00752F40752C027530027582E01204C1AF457E00AC467D00EC4206ED42077597
:200699004551752845752900752A40752700752B017582E0C007C00612044BD006D0078E0F
:2006B900828F8322E53E604474FB2543503E120675858241858342753E00C041C042746A8C
:2006D900C0E0740FC0E07480C0E0120905E58124FBF581C03AC03B747FC0E0740FC0E07470
:2006F90080C0E0120905E58124FBF58185418285428312074485823A85833BC3E538953A84
:20071900E539953B500685383A85393BC3E53A9536E53B9537500685363A85373B74FFC37B
:20073900953AF5EC74FF953BF5FC22AE82AF83AC407D00ECC39EFEED9FFF8E118F12900029
:2007590014C007C0061207C9AC82AD83D006D007EC2534FCED3535FDC3EC9536ED953750DA
:2007790004AC36AD37C3E5389CE5399D5004AC38AD39C374FB9E747F8FF063F08095F05057
:150799000FC3EE9405EF648094805004AC34AD358C828D8322B5
:200F19000A54797065206469676974733B20656E6420772F23002020202020256325632518
:200F39006325632563002563000D456D62656464656420436F6E74726F6C20537465657262
:200F5900696E672043616C6962726174696F6E0A000D5468652072616E676520697320250C
:110F79007520636D0A000D50572069732025750A0084
:06008000E478FFF6D8FD54
:20005E007900E94400601B7A00900F95785175AF00E493F2A308B8000205AFD9F4DAF27536
:02007E00AFFFD2
:1B07AE0020F71130F6138883A88220F509F6A8837583002280FEF280F5F0224A
:1D07C900E5828511F0A4C582C0F08512F0A4D0F025F0C5838511F0A42583F58322D7
:2007E600C00F85810FC082058105810581E50F24FBF8A90F0909E6F70809E6F70809E6F7AD
:20080600A80F080886820886830886F0120EF9FAA3120EF9FBA3120EF9FF74012AFCE43B35
:20082600FD8F06A80F080886820886830886F0EC1207AEA3ED1207AEA3EE1207AE8A828BC9
:20084600838FF0A80F08E61207AE850F81D00F2285820C85830D85F00E75530C7554007551
:200866005540850856850957850A58850B599007E61209D7AE82AF83AB0CAC0DAD0E8B823C
:200886008C838DF0E41207AE8E828F8322C00F85810FE50F24F8FF8F59E50F24FBFF8F5308
:2008A600755400755540E50F24F8F886560886570886589007E61209D7AE82AF83E50F24C7
:1B08C600FBF886030886040886058B828C838DF0E41207AE8E828F83D00F220F
:200086007800E84400600A790175AF00E4F309D8FC7850E84400600C7901900001E4F0A318
:0400A600D8FCD9FAAF
:2008E100C00F85810F12011CD00F2285825685835785F058E4F553F554F555851059900815
:20090100E10209D7C00F85810FE50F24FBFF8F59E4F553F554F555E50F24FBF88656088601
:0D092100570886589008E11209D7D00F2220
:20092E00AF82C049C04AC04B12093B8007C047C0488F82221581158115810551E4B5510237
:20094E00055222AF8274302FFF24C6500A74072FFF3000034307208F8202092EE582FFC40F
:20096E00540FF582C007120951D007740F5FF582020951858211854C12854D13854E148584
:20098E004F15AA50751620EA2AFAE515235401FF8A064EFAE5122512F512E51333F513E59C
:2009AE001433F514E51533F515C3EA95114008EAC39511FA431201D516CD85124C85134DE4
:2009CE0085144E85154F8A502285824785834885534985544A85554BE4F551F552AD56AE14
:2009EE0057AF588D828E838FF0120EF9FC74012DF556E43EF5578F58ECFF7003020EDABF8E
:200A0E0025028003020ED2C201C202C203C204C205C206C207C208755A00755B007CFFAA44
:200A2E0056AB57AE588A828B838EF0120EF9FFA3AA82AB838A568B578E58BF25078F8212E7
:200A4E00092E80998F5D74D0255D5026E55D24C64020BCFF12E55B75F00AA4FD2F24D0F54F
:200A6E005B70C2D20280BEEC75F00AA42F24D0FC80B3BF2E07BCFFAD7C0080A98F05BD61C5
:200A8E0000400CED248540075307DFD2008002C200BF2002806DBF2B028063BF2D0280596C
:200AAE00BF42028063BF43028068BF4403020C7CBF4603020C92BF4803020A33BF490302C8
:200ACE000C7CBF4A03020A33BF4C028040BF4F03020C83BF5003020C11BF5302805CBF5492
:200AEE0003020A33BF5503020C88BF5803020C8DBF5A03020A33020C96D201020A33D2035E
:200B0E00020A33D204020A33D206020A33D207020A3330060CE55914FE8E598E018707802E
:200B2E0011E55924FEFE8E598E018705098706198D078F8212092E020C9FE55924FDFE8E01
:200B4E00598E01870309870509870619198B4C8D4D8E4E8B828D838EF0C004120EE1AD829C
:200B6E00AE83D004BCFF028D0420012AC3ED955B5024E55BC39DF55BAE5B8E031EEB6014AE
:200B8E00758220C006C005C00412092ED004D005D00680E68E5B8C06854C82854D83854EBD
:200BAE00F0120EF9FCFF602F8E041EC374808CF063F08095F050208F82C006C00512092E04
:200BCE00D005D006AA4CAB4DAC4E0ABA00010B8A4C8B4D8C4E80C1200103020C9FC3ED95C5
:200BEE005B4003020C9FE55BC39DF55BAE5B8E041EEC7003020C9D758220C00612092ED0F3
:200C0E000680EBE55924FDFC8C598C01870209870309870419198A4C8B4D8C4EAC4EBC80E8
:200C2E000040047F438014BC600040047F50800BBC400040047F4980027F588F82C0071207
:200C4E00092E75823A12092E75823012092E75827812092ED007BF4902800BBF50028006AA
:200C6E00854D8212096A854C8212096A8023D205755A0A801C755A088017755A0A80127578
:200C8E005A10800DD20880098F8212092E80028E5B30085CE55924FCFE8E598E018702092F
:200CAE0087030987040987061919198A4C8B4D8C4E8E4F754C8A754D0F754E80854C5E85AF
:200CCE004D5F854E607401255EFAE4355FFCAE608A4C8C4D8E4E855E82855F838560F01275
:200CEE000EF9FEFF70030209EB8F8212092E80CCE55A70030209EB755C1C30062DE5591489
:200D0E00FC8C598C01E7FA3395E0FBFCFE8A4C8B4D8C4E8E4F200566AA4C7B007C007E007E
:200D2E008A4C8B4D8C4E8E4F8054300721E55924FCFE8E598E018702098703098704098702
:200D4E00061919198A4C8B4D8C4E8E4F8030E55924FEFE8E598E01870409870619EE33955B
:200D6E00E0FBFA8C4C8E4D8B4E8A4F200510AA4CAB4D7C007E008A4C8B4D8C4E8E4F300574
:200D8E0022E54F30E71BC3E4954CFAE4954DFBE4954EFCE4954FFE8A4C8B4D8C4E8E4F800C
:200DAE0002C205D209A95C7E00755000855A82C006C001120981D001D00620090BE550C4E1
:200DCE00FCE7FB4CF7198002A7500EB209E54C454D454E454F70D2895C8E05E55B700375BD
:200DEE005B01200224200121ED04FEAC5BC3EE9C5015758220C006C005C00412092ED004D6
:200E0E00D005D0061C80E68C5B30050E75822DC00512092ED005155B8023ED602030030EA5
:200E2E0075822BC00512092ED005155B800F30040C758220C00512092ED005155B200122B3
:200E4E00AE5B8E041EC3ED9C502B3002047C3080027C208C82C006C00512092ED005D00677
:200E6E0080E0C3ED955B5008E55BC39DF55B8007755B0080028E5BA95C8D068E051EED60C4
:200E8E0026B20920090A09E7C4540FFD8D5080078705740F5DF550855082C006C00112090E
:200EAE0051D001D00680D42001030209EBAE5B8E051EED70030209EB758220C00612092E88
:130ECE00D00680EB8F8212092E0209EB85518285528322AC
:0B0F8A003C4E4F20464C4F41543E00AF
:180EE100AA82AB83120EF96003A380F8C3E5829AF582E5839BF5832230
:0D005100758160120F15E582600302004EFC
:1C0EF90020F71430F6148883A88220F507E6A88375830022E280F7E49322E02208
:040F150075820022BF
:00000001FF
