:040000000200513277
:01000B0032C2
:0100130032BA
:01001B0032B2
:0100230032AA
:01002B0032A2
:01003300329A
:01003B003292
:01004300328A
:03004B0002076544
:2000AA00E4F533F534F535F536F53BF53CF53DF53E753FC875400A7541C875420AF543F53F
:2000CA0044F545F546F547F548F549F54AF54BF54CF54DF54EF54FF550F551F552F553F50E
:0800EA0054F555F55602004ED5
:03004E000205C8E0
:2000F20075B1677E007F011EBEFF011FEE4F70F7E5B130E7FB75B28822759850758920755B
:200112008DDCD28E438E10438780D29943A4012275FFDE75FFAD1200F212010B43E1044364
:20013200E34022AF8210990280FB8F992210980280FB85998212013585998222C01585811D
:2001520015E51524FBF886820886830886F0121B3BE5828583F045F070028062E51524FB67
:20017200FF8F11E51524FBF8860E08860F08861090000175F00012133B90000175F0001290
:200192001B3BAE827F00C3EF9E501FEF2401F582E43400F583E0FDBD0A0DEF2401F582E44E
:2001B2003400F583740DF00F80DC752901752A00752B007528008E2C7582C6120464D01554
:2001D2002275230074C025234017752E23752F00753040752D007531017582C61204DA80BB
:2001F200E375240C752924752A00752B40752800752C017582C612046422752E26752F001F
:20021200753040752D017531027582C61204DA74FFB52605758200805F7F008F068EF0052F
:20023200F07C017D008006EC2CFCED33FDD5F0F7AA267B00EA5204EB5205EC4D600774313D
:200252002FF58280330E8E07BE080040D0E52730E0057582398021E52730E10575822A8005
:2002720017E52730E205758230800DE52730E30575822380037582FF22AF82E4FDFEEF7036
:200292001DC006C0057492C0E0741CC0E07480C0E012014E158115811581D005D006C006A6
:2002B200C0057408C0E0E4C0E07408C0E0E4C0E07408C0E0E4C0E07408C0E0E4C0E074086B
:2002D200C0E0E4C0E074A8C0E0741CC0E07480C0E012014EE58124F3F58190A12075F00757
:2002F200E41203FFD005D0067F00C007C006C00512020CAC82D005D006D0078C03BCFF025C
:200312008003BB2A17902710E4F5F0C007C006C0051203FFD005D006D00780CEBB232AC0BE
:2003320006C00512020CAC82D005D006BC2313902710E4F5F0C006C0051203FFD005D0061B
:2003520080DD8D828E830203FEEBFA3395E0FCC007C006C005C004C003C002C002C00474ED
:20037200B8C0E0741CC0E07480C0E012014EE58124FBF581D002D003D004D005D0068D172B
:200392008E1890000AC004C003C0021212AEA882A983D002D003D004D007EA28F8EC39F922
:2003B200E824D0FDE934FFFEC007C006C005C00312020CAC82D003D005D006D007ECB503DC
:2003D2001B902710E4F5F0C007C006C005C0031203FFD003D005D006D00780CC0FC3EF6471
:2003F20080948550030202FC8D828E8322AC82AD83AEF0FF780079007A007B00C3E89CE9AC
:200412009DEA9EEB9F500F08B8000909B900050ABA00E90B80E62220C7FDD2C530C3FDC2BF
:20043200C5C2C3228582C210C30280FB228582C2D2C410C30280FB2230C3FD85C282C2C3F4
:200452002230C3FDAFC2C2C3D2C410C30280FB8F8222AF82C007120429D00774FE5FF58213
:200472001204368528821204367F00AD2C7E001DBDFF011E8F037C00C3EB9DEC64808EF02E
:2004920063F08095F0501FEF2529FCE4352AFDAE2B8C828D838EF0121B53F582C0071204C1
:2004B20036D0070F80C5AE2C7F001EBEFF011FEE2529FEEF352AFFAD2B8E828F838DF01265
:2004D2001B53F58212043F22AF82C007120429D0078F0674FE5EF582C007120436852D827D
:2004F20012043F120429D00774014FF5821204367F00AD317E001DBDFF011E8F037C00C354
:20051200EB9DEC64808EF063F08095F0502ED2C2EF252EFCE4352FFDAE30C007C006C005D6
:20053200C00412044AAB82D004D005D006D0078C828D838EF0EB1212630F80B6C2C2AE314C
:200552007F001EBEFF011FEE252EFEEF352FFFAD30C007C006C005120453AC82D005D0060D
:20057200D0078E828F838DF0EC12126322753223752932752A00752B40752820752C017571
:200592008230120464753200752932752A00752B40752821752C017582301204647532007F
:2005B200752932752A00752B40752822752C017582301204642212012212072B12074912C9
:2005D20007521207B612075F12057F75820D12013574BBC0E0741CC0E07480C0E012154588
:2005F20015811581158175EA3775FAF575EC3775FCF5E4F537F538C3E5379401E5389400CD
:2006120040F51207D61208FC74C4C0E0741CC0E07480C0E0121545158115811581E4F537B4
:20063200F538F539F53AC374019537E49538400875EC7F75FCF380EE74FDC0E0741CC0E02E
:200652007480C0E01215451581158115817428C0E0741DC0E07480C0E0121545158115812D
:20067200158130B60302070C30B70302070CE53E6009753E00120B6F120A22E55660437579
:2006920056007582071207C0858243121B6FAC82AD83AEF0FFC004C005C006C007909A6793
:2006B20075F04D743D1210ECAC82AD83AEF0FFE58124FCF5818C828D838EF0EF121B7A8509
:2006D20082447414B5459BAE437F00C006C007C03FC040C041C042C048C049C046C0477494
:2006F2005CC0E0741DC0E07480C0E0121545E58124F3F58175450002067420B60620B703DC
:2007120002067475EA3775FAF575EC3775FCF51207D61208FC0206742275E12753BD7F4361
:20073200A50553A57FAF9074804FF59053A77FAFB074804FF5B02243A80243E608D2AF22DC
:2007520075D98175DAC275DCC275D8402275CF93D2C622C0E0C0D010DF0280400539E4B59C
:200772003902053A75E90075F970C374329539E4953A50080537E4B5370205380545053B9A
:2007920074FF253B5006753B00753E01053C74F6253C500B753C00755601800353D8C0D098
:2007B200D0D0E03275D10375AA8043AB01228582ACAFAA74DF5FF5AA43AA10E5AA30E5FB83
:2007D200859C82227479C0E0741DC0E07480C0E012154515811581158174A2C0E0741DC0BB
:2007F200E07480C0E012154515811581158174DAC0E0741DC0E07480C0E01215451581157B
:2008120081158112013FAF82BF7530C00774CDC0E014C0E0C0E0743DC0E0854E82854F83CF
:200832008550F0E5511213C685824E85834F85F050F551E58124FCF581D007BF6430C0071C
:2008520074CDC0E014C0E0C0E0743DC0E0854E82854F838550F0E551120C6085824E85837E
:200872004F85F050F551E58124FCF581D007BF66028076E4C0E0C0E07480C0E0743FC0E011
:20089200854E82854F838550F0E55112127EAF82E58124FCF581EF700AF54EF54F7550809B
:2008B20075513FE4C0E0C0E0C0E0C0E0854E82854F838550F0E551121233AF82E58124FC08
:2008D200F581EF7008F54EF54FF550F551C04EC04FC050C05174EEC0E0741DC0E0120C6B1D
:2008F200E58124FAF58102081522740DC0E0741EC0E07480C0E01215451581158115817422
:20091200A2C0E0741DC0E07480C0E012154515811581158174DAC0E0741DC0E07480C0E0DD
:2009320012154515811581158112013FAF82BF7530C00774CDC0E014C0E0C0E0743DC0E043
:200952008552828553838554F0E5551213C685825285835385F054F555E58124FCF581D050
:2009720007BF6430C00774CDC0E014C0E0C0E0743DC0E08552828553838554F0E555120CE9
:200992006085825285835385F054F555E58124FCF581D007BF66028076E4C0E0C0E0748016
:2009B200C0E0743FC0E08552828553838554F0E55512127EAF82E58124FCF581EF700AF54E
:2009D20052F55375548075553FE4C0E0C0E0C0E0C0E08552828553838554F0E555121233A7
:2009F200AF82E58124FCF581EF7008F552F553F554F555C052C053C054C0557433C0E07426
:200A12001EC0E0120C6BE58124FAF58102093B22120A9D74C8C3954AF541740A954BF542B9
:200A3200C3E5419434E54294085006754134754208C374489541740D9542500675414875BB
:200A5200420D74C8254CF53F740A354DF540C3E53F94C8E540940A5006753FC875400AC3C5
:200A72007480953F740C95405006753F8075400C74FFC39541F5EA74FF9542F5FA74FFC3A2
:200A9200953FF5EC74FF9540F5FC22C3749C9546747F8547F063F08095F05014C3E5469499
:200AB20064E547648094805007E4F54AF54B8043854682854783121491AC82AD83AEF0FFD1
:200AD200C004C005C006C007854E82854F838550F0E5511210ECAC82AD83AEF0FFE58124B4
:200AF200FCF5818C828D838EF0EF12149E85824A85834B854882854983121491AC82AD83CA
:200B1200AEF0FFC004C005C006C0078552828553838554F0E5551210ECAC82AD83AEF0FF50
:200B3200E58124FCF5818C828D838EF0EF12149E85824C85834D22752E57752F007530400B
:200B5200752D277531027582301204DAE5576009E5586005758201800375820022755D301E
:200B7200E4F53EFEF533F534F535F5367C007D008E03C005C004C003120B49E582D003D062
:200B920004D0057003020C17752E59752F00753040752DA8753104855D82C005C004C003A9
:200BB2001204DAD003D004D005AA5AE55A3395E08A077A008A5EEFC4C55EC4540F655EC554
:200BD2005E540FC55E655EC55E30E30244F0F55FAA5CE55C3395E08A077A00EFC4CAC4540D
:200BF2000F6ACA540FCA6ACA30E30244F0FFE55E2533F533E55F3534F534EA2535F535EF01
:200C12003536F5360B0CBC00010DC3EC9408ED648094805003020B848B06EE60307F008E1B
:200C3200178F18853382853483C007C006121BC2858246858347D006D0078E178F188535A3
:0E0C520082853683121BC28582488583492223
:201C92000A54797065206469676974733B20656E6420772F23002020202020256325632592
:201CB2006325632563002563000A53746172740D0A000D546865206361722077696C6C206C
:201CD2006D6F766520717569636B6C7920617420666972737420746F206D6F7665207570FD
:201CF200207468652072616D700A000A0D2D2D2D2D2D2D2D2D2D2D2D2D4441544120434F98
:201D12004C4C454354494F4E2D2D2D2D2D2D2D2D2D2D2D2D0A000A0D582D416363656C09B4
:201D3200097C09592D416363656C09097C0953544545525F5057097C0944524956455F50CE
:201D520057097C094144430A0D000D256409097C09256409097C09256409097C09256409AE
:201D7200097C0925640A000D506C656173652073656C656374206120646573697265642088
:201D92007374656572696E67206761696E2E0A000D2775272077696C6C20696E6372656D93
:201DB200656E7420627920302E312E202764272077696C6C2064656372656D656E742062EF
:201DD2007920302E312E0A000D276627207768656E2066696E69736865640A000D44657361
:201DF20069726564207374656572696E67206761696E3A2025322E31660A000D506C6561DE
:201E120073652073656C65637420612064657369726564206472697665206761696E2E0A86
:1D1E3200000D44657369726564206472697665206761696E3A2025322E31660A004D
:0B0C6000A8811818C6B2E7C60213C630
:200C6B00C015858115E51524FDF8868318868218E493A3B42577C200C201C202C203C204E7
:200C8B00C20579087700C206E493A324C64017240A50157005B50802D205D204FAE775F0AD
:200CAB000AA42AF780E2240A2430B46C04D20080D7B46804D20180D0B47303020D03B46492
:200CCB0006120FDD020D5FB47506120FDD020D7FB4630518E6188017B47803020D3EB4667D
:200CEB0003020E93B42E0679097700809B60061210CF020C7B0210E9C083C08286F01886D3
:200D0B008318868218300419C205C082C083121B536007A31508E50870F41210BAD083D07D
:200D2B0082121B536006A31210CF80F5D082D083020C7B120D5620010C120D5630000612AA
:200D4B000D56120D561210E1020C7BE61210BFE6180210C0ED30E71CD203E9F42401F9207D
:200D6B000112EAF43400FA30000AEBF43400FBECF43400FC200110300008EB7024EC70218C
:200D8B00C200EA701CD201E97017200614300409E508600515081210BA74301210CF020C68
:200DAB007BC082C083120FF7300460790A30001DEB54F0703619EB540F703019EA54F07019
:200DCB002A19EA540F702419EF54F0701E790520010BEF540F701419EE54F0700E7903EE57
:200DEB00540F700719ED54F0700119E508A203994019F508C003C002C007C006C0051210C0
:200E0B00BAD005D006D007D002D003300319C003C002C007C006C005742D1210CFD005D08C
:200E2B0006D007D002D00320014030002CC005C006C0078A82EBF5831210BFE5831210C07C
:200E4B00E5821210BFE5821210C0D0E0F5821210BFE582D083D08280058D828E83EF12102C
:200E6B00C0E5831210BFE58380038D82EE1210C0E5821210BFE5821210C01210E1D083D0DD
:200E8B008230060122020C7B30040EE508D39509F50850287508008023E6547FFA1886035A
:200EAB0008AE82AF8390201B7D07E4932BA3E4933A5003A3DDF48D098E828F83C000120F18
:200ECB00BFC082C083EFB47E02801940112482FDC3EA33FAEB33FBEC33FCDDF48006F42496
:200EEB007F1211BD75F01BE4F8FFFEFD901FAFE933F9EA33FAEB33FBEC33FC5017E4932D69
:200F0B00D4FD7401933ED4FE7402933FD4FF74039338D4F8A3A3A3A3D5F0D4E47C50FBFAEA
:200F2B00F9E509232354FC88831211BDED29D4F50DEE3AD4F50CEF3BD4F50BE5833CD4F5EA
:200F4B000A92D5D083D082D000120FBFC000C3749E9F5005D000020C93C0821211BDD08252
:200F6B0030D50FE92401F9E43AFAE43BFBE43CFC40E2D206120D7F20040CE5096008120FBE
:200F8B00AF7003D509F4E5096015742E1210CF7800D20208E8120FAF1210C0E8B509F4D004
:200FAB0000020C7B14C31392D5240AF9E720D501C4540F22E618F9E618FC33E9339203FF2B
:200FCB006003430480E618FBE618FA7900C201D20022E6F9FD18200112AA01E6F9183000C2
:200FEB000AAC02AB01E6FA18E6F91822E975F06484FE740AC5F084C445F0FD30010122EA52
:20100B00540FF9901E4F932DD4FDE94410933ED4FEEAC4540FF9901E6F932DD4FDE9441006
:20102B00933ED4FEE94420933400D4FF20000122EB540FF9901E9F932DD4FDE94410933EA5
:20104B00D4FEE94420933FD4FFE43400FAEBC4540FF9901ECF932DD4FDE94410933ED4FEB6
:20106B00E94420933FD4FFE94430933AD4FAEC540FF9901F0F7B0012108DECC4540FF990AF
:20108B001F5F932DD4FDE94410933ED4FEE94420933FD4FFE94430933AD4FAE94440933B31
:2010AB00D4FB22742030050274301210CF1508E50870F022C4540F7003300219D2022490DB
:2010CB00D43440D4C083C082C000F582120135D000D082D083222002FC74300210CFD015C6
:0110EB0022E2
:201E4F0000561268248036924804601672288440000205071012151720232528303335385B
:201E6F000096928884807672686460565248444000408122630445862768095091327314D0
:201E8F000000000101020202030304040405050600367208448016528824609632680440AD
:201EAF000055106621763287429853086419753000061319263239455258657278859198F2
:201ECF00007652280480563208846036128864400085715743281400867157432914008677
:201EEF000004091419242934384348535863687200010203040506070809101112131415D1
:201F0F000016324864809612284460769208244000724416886032057749219365381082C8
:201F2F000077553310886644219977543210886500163350678300173450678401183451F6
:201F4F00000000000000010101010101020202020056126824803692480460167228844008
:201F6F00005409631872278136914500540963180043873074176104489135792266095327
:201F8F00006836057342107947158452218958260002050810131618212426293234374026
:201FAF000000005000000025000050120000250600501203002556015012780025063900F1
:201FCF00125319005676090028880400144402000722010004610000523000002615000045
:201FEF00630700008103000091010000950000004800000024000000120000000600000039
:1A200F000300000001000000010000007DC5DDC334C2E0BE38BD86BBE4B969
:2010EC0012118FBC00030214F3EF60FA30D502B2D1E583B4FF03021509E582B4FF03021525
:20110C0009258340072482400B0214F32483145003021509F582EA8DF0A4A8F0EA8EF0A47D
:20112C0028F8E435F0F9EB8DF0A428E935F0F9E433CA8FF0A429F9EA35F0FAEBF88EF0A412
:20114C0029F9EA35F0FAE433FBEC8DF0A429F9EA35F0FAE43BFBE88FF0A42AFAEB35F0FBBA
:20116C00E433CCFD8EF0A42AFAEB35F0FBE43CFCED8FF0A42BFBEC35F0FC20E703121200A5
:03118C000214D278
:20118F00AA82AB83A2F73392D1F5826002D2F7ACF0E58124F9F8E6FD08E6FE0886F008E6C3
:0E11AF00A2F73392D5F5836002D2F7AFF0229B
:06008000E478FFF6D8FD54
:2011BD006040F82582500274FFF582E824F8501ECCCBCAF9E4CC24F85014CBCAF9E4CB243A
:2011DD00F8500BCAF9E4CA24F8500379002224086010F8C3EC13FCEB13FBEA13FAE913F9ED
:0311FD00D8F12204
:201200007804EC7011E58224F8500AF582E4C9CACBFCD8EF22EC7820058220E713D58201ED
:1312200022C3E933F9EA33FAEB33FBEC33FCD8EA158222FB
:20005E007900E94400601B7A00902034785175AF00E493F2A308B8000205AFD9F4DAF27586
:02007E00AFFFD2
:20123300FFA8811818121466D2D133E6400730E70B7582012220E70675820022C2D1121499
:1012530048E97003F5822230D101B3E433F58222E9
:1B12630020F71130F6138883A88220F509F6A8837583002280FEF280F5F0228A
:20127E00FFA8811818121466D2D133E6400730E70B7582002220E70675820122C2D112144E
:10129E0048E97003F5822220D101B3E433F58222AE
:1D12AE00E5828517F0A4C582C0F08518F0A4D0F025F0C5838517F0A42583F58322D5
:2012CB00C015858115C082058105810581E51524FBF8A9150909E6F70809E6F70809E6F7A5
:2012EB00A815080886820886830886F0121B53FAA3121B53FBA3121B53FF74012AFCE43B0B
:20130B00FD8F06A815080886820886830886F0EC121263A3ED121263A3EE1212638A828B93
:20132B00838FF0A81508E6121263851581D0152285821285831385F014756C12756D007545
:20134B006E40850E6F850F708510718511729012CB121617AE82AF83AB12AC13AD148B8268
:20136B008C838DF0E41212638E828F8322C015858115E51524F8FF8F72E51524FBFF8F6C0E
:20138B00756D00756E40E51524F8F8866F0886700886719012CB121617AE82AF83E5152411
:1B13AB00FBF886030886040886058B828C838DF0E41212638E828F83D0152259
:200086007800E84400600A790175AF00E4F309D8FC7850E84400600C7901900001E4F0A318
:0400A600D8FCD9FAAF
:2013C60012118F7900E583B58202800D5003121B21E583C395821211BDE5D0C465D020E13C
:2013E60017EA2DFAEB3EFBEC3FFC500974011211BDEC4480FC0214D2C3EA9DFAEB9EFBEC7E
:191406009FFC500FC3E499F9E49AFAE49BFBE49CFCB2D11212000214D29D
:20141F007A10E4FBFCE58225E0F582E58333F583EB33FBEC33FCEB9517F5F0EC95184006C3
:09143F00FCABF0438201DADD226E
:201448007901AA82E68F82B5821318E6B5F00E18E6B5830918E68A82B58202790022B4809B
:201468000FE5F0700AE5837006E58270027F00EFB6801518B6001018B6000B18B600060803
:0914880008087600220808082279
:0D149100AC83AB827A007900748E021B8B55
:20149E00121BFA700AE582458345F0700122E430D112F4700BE5F0F47006E58330E701224F
:1414BE0090800022700AE5F07006E58320E70122907FFF2261
:2014D200B98003EA13B34010EA2401FAE43BFBE43CFC50047C800582BC000EBB000BBA005E
:2014F20008E4F5F0F583F58222A2D1E582138CF092F78B838A8222E4F583F58275F080F41E
:0F151200A2D11322E4F583F58275F0C0747F2215
:20152100C015858115120135D0152285826F85837085F071E4F56CF56DF56E8516729015DB
:2015410021021617C015858115E51524FBFF8F72E4F56CF56DF56EE51524FBF8866F088693
:0D15610070088671901521121617D0152202
:20156E00AF82C062C063C06412157B8007C060C0618F8222158115811581056AE4B56A02F0
:20158E00056B22AF8274302FFF24C6500A74072FFF3007034307208F8202156EE582FFC457
:2015AE00540FF582C007121591D007740F5FF58202159185821785651885661985671A853D
:2015CE00681BAA69751C20EA2AFAE51B235401FF8A064EFAE5182518F518E51933F519E5EE
:2015EE001A33F51AE51B33F51BC3EA95174008EAC39517FA431801D51CCD8518658519662A
:20160E00851A67851B688A6922858260858361856C62856D63856E64E4F56AF56BAD6FAE5D
:20162E0070AF718D828E838FF0121B53FC74012DF56FE43EF5708F71ECFF7003021B1ABF10
:20164E0025028003021B12C208C209C20AC20BC20CC20DC20EC20F7573007574007CFFAA41
:20166E006FAB70AE718A828B838EF0121B53FFA3AA82AB838A6F8B708E71BF25078F82129E
:20168E00156E80998F7674D025765026E57624C64020BCFF12E57475F00AA4FD2F24D0F553
:2016AE007470C2D20980BEEC75F00AA42F24D0FC80B3BF2E07BCFFAD7C0080A98F05BD6159
:2016CE0000400CED248540075307DFD2078002C207BF2002806DBF2B028063BF2D02805912
:2016EE00BF42028063BF43028068BF44030218BCBF46030218D2BF4803021673BF49030298
:20170E0018BCBF4A03021673BF4C028040BF4F030218C3BF5003021851BF5302805CBF5415
:20172E0003021673BF55030218C8BF58030218CDBF5A030216730218D6D208021673D20A3B
:20174E00021673D20B021673D20D021673D20E021673300D0CE57214FE8E728E0187078064
:20176E0011E57224FEFE8E728E018705098706198D078F8212156E0218DFE57224FDFE8ED2
:20178E00728E01870309870509870619198B658D668E678B828D838EF0C004121B3BAD8285
:2017AE00AE83D004BCFF028D0420082AC3ED95745024E574C39DF574AE748E031EEB6014F7
:2017CE00758220C006C005C00412156ED004D005D00680E68E748C068565828566838567C1
:2017EE00F0121B53FCFF602F8E041EC374808CF063F08095F050208F82C006C00512156E05
:20180E00D005D006AA65AB66AC670ABA00010B8A658B668C6780C12008030218DFC3ED958F
:20182E007440030218DFE574C39DF574AE748E041EEC70030218DD758220C00612156ED05E
:20184E000680EBE57224FDFC8C728C01870209870309870419198A658B668C67AC67BC8006
:20186E000040047F438014BC600040047F50800BBC400040047F4980027F588F82C00712BB
:20188E00156E75823A12156E75823012156E75827812156ED007BF4902800BBF500280062E
:2018AE008566821215AA8565821215AA8023D20C75730A801C757308801775730A80127510
:2018CE007310800DD20F80098F8212156E80028E74300F5CE57224FCFE8E728E0187020925
:2018EE0087030987040987061919198A658B668C678E6875652975662075678085657785D2
:20190E00667885677974012577FAE43578FCAE798A658C668E678577828578838579F012E3
:20192E001B53FEFF700302162B8F8212156E80CCE573700302162B75757F300D2DE572143A
:20194E00FC8C728C01E7FA3395E0FBFCFE8A658B668C678E68200C66AA657B007C007E0095
:20196E008A658B668C678E688054300E21E57224FCFE8E728E018702098703098704098719
:20198E00061919198A658B668C678E688030E57224FEFE8E728E01870409870619EE339579
:2019AE00E0FBFA8C658E668B678A68200C10AA65AB667C007E008A658B668C678E68300C20
:2019CE0022E56830E71BC3E49565FAE49566FBE49567FCE49568FE8A658B668C678E6880DF
:2019EE0002C20CD210A9757E00756900857382C006C0011215C1D001D00620100BE569C4D0
:201A0E00FCE7FB4CF7198002A7690EB210E56545664567456870D289758E05E574700375BA
:201A2E007401200924200821ED04FEAC74C3EE9C5015758220C006C005C00412156ED004FD
:201A4E00D005D0061C80E68C74300C0E75822DC00512156ED00515748023ED6020300A0ECD
:201A6E0075822BC00512156ED0051574800F300B0C758220C00512156ED00515742008228F
:201A8E00AE748E041EC3ED9C502B3009047C3080027C208C82C006C00512156ED005D006BF
:201AAE0080E0C3ED95745008E574C39DF574800775740080028E74A9758D068E051EED60E2
:201ACE0026B21020100A09E7C4540FFD8D6980078705740F5DF569856982C006C00112155D
:201AEE0091D001D00680D420080302162BAE748E051EED700302162B758220C00612156EF6
:131B0E00D00680EB8F8212156E02162B856A82856B832294
:0B2029003C4E4F20464C4F41543E00FF
:1A1B2100E582C583F582A2D133A2D592D11392D5ECCFFCEBCEFBEACDFA224C
:181B3B00AA82AB83121B536003A380F8C3E5829AF582E5839BF5832262
:0D00510075817F121C55E582600302004E90
:1C1B530020F71430F6148883A88220F507E6A88375830022E280F7E49322E022A1
:0B1B6F00E4AC82FBFAF97486021BB89C
:081B7A007F86121C6DF582222A
:201B8200FCABF0AA83A982749EF582C2D1EC30E716D2D1E9F42401F9EAF43400FAEBF43462
:0D1BA20000FBECF43400FC1212000214D21F
:131BAF00FCABF0AA83A982749EC2D1F5821212000214D20C
:201BC200C2D5E58330E70DD2D5E4C39582F582E49583F583E51830E70DB2D5E4C39517F5A0
:181BE20017E49518F51812141F30D50BE4C39582F582E49583F5832216
:201BFA00121C59C3749E9582403979001211BD30D126E9F42401F582EAF43400F583EBF47D
:201C1A003400F5F0ECF43400700AE582458345F0700122E430E70F22EC20E71489828A83C1
:1B1C3A008BF02230D10AE4F582F583F5F074802274FFF582F583F5F0747F22BD
:041C55007582002272
:121C5900AA82AB83A2F73392D1F5826002D2F7ACF02290
:201C6B007F9E121C5930D1030214F3C3EF9582500974FFF5F0F583F5822279001211BD893B
:071C8B00828A838BF0EC223A
:00000001FF
