:03000000020006F5
:20005F007522AC75230D75240875250775261E75270075281E752900752ACD752B0A752CF2
:20007F0014752D00E4F530F531F532F533F534F535F536F537F538F539F53AF53BF53CF5A3
:1C009F003DF53EF53FF540F541F542F543F544F545F546F547F548F5490200035D
:03000300020117E0
:2000BB0075B1677E007F011EBEFF011FEE4F70F7E5B130E7FB75B288227598507589207592
:2000DB008DDCD28E438E10438780D29943A4012275FFDE75FFAD1200BB1200D443E104430B
:2000FB00E34022AF8210990280FB8F992210980280FB8599821200FE859982221200EB75F6
:20011B0082201200FEE522C39524F52EE5239525F52F852E0A852F0B852682852783120498
:20013B00D6AE82AF83AC2AAD2BEE2CFEEF3DFFE52EC3952CFCE52F952DFD8C0A8D0B85283A
:20015B0082852983C007C0061204D6AC82AD83D006D007EC2EF530ED3FF531C030C0317467
:20017B0099C0E0740BC0E07480C0E0120585E58124FBF581852E0A852F0B85268285278309
:20019B001204D6AE82AF83AC2AAD2BEE2CFEEF3DFFE52EC3952CFCE52F952DFD8C0A8D0B71
:2001BB00852882852983C007C0061204D6AC82AD83D006D007EC2EFEED3FFF8E328F337506
:2001DB003400753500C032C033C034C03574C6C0E0740BC0E07480C0E0120585E58124F9AC
:2001FB00F581AC26AD277E007F00852E0AE52FF50B3395E0F50CF50D8C828D838EF0EF12B2
:20021B0004F3AC82AD83AEF0FFA82AE52BF93395E0FAFBEC28FCED39FDEE3AFEEF3BFFE5F2
:20023B002EC3952CFAE52F952DFB8A0A8B0B852882852983C007C006C005C0041204D6AAF0
:20025B0082AB83D004D005D006D0078A008B01E4FAFBE82CF536E93DF537EA3EF538EB3F7E
:20027B00F539C036C037C038C03974FEC0E0740BC0E07480C0E0120585E58124F9F5818578
:20029B002E0A852F0B8526828527831204D6AE82AF83AC2AAD2BEE2CFEEF3DFFE52EC39546
:2002BB002CFCE52F952DFD8C0A8D0B852882852983C007C0061204D6AC82AD83D006D00716
:2002DB00EC2EFEED3FFF8E3A8F3B753C00753D00C03AC03BC03CC03D7436C0E0740CC0E073
:2002FB007480C0E0120585E58124F9F581852E0A852F0B8526828527831204D6AE82AF8394
:20031B00AC2AAD2BEE2CFEEF3DFFE52EC3952CFCE52F952DFD8C0A8D0B852882852983C01D
:20033B0007C0061204D6AC82AD83D006D007EC2EFEED3FFF8E3E8F3F754000754100C03E98
:20035B00C03FC040C041746EC0E0740CC0E07480C0E0120585E58124F9F581AC2AE52BFDD4
:20037B003395E0FEFF852E0A852F0B852682852783C007C006C005C0041204D6AA82AB8389
:20039B00D004D005D006D0078A008B01E4FAFBE82CFCE93DFDEA3EFEEB3FFFE52EC3952CE4
:2003BB00FAE52F952DFB8A0A8B0B852882852983C007C006C005C0041204D6AA82AB83D0A1
:2003DB0004D005D006D0078A008B01E4FAFBE82CF542E93DF543EA3EF544EB3FF545C0421D
:2003FB00C043C044C04574A6C0E0740CC0E07480C0E0120585E58124F9F581AC2AE52BFDF0
:20041B003395E0FEFFA826A9277A007B00852E0AE52FF50B3395E0F50CF50D888289838A6D
:20043B00F0EBC007C006C005C0041204F3A882A983AAF0FBD004D005D006D007E82CFCE96D
:20045B003DFDEA3EFEEB3FFF85284A85294BE4F54CF54DE52EC3952CFAE52F952D8A0AF5B1
:20047B000B3395E0F50CF50D854A82854B83854CF0E54DC007C006C005C0041204F3A882CB
:20049B00A983AAF0FBD004D005D006D007E82CF546E93DF547EA3EF548EB3FF549C046C0E6
:1B04BB0047C048C04974DEC0E0740CC0E07480C0E0120585E58124F9F5812271
:200B99005468652074776F20627974652063616C63756C6174696F6E206F66206D6F746F4A
:200BB900727077206973202564200D0A00416C676F726974686D20312C20666F7572206265
:200BD9007974652063616C63756C6174696F6E206F66206D6F746F72707720697320256C21
:200BF90064200D0A00416C676F726974686D20322C20666F757220627974652063616C63B9
:200C1900756C6174696F6E206F66206D6F746F72707720697320256C64200D0A00416C6736
:200C39006F726974686D20332C20666F757220627974652063616C63756C6174696F6E200A
:200C59006F66206D6F746F72707720697320256C64200D0A00416C676F726974686D20342B
:200C79002C20666F757220627974652063616C63756C6174696F6E206F66206D6F746F728A
:200C9900707720697320256C64200D0A00416C676F726974686D20352C20666F7572206286
:200CB9007974652063616C63756C6174696F6E206F66206D6F746F72707720697320256C40
:200CD90064200D0A00416C676F726974686D20362C20666F757220627974652063616C63D4
:1D0CF900756C6174696F6E206F66206D6F746F72707720697320256C64200D0A006D
:06003500E478FFF6D8FD9F
:200013007900E94400601B7A00900D21780175AF00E493F2A308B8000205AFD9F4DAF27547
:02003300AFFF1D
:1D04D600E582850AF0A4C582C0F0850BF0A4D0F025F0C583850AF0A42583F58322E2
:2004F300AAF0FBE582850AF0A4FCADF0E583850AF0A42DFDE435F0FEE582850BF0A42DFDC0
:20051300E5F03EFEE433FFEA850AF0A42EFEE5F03FFFE583850BF0A42EFEE5F03FFFE58223
:20053300850CF0A42EFEE5F03FFFEB850AF0A42FFFEA850BF0A42FFFE583850CF0A42FFF11
:0E055300E582850DF0A42F8EF08D838C822220
:20003B007800E84400600A790175AF00E4F309D8FC7800E84400600C7900900001E4F0A3B4
:04005B00D8FCD9FAFA
:20056100C0098581091200FED0092285825D85835E85F05FE4F55AF55BF55C8508609005A3
:2005810061020657C009858109E50924FBFF8F60E4F55AF55BF55CE50924FBF8865D08867D
:0D05A1005E08865F900561120657D00922A2
:2005AE00AF82C050C051C0521205BB8007C04EC04F8F82221581158115810558E4B558020E
:2005CE00055922AF8274302FFF24C6500A74072FFF3000034307208F820205AEE582FFC410
:2005EE00540FF582C0071205D1D007740F5FF5820205D185820A85530B85540C85550D8517
:20060E00560EAA57750F20EA2AFAE50E235401FF8A064EFAE50B250BF50BE50C33F50CE549
:20062E000D33F50DE50E33F50EC3EA950A4008EAC3950AFA430B01D50FCD850B53850C549F
:20064E00850D55850E568A572285824E85834F855A50855B51855C52E4F558F559AD5DAE43
:20066E005EAF5F8D828E838FF0120B79FC74012DF55DE43EF55E8F5FECFF7003020B5ABFF4
:20068E0025028003020B52C201C202C203C204C205C206C207C2087561007562007CFFAA3D
:2006AE005DAB5EAE5F8A828B838EF0120B79FFA3AA82AB838A5D8B5E8E5FBF25078F8212C4
:2006CE0005AE80998F6474D025645026E56424C64020BCFF12E56275F00AA4FD2F24D0F53B
:2006EE006270C2D20280BEEC75F00AA42F24D0FC80B3BF2E07BCFFAD7C0080A98F05BD6142
:20070E0000400CED248540075307DFD2008002C200BF2002806DBF2B028063BF2D028059EF
:20072E00BF42028063BF43028068BF44030208FCBF4603020912BF48030206B3BF490302D6
:20074E0008FCBF4A030206B3BF4C028040BF4F03020903BF5003020891BF5302805CBF5424
:20076E00030206B3BF5503020908BF580302090DBF5A030206B3020916D2010206B3D203F6
:20078E000206B3D2040206B3D2060206B3D2070206B330060CE56014FE8E608E01870780B4
:2007AE0011E56024FEFE8E608E018705098706198D078F821205AE02091FE56024FDFE8E77
:2007CE00608E01870309870509870619198B538D548E558B828D838EF0C004120B61AD8287
:2007EE00AE83D004BCFF028D0420012AC3ED95625024E562C39DF562AE628E031EEB601416
:20080E00758220C006C005C0041205AED004D005D00680E68E628C068553828554838555A8
:20082E00F0120B79FCFF602F8E041EC374808CF063F08095F050208F82C006C0051205AE8E
:20084E00D005D006AA53AB54AC550ABA00010B8A538B548C5580C120010302091FC3ED95A1
:20086E0062400302091FE562C39DF562AE628E041EEC700302091D758220C0061205AED0E4
:20088E000680EBE56024FDFC8C608C01870209870309870419198A538B548C55AC55BC8042
:2008AE000040047F438014BC600040047F50800BBC400040047F4980027F588F82C007128B
:2008CE0005AE75823A1205AE7582301205AE7582781205AED007BF4902800BBF500280063E
:2008EE008554821205EA8553821205EA8023D20575610A801C756108801775610A801275E1
:20090E006110800DD20880098F821205AE80028E6230085CE56024FCFE8E608E018702091A
:20092E0087030987040987061919198A538B548C558E5675531675540D7555808553658569
:20094E00546685556774012565FAE43566FCAE678A538C548E558565828566838567F0129D
:20096E000B79FEFF700302066B8F821205AE80CCE561700302066B75631530062DE560140B
:20098E00FC8C608C01E7FA3395E0FBFCFE8A538B548C558E56200566AA537B007C007E00D8
:2009AE008A538B548C558E568054300721E56024FCFE8E608E01870209870309870409875C
:2009CE00061919198A538B548C558E568030E56024FEFE8E608E01870409870619EE3395B5
:2009EE00E0FBFA8C538E548B558A56200510AA53AB547C007E008A538B548C558E563005B2
:200A0E0022E55630E71BC3E49553FAE49554FBE49555FCE49556FE8A538B548C558E568050
:200A2E0002C205D209A9637E00755700856182C006C001120601D001D00620090BE557C4CB
:200A4E00FCE7FB4CF7198002A7570EB209E55345544555455670D289638E05E5627003750F
:200A6E006201200224200121ED04FEAC62C3EE9C5015758220C006C005C0041205AED004CF
:200A8E00D005D0061C80E68C6230050E75822DC0051205AED00515628023ED602030030E9F
:200AAE0075822BC0051205AED0051562800F30040C758220C0051205AED005156220012231
:200ACE00AE628E041EC3ED9C502B3002047C3080027C208C82C006C0051205AED005D00678
:200AEE0080E0C3ED95625008E562C39DF562800775620080028E62A9638D068E051EED601E
:200B0E0026B20920090A09E7C4540FFD8D5780078705740F5DF557855782C006C001120580
:200B2E00D1D001D00680D420010302066BAE628E051EED700302066B758220C0061205AE0E
:130B4E00D00680EB8F821205AE02066B8558828559832228
:0B0D16003C4E4F20464C4F41543E0025
:180B6100AA82AB83120B796003A380F8C3E5829AF582E5839BF5832236
:0D000600758167120B95E58260030200030F
:1C0B790020F71430F6148883A88220F507E6A88375830022E280F7E49322E0228B
:040B95007582002243
:00000001FF
