:040000000200513277
:01000B0032C2
:0100130032BA
:01001B0032B2
:0100230032AA
:01002B0032A2
:01003300329A
:01003B003292
:01004300328A
:03004B00020606A4
:0300AA0002004E03
:03004E0002058325
:2000AD0075B1677E007F011EBEFF011FEE4F70F7E5B130E7FB75B2882275985075892075A0
:2000CD008DDCD28E438E10438780D29943A4012275FFDE75FFAD1200AD1200C643E1044335
:2000ED00E34022AF8210990280FB8F992210980280FB8599821200F085998222C01E8581A0
:20010D001EE51E24FBF886820886830886F0120E46E5828583F045F070028062E51E24FB93
:20012D00FF8F25E51E24FBF8862208862308862490000175F0001207BB90000175F0001208
:20014D000E46AE827F00C3EF9E501FEF2401F582E43400F583E0FDBD0A0DEF2401F582E495
:20016D003400F583740DF00F80DC750E01750F00751000750D008E117582C612041FD01E5C
:20018D002275080074C0250840177513087514007515407512007516017582C6120495801D
:2001AD00E375090C750E09750F00751040750D007511017582C612041F2275130B751400B7
:2001CD007515407512017516027582C612049574FFB50B05758200805F7F008F068EF00526
:2001ED00F07C017D008006EC2CFCED33FDD5F0F7AA0B7B00EA5204EB5205EC4D600774319E
:20020D002FF58280330E8E07BE080040D0E50C30E0057582398021E50C30E10575822A8080
:20022D0017E50C30E205758230800DE50C30E30575822380037582FF22AF82E4FDFEEF70B1
:20024D001DC006C005747EC0E0740EC0E07480C0E0120109158115811581D005D006C00652
:20026D00C0057408C0E0E4C0E07408C0E0E4C0E07408C0E0E4C0E07408C0E0E4C0E07408B0
:20028D00C0E0E4C0E07494C0E0740EC0E07480C0E0120109E58124F3F58190A12075F00703
:2002AD00E41203BAD005D0067F00C007C006C0051201C7AC82D005D006D0078C03BCFF022C
:2002CD008003BB2A17902710E4F5F0C007C006C0051203BAD005D006D00780CEBB232AC049
:2002ED0006C0051201C7AC82D005D006BC2313902710E4F5F0C006C0051203BAD005D006EC
:20030D0080DD8D828E830203B9EBFA3395E0FCC007C006C005C004C003C002C002C0047477
:20032D00A4C0E0740EC0E07480C0E0120109E58124FBF581D002D003D004D005D0068D43AB
:20034D008E4490000AC004C003C00212072EA882A983D002D003D004D007EA28F8EC39F9C6
:20036D00E824D0FDE934FFFEC007C006C005C0031201C7AC82D003D005D006D007ECB50367
:20038D001B902710E4F5F0C007C006C005C0031203BAD003D005D006D00780CC0FC3EF64FB
:2003AD0080948550030202B78D828E8322AC82AD83AEF0FF780079007A007B00C3E89CE936
:2003CD009DEA9EEB9F500F08B8000909B900050ABA00E90B80E62220C7FDD2C530C3FDC205
:2003ED00C5C2C3228582C210C30280FB228582C2D2C410C30280FB2230C3FD85C282C2C33A
:20040D002230C3FDAFC2C2C3D2C410C30280FB8F8222AF82C0071203E4D00774FE5FF5829E
:20042D001203F1850D821203F17F00AD117E001DBDFF011E8F037C00C3EB9DEC64808EF035
:20044D0063F08095F0501FEF250EFCE4350FFDAE108C828D838EF0120E5EF582C00712035A
:20046D00F1D0070F80C5AE117F001EBEFF011FEE250EFEEF350FFFAD108E828F838DF0125B
:20048D000E5EF5821203FA22AF82C0071203E4D0078F0674FE5EF582C0071203F1851282B1
:2004AD001203FA1203E4D00774014FF5821203F17F00AD167E001DBDFF011E8F037C00C386
:2004CD00EB9DEC64808EF063F08095F0502ED2C2EF2513FCE43514FDAE15C007C006C0056D
:2004ED00C004120405AB82D004D005D006D0078C828D838EF0EB1207130F80B6C2C2AE164D
:20050D007F001EBEFF011FEE2513FEEF3514FFAD15C007C006C00512040EAC82D005D006E8
:20052D00D0078E828F838DF0EC12071322751723750E17750F00751040750D2075110175CE
:20054D00823012041F751700750E17750F00751040750D2175110175823012041F75170026
:20056D00750E17750F00751040750D2275110175823012041F221200DD1205EC1205F012D7
:20058D0005F912060075820D1200F074A7C0E0740EC0E07480C0E012086A1581158115817B
:2005AD0012018EE4F518F519C3E5189401E519940040F512018E758201120246AE82AF831D
:2005CD00C006C00774B0C0E0740EC0E07480C0E012086AE58124FBF58112018E80D82275F8
:2005ED00E1272243A80243E608D2AF2275D98143D8402275CF93D2C622C0E0C0D010DF0205
:20060D00802E051CE4B51C02051D051AE4B51A02051B75E90075F970C37432951AE4951B49
:20062D005011E4F51AF51B0518B518070519800353D8C0D0D0D0E032E4F51AF51BC3E51A85
:20064D009401E51B940040F522E4F51AF51BC3E51A9432E51B940040F5227F00C00712013E
:20066D00C7AE82C006120645D006D007BEFF0BC0071201C7AE82D00780F2BEFF028071C054
:20068D000612018ED006EEFC3395E0FDC006C005C004C004C005C004C00574C2C0E0740E88
:2006AD00C0E07480C0E0120109E58124F9F581D004D005C004C005C004C00574DFC0E074C2
:2006CD000EC0E07480C0E012086AE58124F9F581D006EE7019C00674FDC0E0740EC0E07494
:2006ED0080C0E012086A158115811581D0068E07BEFF02800BC0071201C7AE82D00780F0BA
:06070D00EF24D0F582226A
:200E7E000A54797065206469676974733B20656E6420772F230020202020202563256325B4
:200E9E006325632563002563000A53746172740D0A000D596F7520747970656420696E2063
:200EBE0025750A00596F7572206B6579207761733A0A2025632C20203D2048657820255876
:200EDE00000D596F7572206B6579207761733A2025632C20203D204865782025580A0020CD
:1F0EFE0020202A2A5769726520436F6E6E656374696F6E204572726F722A2A202020009C
:06008000E478FFF6D8FD54
:20005E007900E94400601B7A00900F28785175AF00E493F2A308B8000205AFD9F4DAF275A3
:02007E00AFFFD2
:1B07130020F71130F6138883A88220F509F6A8837583002280FEF280F5F022E5
:1D072E00E5828543F0A4C582C0F08544F0A4D0F025F0C5838543F0A42583F58322DC
:20074B00C01E85811EC082058105810581E51E24FBF8A91E0909E6F70809E6F70809E6F70C
:20076B00A81E080886820886830886F0120E5EFAA3120E5EFBA3120E5EFF74012AFCE43B93
:20078B00FD8F06A81E080886820886830886F0EC120713A3ED120713A3EE1207138A828B27
:2007AB00838FF0A81E08E6120713851E81D01E2285822685832785F028753526753600752F
:2007CB00374085223885233985243A85253B90074B12093CAE82AF83AB26AC27AD288B82EE
:2007EB008C838DF0E41207138E828F8322C01E85811EE51E24F8FF8F3BE51E24FBFF8F353F
:20080B00753600753740E51E24F8F8863808863908863A90074B12093CAE82AF83E51E2410
:1B082B00FBF886030886040886058B828C838DF0E41207138E828F83D01E2236
:200086007800E84400600A790175AF00E4F309D8FC7850E84400600C7901900001E4F0A318
:0400A600D8FCD9FAAF
:20084600C01E85811E1200F0D01E2285823885833985F03AE4F535F536F537851F3B900873
:200866004602093CC01E85811EE51E24FBFF8F3BE4F535F536F537E51E24FBF8863808862D
:0D0886003908863A90084612093CD01E221F
:20089300AF82C02BC02CC02D1208A08007C029C02A8F82221581158115810533E4B5330241
:2008B300053422AF8274302FFF24C6500A74072FFF3000034307208F82020893E582FFC465
:2008D300540FF582C0071208B6D007740F5FF5820208B6858243852E44852F4585304685EA
:2008F3003147AA32754820EA2AFAE547235401FF8A064EFAE5442544F544E54533F545E5E4
:200913004633F546E54733F547C3EA95434008EAC39543FA434401D548CD85442E85452FC7
:200933008546308547318A322285822985832A85352B85362C85372DE4F533F534AD38AEEF
:2009530039AF3A8D828E838FF0120E5EFC74012DF538E43EF5398F3AECFF7003020E3FBFF5
:2009730025028003020E37C201C202C203C204C205C206C207C208753C00753D007CFFAAB7
:2009930038AB39AE3A8A828B838EF0120E5EFFA3AA82AB838A388B398E3ABF25078F8212D2
:2009B300089380998F3F74D0253F5026E53F24C64020BCFF12E53D75F00AA4FD2F24D0F5FF
:2009D3003D70C2D20280BEEC75F00AA42F24D0FC80B3BF2E07BCFFAD7C0080A98F05BD617F
:2009F30000400CED248540075307DFD2008002C200BF2002806DBF2B028063BF2D02805908
:200A1300BF42028063BF43028068BF4403020BE1BF4603020BF7BF4803020998BF49030237
:200A33000BE1BF4A03020998BF4C028040BF4F03020BE8BF5003020B76BF5302805CBF549D
:200A530003020998BF5503020BEDBF5803020BF2BF5A03020998020BFBD201020998D203A1
:200A7300020998D204020998D206020998D20702099830060CE53B14FE8E3B8E0187078076
:200A930011E53B24FEFE8E3B8E018705098706198D078F82120893020C04E53B24FDFE8E2E
:200AB3003B8E01870309870509870619198B2E8D2F8E308B828D838EF0C004120E46AD824B
:200AD300AE83D004BCFF028D0420012AC3ED953D5024E53DC39DF53DAE3D8E031EEB6014C2
:200AF300758220C006C005C004120893D004D005D00680E68E3D8C06852E82852F8385306D
:200B1300F0120E5EFCFF602F8E041EC374808CF063F08095F050208F82C006C005120893D6
:200B3300D005D006AA2EAB2FAC300ABA00010B8A2E8B2F8C3080C1200103020C04C3ED95AF
:200B53003D4003020C04E53DC39DF53DAE3D8E041EEC7003020C02758220C006120893D0D8
:200B73000680EBE53B24FDFC8C3B8C01870209870309870419198A2E8B2F8C30AC30BC8038
:200B93000040047F438014BC600040047F50800BBC400040047F4980027F588F82C00712A3
:200BB300089375823A120893758230120893758278120893D007BF4902800BBF50028006B6
:200BD300852F821208CF852E821208CF8023D205753C0A801C753C088017753C0A801275E2
:200BF3003C10800DD20880098F8212089380028E3D30085CE53B24FCFE8E3B8E01870209DF
:200C130087030987040987061919198A2E8B2F8C308E31752E1D752F0F753080852E4085C5
:200C33002F4185304274012540FAE43541FCAE428A2E8C2F8E308540828541838542F01296
:200C53000E5EFEFF70030209508F8212089380CCE53C7003020950753E4E30062DE53B14B9
:200C7300FC8C3B8C01E7FA3395E0FBFCFE8A2E8B2F8C308E31200566AA2E7B007C007E00CE
:200C93008A2E8B2F8C308E318054300721E53B24FCFE8E3B8E018702098703098704098752
:200CB300061919198A2E8B2F8C308E318030E53B24FEFE8E3B8E01870409870619EE3395AB
:200CD300E0FBFA8C2E8E2F8B308A31200510AA2EAB2F7C007E008A2E8B2F8C308E3130053C
:200CF30022E53130E71BC3E4952EFAE4952FFBE49530FCE49531FE8A2E8B2F8C308E3180B6
:200D130002C205D209A93E7E00753200853C82C006C0011208E6D001D00620090BE532C490
:200D3300FCE7FB4CF7198002A7320EB209E52E452F4530453170D2893E8E05E53D7003752A
:200D53003D01200224200121ED04FEAC3DC3EE9C5015758220C006C005C004120893D00449
:200D7300D005D0061C80E68C3D30050E75822DC005120893D005153D8023ED602030030E19
:200D930075822BC005120893D005153D800F30040C758220C005120893D005153D200122C3
:200DB300AE3D8E041EC3ED9C502B3002047C3080027C208C82C006C005120893D005D006CD
:200DD30080E0C3ED953D5008E53DC39DF53D8007753D0080028E3DA93E8D068E051EED6014
:200DF30026B20920090A09E7C4540FFD8D3280078705740F5DF532853282C006C001120805
:200E1300B6D001D00680D4200103020950AE3D8E051EED7003020950758220C006120893AE
:130E3300D00680EB8F8212089302095085338285348322BA
:0B0F1D003C4E4F20464C4F41543E001C
:180E4600AA82AB83120E5E6003A380F8C3E5829AF582E5839BF5832266
:0D00510075814E120E7AE582600302004EAA
:1C0E5E0020F71430F6148883A88220F507E6A88375830022E280F7E49322E022A3
:040E7A00758200225B
:00000001FF
