:040000000200513277
:01000B0032C2
:0100130032BA
:01001B0032B2
:0100230032AA
:01002B0032A2
:01003300329A
:01003B003292
:01004300328A
:03004B0002065B4F
:0300AA0002004E03
:03004E0002058325
:2000AD0075B1677E007F011EBEFF011FEE4F70F7E5B130E7FB75B2882275985075892075A0
:2000CD008DDCD28E438E10438780D29943A4012275FFDE75FFAD1200AD1200C643E1044335
:2000ED00E34022AF8210990280FB8F992210980280FB8599821200F085998222C01E8581A0
:20010D001EE51E24FBF886820886830886F0120E81E5828583F045F070028062E51E24FB58
:20012D00FF8F25E51E24FBF8862208862308862490000175F0001207F690000175F00012CD
:20014D000E81AE827F00C3EF9E501FEF2401F582E43400F583E0FDBD0A0DEF2401F582E45A
:20016D003400F583740DF00F80DC750E01750F00751000750D008E117582C612041FD01E5C
:20018D002275080074C0250840177513087514007515407512007516017582C6120495801D
:2001AD00E375090C750E09750F00751040750D007511017582C612041F2275130B751400B7
:2001CD007515407512017516027582C612049574FFB50B05758200805F7F008F068EF00526
:2001ED00F07C017D008006EC2CFCED33FDD5F0F7AA0B7B00EA5204EB5205EC4D600774319E
:20020D002FF58280330E8E07BE080040D0E50C30E0057582398021E50C30E10575822A8080
:20022D0017E50C30E205758230800DE50C30E30575822380037582FF22AF82E4FDFEEF70B1
:20024D001DC006C00574B9C0E0740EC0E07480C0E0120109158115811581D005D006C00617
:20026D00C0057408C0E0E4C0E07408C0E0E4C0E07408C0E0E4C0E07408C0E0E4C0E07408B0
:20028D00C0E0E4C0E074CFC0E0740EC0E07480C0E0120109E58124F3F58190A12075F007C8
:2002AD00E41203BAD005D0067F00C007C006C0051201C7AC82D005D006D0078C03BCFF022C
:2002CD008003BB2A17902710E4F5F0C007C006C0051203BAD005D006D00780CEBB232AC049
:2002ED0006C0051201C7AC82D005D006BC2313902710E4F5F0C006C0051203BAD005D006EC
:20030D0080DD8D828E830203B9EBFA3395E0FCC007C006C005C004C003C002C002C0047477
:20032D00DFC0E0740EC0E07480C0E0120109E58124FBF581D002D003D004D005D0068D4370
:20034D008E4490000AC004C003C002120769A882A983D002D003D004D007EA28F8EC39F98B
:20036D00E824D0FDE934FFFEC007C006C005C0031201C7AC82D003D005D006D007ECB50367
:20038D001B902710E4F5F0C007C006C005C0031203BAD003D005D006D00780CC0FC3EF64FB
:2003AD0080948550030202B78D828E8322AC82AD83AEF0FF780079007A007B00C3E89CE936
:2003CD009DEA9EEB9F500F08B8000909B900050ABA00E90B80E62220C7FDD2C530C3FDC205
:2003ED00C5C2C3228582C210C30280FB228582C2D2C410C30280FB2230C3FD85C282C2C33A
:20040D002230C3FDAFC2C2C3D2C410C30280FB8F8222AF82C0071203E4D00774FE5FF5829E
:20042D001203F1850D821203F17F00AD117E001DBDFF011E8F037C00C3EB9DEC64808EF035
:20044D0063F08095F0501FEF250EFCE4350FFDAE108C828D838EF0120E99F582C00712031F
:20046D00F1D0070F80C5AE117F001EBEFF011FEE250EFEEF350FFFAD108E828F838DF0125B
:20048D000E99F5821203FA22AF82C0071203E4D0078F0674FE5EF582C0071203F185128276
:2004AD001203FA1203E4D00774014FF5821203F17F00AD167E001DBDFF011E8F037C00C386
:2004CD00EB9DEC64808EF063F08095F0502ED2C2EF2513FCE43514FDAE15C007C006C0056D
:2004ED00C004120405AB82D004D005D006D0078C828D838EF0EB12074E0F80B6C2C2AE1612
:20050D007F001EBEFF011FEE2513FEEF3514FFAD15C007C006C00512040EAC82D005D006E8
:20052D00D0078E828F838DF0EC12074E22751723750E17750F00751040750D207511017593
:20054D00823012041F751700750E17750F00751040750D2175110175823012041F75170026
:20056D00750E17750F00751040750D2275110175823012041F221200DD120641120645122B
:20058D00064E12065575820D1200F074E2C0E0740EC0E07480C0E01208A51581158115815A
:2005AD00E4F518F519C3E5189401E519940040F512018E74EBC0E0740EC0E07480C0E012AB
:2005CD0001091581158115811206BCAF82C0071206BCAE82D007C2D575F00AEF30E704B2D9
:2005ED00D5F404A430D50AF42401C5F0F43400C5F0FFADF0EE3395E0FCEE2FFFEC3DFDC093
:20060D0007C005C007C005741FC0E0740FC0E07480C0E01208A5E58124FBF581741FC0E09E
:20062D00740FC0E07480C0E0120109E58124FBF58180952275E1272243A80243E608D2AF6A
:20064D002275D98143D8402275CF93D2C622C0E0C0D010DF02802E051CE4B51C02051D05C0
:20066D001AE4B51A02051B75E90075F970C37432951AE4951B5011E4F51AF51B0518B51848
:20068D00070519800353D8C0D0D0D0E032E4F51AF51BC3E51A9401E51B940040F522E4F51A
:2006AD001AF51BC3E51A9432E51B940040F5221201C7AF82C00712069AD007BFFF02806F86
:2006CD00C00712018ED007EFFD3395E0FEC007C006C005C005C006C005C006742CC0E07420
:2006ED000FC0E07480C0E0120109E58124F9F581D005D006C005C006C005C0067449C0E077
:20070D00740FC0E07480C0E01208A5E58124F9F581D007EF7019C0077467C0E0740FC0E0A9
:20072D007480C0E01208A5158115811581D007BFFF0280071201C7AF8280F4EF24D0F582A0
:01074D002289
:200EB9000A54797065206469676974733B20656E6420772F23002020202020256325632579
:200ED9006325632563002563000A53746172740D0A0043616C6962726174696F6E3A0A48DB
:200EF900656C6C6F20776F726C64210A3031325F3334355F3637383A0A616263206465666F
:200F1900206768696A00526573756C7420697320257500596F7572206B6579207761733A04
:200F39000A2025632C20203D20486578202558000A0D596F7572206B6579207761733A2067
:200F590025632C20203D20486578202558002020202A2A5769726520436F6E6E65637469C7
:0E0F79006F6E204572726F722A2A20202000AF
:06008000E478FFF6D8FD54
:20005E007900E94400601B7A00900F92785175AF00E493F2A308B8000205AFD9F4DAF27539
:02007E00AFFFD2
:1B074E0020F71130F6138883A88220F509F6A8837583002280FEF280F5F022AA
:1D076900E5828543F0A4C582C0F08544F0A4D0F025F0C5838543F0A42583F58322A1
:20078600C01E85811EC082058105810581E51E24FBF8A91E0909E6F70809E6F70809E6F7D1
:2007A600A81E080886820886830886F0120E99FAA3120E99FBA3120E99FF74012AFCE43BA7
:2007C600FD8F06A81E080886820886830886F0EC12074EA3ED12074EA3EE12074E8A828B3B
:2007E600838FF0A81E08E612074E851E81D01E2285822685832785F02875352675360075B9
:20080600374085223885233985243A85253B900786120977AE82AF83AB26AC27AD288B823C
:200826008C838DF0E412074E8E828F8322C01E85811EE51E24F8FF8F3BE51E24FBFF8F35C8
:20084600753600753740E51E24F8F8863808863908863A900786120977AE82AF83E51E245F
:1B086600FBF886030886040886058B828C838DF0E412074E8E828F83D01E22C0
:200086007800E84400600A790175AF00E4F309D8FC7850E84400600C7901900001E4F0A318
:0400A600D8FCD9FAAF
:20088100C01E85811E1200F0D01E2285823885833985F03AE4F535F536F537851F3B900838
:2008A10081020977C01E85811EE51E24FBFF8F3BE4F535F536F537E51E24FBF8863808867C
:0D08C1003908863A900881120977D01E226E
:2008CE00AF82C02BC02CC02D1208DB8007C029C02A8F82221581158115810533E4B53302CB
:2008EE00053422AF8274302FFF24C6500A74072FFF3000034307208F820208CEE582FFC4EF
:20090E00540FF582C0071208F1D007740F5FF5820208F1858243852E44852F458530468538
:20092E003147AA32754820EA2AFAE547235401FF8A064EFAE5442544F544E54533F545E5A8
:20094E004633F546E54733F547C3EA95434008EAC39543FA434401D548CD85442E85452F8C
:20096E008546308547318A322285822985832A85352B85362C85372DE4F533F534AD38AEB4
:20098E0039AF3A8D828E838FF0120E99FC74012DF538E43EF5398F3AECFF7003020E7ABF44
:2009AE0025028003020E72C201C202C203C204C205C206C207C208753C00753D007CFFAA41
:2009CE0038AB39AE3A8A828B838EF0120E99FFA3AA82AB838A388B398E3ABF25078F82125C
:2009EE0008CE80998F3F74D0253F5026E53F24C64020BCFF12E53D75F00AA4FD2F24D0F589
:200A0E003D70C2D20280BEEC75F00AA42F24D0FC80B3BF2E07BCFFAD7C0080A98F05BD6143
:200A2E0000400CED248540075307DFD2008002C200BF2002806DBF2B028063BF2D028059CC
:200A4E00BF42028063BF43028068BF4403020C1CBF4603020C32BF48030209D3BF49030249
:200A6E000C1CBF4A030209D3BF4C028040BF4F03020C23BF5003020BB1BF5302805CBF5474
:200A8E00030209D3BF5503020C28BF5803020C2DBF5A030209D3020C36D2010209D3D20301
:200AAE000209D3D2040209D3D2060209D3D2070209D330060CE53B14FE8E3B8E018707804F
:200ACE0011E53B24FEFE8E3B8E018705098706198D078F821208CE020C3FE53B24FDFE8E7D
:200AEE003B8E01870309870509870619198B2E8D2F8E308B828D838EF0C004120E81AD82D5
:200B0E00AE83D004BCFF028D0420012AC3ED953D5024E53DC39DF53DAE3D8E031EEB601486
:200B2E00758220C006C005C0041208CED004D005D00680E68E3D8C06852E82852F838530F6
:200B4E00F0120E99FCFF602F8E041EC374808CF063F08095F050208F82C006C0051208CE25
:200B6E00D005D006AA2EAB2FAC300ABA00010B8A2E8B2F8C3080C1200103020C3FC3ED9539
:200B8E003D4003020C3FE53DC39DF53DAE3D8E041EEC7003020C3D758220C0061208CED0EC
:200BAE000680EBE53B24FDFC8C3B8C01870209870309870419198A2E8B2F8C30AC30BC80FD
:200BCE000040047F438014BC600040047F50800BBC400040047F4980027F588F82C0071268
:200BEE0008CE75823A1208CE7582301208CE7582781208CED007BF4902800BBF500280068F
:200C0E00852F8212090A852E8212090A8023D205753C0A801C753C088017753C0A8012752E
:200C2E003C10800DD20880098F821208CE80028E3D30085CE53B24FCFE8E3B8E0187020968
:200C4E0087030987040987061919198A2E8B2F8C308E31752E87752F0F753080852E408520
:200C6E002F4185304274012540FAE43541FCAE428A2E8C2F8E308540828541838542F0125B
:200C8E000E99FEFF700302098B8F821208CE80CCE53C700302098B753E4E30062DE53B1492
:200CAE00FC8C3B8C01E7FA3395E0FBFCFE8A2E8B2F8C308E31200566AA2E7B007C007E0093
:200CCE008A2E8B2F8C308E318054300721E53B24FCFE8E3B8E018702098703098704098717
:200CEE00061919198A2E8B2F8C308E318030E53B24FEFE8E3B8E01870409870619EE339570
:200D0E00E0FBFA8C2E8E2F8B308A31200510AA2EAB2F7C007E008A2E8B2F8C308E31300500
:200D2E0022E53130E71BC3E4952EFAE4952FFBE49530FCE49531FE8A2E8B2F8C308E31807A
:200D4E0002C205D209A93E7E00753200853C82C006C001120921D001D00620090BE532C419
:200D6E00FCE7FB4CF7198002A7320EB209E52E452F4530453170D2893E8E05E53D700375EF
:200D8E003D01200224200121ED04FEAC3DC3EE9C5015758220C006C005C0041208CED004D3
:200DAE00D005D0061C80E68C3D30050E75822DC0051208CED005153D8023ED602030030EA3
:200DCE0075822BC0051208CED005153D800F30040C758220C0051208CED005153D20012212
:200DEE00AE3D8E041EC3ED9C502B3002047C3080027C208C82C006C0051208CED005D00657
:200E0E0080E0C3ED953D5008E53DC39DF53D8007753D0080028E3DA93E8D068E051EED60D8
:200E2E0026B20920090A09E7C4540FFD8D3280078705740F5DF532853282C006C0011208C9
:200E4E00F1D001D00680D420010302098BAE3D8E051EED700302098B758220C0061208CE87
:130E6E00D00680EB8F821208CE02098B8533828534832209
:0B0F87003C4E4F20464C4F41543E00B2
:180E8100AA82AB83120E996003A380F8C3E5829AF582E5839BF58322F0
:0D00510075814E120EB5E582600302004E6F
:1C0E990020F71430F6148883A88220F507E6A88375830022E280F7E49322E02268
:040EB5007582002220
:00000001FF
