:040000000200513277
:01000B0032C2
:0100130032BA
:01001B0032B2
:0100230032AA
:01002B0032A2
:01003300329A
:01003B003292
:01004300328A
:03004B000207ABFE
:2000AA00E4F539F53A753B80753C3FF53DF53EF53FF540F541F542F543F544F5457546C86C
:1A00CA0075470AF548F549F54AF54BF54CF54DF54EF551F552F55302004E71
:03004E000205BAEE
:2000E40075B1677E007F011EBEFF011FEE4F70F7E5B130E7FB75B288227598507589207569
:200104008DDCD28E438E10438780D29943A4012275FFDE75FFAD1200E41200FD43E104438F
:20012400E34022AF8210990280FB8F992210980280FB85998212012785998222C015858139
:2001440015E51524FBF886820886830886F0121A94E5828583F045F070028062E51524FB1D
:20016400FF8F11E51524FBF8860E08860F08861090000175F0001212BD90000175F000121D
:200184001A94AE827F00C3EF9E501FEF2401F582E43400F583E0FDBD0A0DEF2401F582E404
:2001A4003400F583740DF00F80DC752901752A00752B007528008E2C7582C6120456D01570
:2001C4002275230074C025234017752E23752F00753040752D007531017582C61204CC80D7
:2001E400E375240C752924752A00752B40752800752C017582C612045622752E26752F003B
:20020400753040752D017531027582C61204CC74FFB52605758200805F7F008F068EF0054B
:20022400F07C017D008006EC2CFCED33FDD5F0F7AA267B00EA5204EB5205EC4D600774314B
:200244002FF58280330E8E07BE080040D0E52730E0057582398021E52730E10575822A8013
:2002640017E52730E205758230800DE52730E30575822380037582FF22AF82E4FDFEEF7044
:200284001DC006C00574B3C0E0741BC0E07480C0E0120140158115811581D005D006C006A2
:2002A400C0057408C0E0E4C0E07408C0E0E4C0E07408C0E0E4C0E07408C0E0E4C0E0740879
:2002C400C0E0E4C0E074C9C0E0741BC0E07480C0E0120140E58124F3F58190A12075F00753
:2002E400E41203F1D005D0067F00C007C006C0051201FEAC82D005D006D0078C03BCFF0287
:200304008003BB2A17902710E4F5F0C007C006C0051203F1D005D006D00780CEBB232AC0DA
:2003240006C0051201FEAC82D005D006BC2313902710E4F5F0C006C0051203F1D005D00646
:2003440080DD8D828E830203F0EBFA3395E0FCC007C006C005C004C003C002C002C0047409
:20036400D9C0E0741BC0E07480C0E0120140E58124FBF581D002D003D004D005D0068D1727
:200384008E1890000AC004C003C002121230A882A983D002D003D004D007EA28F8EC39F9AE
:2003A400E824D0FDE934FFFEC007C006C005C0031201FEAC82D003D005D006D007ECB503F9
:2003C4001B902710E4F5F0C007C006C005C0031203F1D003D005D006D00780CC0FC3EF648D
:2003E40080948550030202EE8D828E8322AC82AD83AEF0FF780079007A007B00C3E89CE9C8
:200404009DEA9EEB9F500F08B8000909B900050ABA00E90B80E62220C7FDD2C530C3FDC2CD
:20042400C5C2C3228582C210C30280FB228582C2D2C410C30280FB2230C3FD85C282C2C302
:200444002230C3FDAFC2C2C3D2C410C30280FB8F8222AF82C00712041BD00774FE5FF5822F
:200464001204288528821204287F00AD2C7E001DBDFF011E8F037C00C3EB9DEC64808EF058
:2004840063F08095F0501FEF2529FCE4352AFDAE2B8C828D838EF0121AACF582C007120477
:2004A40028D0070F80C5AE2C7F001EBEFF011FEE2529FEEF352AFFAD2B8E828F838DF01281
:2004C4001AACF58212043122AF82C00712041BD0078F0674FE5EF582C007120428852D825D
:2004E40012043112041BD00774014FF5821204287F00AD317E001DBDFF011E8F037C00C38C
:20050400EB9DEC64808EF063F08095F0502ED2C2EF252EFCE4352FFDAE30C007C006C005E4
:20052400C00412043CAB82D004D005D006D0078C828D838EF0EB1211E50F80B6C2C2AE31E7
:200544007F001EBEFF011FEE252EFEEF352FFFAD30C007C006C005120445AC82D005D00629
:20056400D0078E828F838DF0EC1211E522753223752932752A00752B40752820752C0175FE
:200584008230120456753200752932752A00752B40752821752C01758230120456753200A9
:2005A400752932752A00752B40752822752C017582301204562212011412077112078F1267
:2005C40007981207F71207A575820D12012774DCC0E0741BC0E07480C0E012149E1581154A
:2005E40081158175EA3775FAF575EC3775FCF5E4F533F534C3E5339401E534940040F574ED
:20060400E5C0E0741BC0E07480C0E012149E1581158115811208171208AA7406C0E0741C69
:20062400C0E07480C0E012149E15811581158130B60302075530B703020755E5416038753A
:2006440041001209F685824485834574FFB5440774FFB54502801BC3E5449412E5459400DF
:20066400500875EC3775FCF5800D75EC1B75FCF38005E4F548F54975820512080185824D64
:20068400121AC8AC82AD83AEF0FFC004C005C006C007904DB475F067743D12106EAC82ADD8
:2006A40083AEF0FFE58124FCF5818C828D838EF0EF121AD385824EE540600F7540001209D7
:2006C400D0858242858343120AC17414B55102800302063375170A751800854282854383D0
:2006E400120BC4AE82AF83C006C0077431C0E0741CC0E07480C0E012149EE58124FBF5815E
:20070400C035C036743FC0E0741CC0E07480C0E012149EE58124FBF581C052C053744FC06C
:20072400E0741CC0E07480C0E012149EE58124FBF581C046C0477463C0E0741CC0E07480AA
:20074400C0E012149EE58124FBF58175510002063320B60620B70302063375EA3775FAF54A
:2007640075EC3775FCF51208AA0206332275E12753BDDF43A50553A5DFAF9074204FF5907F
:2007840053A77FAFB074804FF5B02243A80243E608D2AF2275D98175DAC275DCC275D84032
:2007A4002275CF93D2C622C0E0C0D010DF02803E0535E4B53502053675E90075F970C374EB
:2007C400329535E4953650080533E4B533020534053D74F8253D5006754001753D000551AF
:2007E400053E74F4253E5006754101753E00D0D0D0E03275D10375AA8043AB01228582ACF9
:20080400AFAA74DF5FF5AA43AA10E5AA30E5FB859C8222747DC0E0741CC0E07480C0E01262
:20082400149E158115811581749FC0E0741CC0E07480C0E012149E15811581158174E3C02C
:20084400E0741CC0E07480C0E012149E158115811581120131AF82BF750B74322537F53788
:20086400E43538F538BF640CE53724CEF537E53834FFF538BF6602802CC3E5379410E5389D
:20088400940E400675371075380EC037C03874F8C0E0741CC0E07480C0E012149EE58124E8
:2008A400FBF58180AD22740EC0E0741DC0E07480C0E012149E1581158115817436C0E07449
:2008C4001DC0E07480C0E012149E158115811581746EC0E0741DC0E07480C0E012149E151D
:2008E4008115811581120131AF82BF7530C00774CDC0E014C0E0C0E0743DC0E0853982855C
:200904003A83853BF0E53C12134885823985833A85F03BF53CE58124FCF581D007BF64304F
:20092400C00774CDC0E014C0E0C0E0743DC0E0853982853A83853BF0E53C120BB9858239FD
:2009440085833A85F03BF53CE58124FCF581D007BF66028076E4C0E0C0E07438C0E074415B
:20096400C0E0853982853A83853BF0E53C121200AF82E58124FCF581EF700AF539F53A75F4
:200984003B38753C41E4C0E0C0E0C0E0C0E0853982853A83853BF0E53C1211B5AF82E581C8
:2009A40024FCF581EF7008F539F53AF53BF53CC039C03AC03BC03C7482C0E0741DC0E012B5
:2009C4000BEDE58124FAF5810208E922752E54752F00753040752D027531027582C0120473
:2009E400CCAF547E00AC557D00EC4EF582ED4FF58322752E4F752F00753040752D027531DC
:200A0400027582E01204CCAF4F7E00AC507D00EC4206ED4207754F5175294F752A00752B77
:200A240040752800752C017582E0C007C006120456D006D0078E828F8322AE82AF838E176B
:200A44008F1890000AC007C006121230AC82AD83D006D007C007C006C005C004120131AB60
:200A640082D004D005D006D007BB63048C068D07BB691FA9567A00E92EFEEA3FFFC3E5575A
:200A84009EE55864808FF063F08095F05004AE57AF58BB6420A9567A00EEC399FEEF9AFFD4
:200AA400C3EE9559EF6480855AF063F08095F05004AE59AF5ABB759C8E828F8322E537C346
:200AC4009542F552E5389543F553C3E55294F8E55364809478500C74102552F552740E35B4
:200AE40053F553C37408955274878553F063F08095F0500CE55224F0F552E55334F1F55383
:200B0400C374379544E495455007E4F548F549801F7437C39544F517E49545F518AE4C7FE0
:200B2400008E828F83121230AE82AF838E488F498552828553831213EAAC82AD83AEF0FF6D
:200B4400C004C005C006C007853982853A83853BF0E53C12106EAC82AD83AEF0FFE5812413
:200B6400FCF5818C828D838EF0EF1213F7E5828583F024C8FE740A35F0FFEEC39548F546A4
:200B8400EF9549F547C3E5469434E54794085006754634754708C374489546740D954750BA
:150BA4000675464875470D74FFC39546F5EA74FF9547F5FA221A
:201BB3000A54797065206469676974733B20656E6420772F23002020202020256325632572
:201BD3006325632563002563000A53746172740D0A000A0D506C6561736520696E70757407
:201BF3002064617461206F6E20746865204C43442E0A000A0D2D2D2D2D2D2D2D2D2D2D2D89
:201C13002D4441544120434F4C4C454354494F4E2D2D2D2D2D2D2D2D2D2D2D2D0A000D48E3
:201C3300656164696E673A2025750A000D4F766572666C6F77733A2025750A000D4865613E
:201C530064696E67204572726F723A2025640A000D5374656572696E672050756C736577CA
:201C7300696474683A2025750A000D506C6561736520656E746572206120646573697265E8
:201C9300642068656164696E672E0A000D2775272077696C6C20696E6372656D656E7420F8
:201CB3006279203520646567726565732E202764272077696C6C2064656372656D656E7433
:201CD300206279203520646567726565732E0A000D276627207768656E2066696E69736836
:201CF30065642E0A000D446573697265642068656164696E673A2025750A000D506C656186
:201D130073652073656C6563742061206465736972656420636F6D70617373206761696EE2
:201D33002E0A000D2775272077696C6C20696E6372656D656E7420627920302E312E2027AC
:201D530064272077696C6C2064656372656D656E7420627920302E312E0A000D2766272073
:201D73007768656E2066696E69736865640A000D4465736972656420636F6D706173732027
:0D1D93006761696E3A2025322E31660A0024
:0B0BB900A8811818C6B2E7C602134856
:200BC4007A10E4FBFCE58225E0F582E58333F583EB33FBEC33FCEB9517F5F0EC9518400627
:090BE400FCABF0438201DADD22D2
:200BED00C015858115E51524FDF8868318868218E493A3B42577C200C201C202C203C20466
:200C0D00C20579087700C206E493A324C64017240A50157005B50802D205D204FAE775F02B
:200C2D000AA42AF780E2240A2430B46C04D20080D7B46804D20180D0B47303020C85B4648F
:200C4D0006120F5F020CE1B47506120F5F020D01B4630518E6188017B47803020CC0B46673
:200C6D0003020E15B42E0679097700809B6006121051020BFD02106BC083C08286F018864A
:200C8D008318868218300419C205C082C083121AAC6007A31508E50870F412103CD083D022
:200CAD0082121AAC6006A312105180F5D082D083020BFD120CD820010C120CD830000612CC
:200CCD000CD8120CD8121063020BFDE6121041E618021042ED30E71CD203E9F42401F920F3
:200CED000112EAF43400FA30000AEBF43400FBECF43400FC200110300008EB7024EC70210B
:200D0D00C200EA701CD201E97017200614300409E5086005150812103C7430121051020BE3
:200D2D00FDC082C083120F79300460790A30001DEB54F0703619EB540F703019EA54F07093
:200D4D002A19EA540F702419EF54F0701E790520010BEF540F701419EE54F0700E7903EED5
:200D6D00540F700719ED54F0700119E508A203994019F508C003C002C007C006C00512103E
:200D8D003CD005D006D007D002D003300319C003C002C007C006C005742D121051D005D007
:200DAD0006D007D002D00320014030002CC005C006C0078A82EBF583121041E583121042F7
:200DCD00E582121041E582121042D0E0F582121041E582D083D08280058D828E83EF121025
:200DED0042E583121041E58380038D82EE121042E582121041E582121042121063D083D050
:200E0D008230060122020BFD30040EE508D39509F50850287508008023E6547FFA18860357
:200E2D0008AE82AF83901F6C7D07E4932BA3E4933A5003A3DDF48D098E828F83C000120F46
:200E4D0041C082C083EFB47E02801940112482FDC3EA33FAEB33FBEC33FCDDF48006F42492
:200E6D007F12113F75F01BE4F8FFFEFD901F00E933F9EA33FAEB33FBEC33FC5017E4932D14
:200E8D00D4FD7401933ED4FE7402933FD4FF74039338D4F8A3A3A3A3D5F0D4E47C50FBFA69
:200EAD00F9E509232354FC888312113FED29D4F50DEE3AD4F50CEF3BD4F50BE5833CD4F5E7
:200ECD000A92D5D083D082D000120F41C000C3749E9F5005D000020C15C08212113FD0824B
:200EED0030D50FE92401F9E43AFAE43BFBE43CFC40E2D206120D0120040CE5096008120FBB
:200F0D00317003D509F4E5096015742E1210517800D20208E8120F31121042E8B509F4D07A
:200F2D0000020BFD14C31392D5240AF9E720D501C4540F22E618F9E618FC33E9339203FF28
:200F4D006003430480E618FBE618FA7900C201D20022E6F9FD18200112AA01E6F918300040
:200F6D000AAC02AB01E6FA18E6F91822E975F06484FE740AC5F084C445F0FD30010122EAD0
:200F8D00540FF9901DA0932DD4FDE94410933ED4FEEAC4540FF9901DC0932DD4FDE94410E5
:200FAD00933ED4FEE94420933400D4FF20000122EB540FF9901DF0932DD4FDE94410933ED4
:200FCD00D4FEE94420933FD4FFE43400FAEBC4540FF9901E20932DD4FDE94410933ED4FEE4
:200FED00E94420933FD4FFE94430933AD4FAEC540FF9901E607B0012100FECC4540FF9905C
:20100D001EB0932DD4FDE94410933ED4FEE94420933FD4FFE94430933AD4FAE94440933B5F
:20102D00D4FB22742030050274301210511508E50870F022C4540F7003300219D2022490D7
:20104D00D43440D4C083C082C000F582120127D000D082D083222002FC7430021051D015D0
:01106D002260
:201DA00000561268248036924804601672288440000205071012151720232528303335380B
:201DC000009692888480767268646056524844400040812263044586276809509132731480
:201DE00000000001010202020303040404050506003672084480165288246096326804405D
:201E00000055106621763287429853086419753000061319263239455258657278859198A1
:201E2000007652280480563208846036128864400085715743281400867157432914008626
:201E4000000409141924293438434853586368720001020304050607080910111213141580
:201E6000001632486480961228446076920824400072441688603205774921936538108278
:201E80000077553310886644219977543210886500163350678300173450678401183451A6
:201EA0000000000000000101010101010202020200561268248036924804601672288440B8
:201EC0000054096318722781369145005409631800438730741761044891357922660953D7
:201EE0000068360573421079471584522189582600020508101316182124262932343740D6
:201F00000000005000000025000050120000250600501203002556015012780025063900A0
:201F20001253190056760900288804001444020007220100046100005230000026150000F4
:201F40006307000081030000910100009500000048000000240000001200000006000000E8
:1A1F60000300000001000000010000007DC5DDC334C2E0BE38BD86BBE4B919
:20106E00121111BC000302144CEF60FA30D502B2D1E583B4FF03021462E582B4FF03021471
:20108E0062258340072482400B02144C2483145003021462F582EA8DF0A4A8F0EA8EF0A4F2
:2010AE0028F8E435F0F9EB8DF0A428E935F0F9E433CA8FF0A429F9EA35F0FAEBF88EF0A491
:2010CE0029F9EA35F0FAE433FBEC8DF0A429F9EA35F0FAE43BFBE88FF0A42AFAEB35F0FB39
:2010EE00E433CCFD8EF0A42AFAEB35F0FBE43CFCED8FF0A42BFBEC35F0FC20E703121182A3
:03110E0002142B9D
:20111100AA82AB83A2F73392D1F5826002D2F7ACF0E58124F9F8E6FD08E6FE0886F008E641
:0E113100A2F73392D5F5836002D2F7AFF02219
:06008000E478FFF6D8FD54
:20113F006040F82582500274FFF582E824F8501ECCCBCAF9E4CC24F85014CBCAF9E4CB24B8
:20115F00F8500BCAF9E4CA24F8500379002224086010F8C3EC13FCEB13FBEA13FAE913F96B
:03117F00D8F12282
:201182007804EC7011E58224F8500AF582E4C9CACBFCD8EF22EC7820058220E713D582016C
:1311A20022C3E933F9EA33FAEB33FBEC33FCD8EA1582227A
:20005E007900E94400601B7A00901F85785175AF00E493F2A308B8000205AFD9F4DAF27536
:02007E00AFFFD2
:2011B500FFA88118181213BFD2D133E6400730E70B7582012220E70675820022C2D11213C1
:1011D500A1E97003F5822230D101B3E433F582220F
:1B11E50020F71130F6138883A88220F509F6A8837583002280FEF280F5F02209
:20120000FFA88118181213BFD2D133E6400730E70B7582002220E70675820122C2D1121375
:10122000A1E97003F5822220D101B3E433F58222D3
:1D123000E5828517F0A4C582C0F08518F0A4D0F025F0C5838517F0A42583F5832253
:20124D00C015858115C082058105810581E51524FBF8A9150909E6F70809E6F70809E6F723
:20126D00A815080886820886830886F0121AACFAA3121AACFBA3121AACFF74012AFCE43B81
:20128D00FD8F06A815080886820886830886F0EC1211E5A3ED1211E5A3EE1211E58A828B8F
:2012AD00838FF0A81508E61211E5851581D0152285821285831385F014756712756800754D
:2012CD006940850E6A850F6B85106C85116D90124D121570AE82AF83AB12AC13AD148B8226
:2012ED008C838DF0E41211E58E828F8322C015858115E51524F8FF8F6DE51524FBFF8F6716
:20130D00756800756940E51524F8F8866A08866B08866C90124D121570AE82AF83E51524CE
:1B132D00FBF886030886040886058B828C838DF0E41211E58E828F83D0152256
:200086007800E84400600A790175AF00E4F309D8FC7850E84400600C7901900001E4F0A318
:0400A600D8FCD9FAAF
:201348001211117900E583B58202800D5003121A7AE583C3958212113FE5D0C465D020E15E
:2013680017EA2DFAEB3EFBEC3FFC5009740112113FEC4480FC02142BC3EA9DFAEB9EFBEC21
:191388009FFC500FC3E499F9E49AFAE49BFBE49CFCB2D112118202142B42
:2013A1007901AA82E68F82B5821318E6B5F00E18E6B5830918E68A82B58202790022B48043
:2013C1000FE5F0700AE5837006E58270027F00EFB6801518B6001018B6000B18B6000608AB
:0913E10008087600220808082221
:0D13EA00AC83AB827A007900748E021AE4A5
:2013F700121B1B700AE582458345F0700122E430D112F4700BE5F0F47006E58330E70122D6
:1414170090800022700AE5F07006E58320E70122907FFF2208
:20142B00B98003EA13B34010EA2401FAE43BFBE43CFC50047C800582BC000EBB000BBA0005
:20144B0008E4F5F0F583F58222A2D1E582138CF092F78B838A8222E4F583F58275F080F4C5
:0F146B00A2D11322E4F583F58275F0C0747F22BD
:20147A00C015858115120127D0152285826A85836B85F06CE4F567F568F56985166D9014B5
:20149A007A021570C015858115E51524FBFF8F6DE4F567F568F569E51524FBF8866A0886A3
:0D14BA006B08866C90147A121570D0152204
:2014C700AF82C05DC05EC05F1214D48007C05BC05C8F82221581158115810565E4B5650263
:2014E700056622AF8274302FFF24C6500A74072FFF3007034307208F820214C7E582FFC4AC
:20150700540FF582C0071214EAD007740F5FF5820214EA85821785601885611985621A8543
:20152700631BAA64751C20EA2AFAE51B235401FF8A064EFAE5182518F518E51933F519E59F
:201547001A33F51AE51B33F51BC3EA95174008EAC39517FA431801D51CCD851860851961DB
:20156700851A62851B638A642285825B85835C85675D85685E85695FE4F565F566AD6AAE4B
:201587006BAF6C8D828E838FF0121AACFC74012DF56AE43EF56B8F6CECFF7003021A73BF21
:2015A70025028003021A6BC208C209C20AC20BC20CC20DC20EC20F756E00756F007CFFAA9B
:2015C7006AAB6BAE6C8A828B838EF0121AACFFA3AA82AB838A6A8B6B8E6CBF25078F82120C
:2015E70014C780998F7174D025715026E57124C64020BCFF12E56F75F00AA4FD2F24D0F5B7
:201607006F70C2D20980BEEC75F00AA42F24D0FC80B3BF2E07BCFFAD7C0080A98F05BD6105
:2016270000400CED248540075307DFD2078002C207BF2002806DBF2B028063BF2D028059B9
:20164700BF42028063BF43028068BF4403021815BF460302182BBF48030215CCBF49030235
:201667001815BF4A030215CCBF4C028040BF4F0302181CBF50030217AABF5302805CBF545B
:20168700030215CCBF5503021821BF5803021826BF5A030215CC02182FD2080215CCD20AD0
:2016A7000215CCD20B0215CCD20D0215CCD20E0215CC300D0CE56D14FE8E6D8E01870780B6
:2016C70011E56D24FEFE8E6D8E018705098706198D078F821214C7021838E56D24FDFE8ED8
:2016E7006D8E01870309870509870619198B608D618E628B828D838EF0C004121A94AD82E9
:20170700AE83D004BCFF028D0420082AC3ED956F5024E56FC39DF56FAE6F8E031EEB6014B2
:20172700758220C006C005C0041214C7D004D005D00680E68E6F8C06856082856183856224
:20174700F0121AACFCFF602F8E041EC374808CF063F08095F050208F82C006C0051214C7FC
:20176700D005D006AA60AB61AC620ABA00010B8A608B618C6280C1200803021838C3ED95FC
:201787006F4003021838E56FC39DF56FAE6F8E041EEC7003021836758220C0061214C7D010
:2017A7000680EBE56D24FDFC8C6D8C01870209870309870419198A608B618C62AC62BC80CC
:2017C7000040047F438014BC600040047F50800BBC400040047F4980027F588F82C0071263
:2017E70014C775823A1214C77582301214C77582781214C7D007BF4902800BBF5002800676
:201807008561821215038560821215038023D20C756E0A801C756E088017756E0A8012751E
:201827006E10800DD20F80098F821214C780028E6F300F5CE56D24FCFE8E6D8E0187020988
:2018470087030987040987061919198A608B618C628E6375607A75611F7562808560728556
:20186700617385627474012572FAE43573FCAE748A608C618E628572828573838574F012CC
:201887001AACFEFF70030215848F821214C780CCE56E700302158475707A300D2DE56D1496
:2018A700FC8C6D8C01E7FA3395E0FBFCFE8A608B618C628E63200C66AA607B007C007E005B
:2018C7008A608B618C628E638054300E21E56D24FCFE8E6D8E0187020987030987040987DF
:2018E700061919198A608B618C628E638030E56D24FEFE8E6D8E01870409870619EE33953F
:20190700E0FBFA8C608E618B628A63200C10AA60AB617C007E008A608B618C628E63300CF9
:2019270022E56330E71BC3E49560FAE49561FBE49562FCE49563FE8A608B618C628E6380B3
:2019470002C20CD210A9707E00756400856E82C006C00112151AD001D00620100BE564C432
:20196700FCE7FB4CF7198002A7640EB210E56045614562456370D289708E05E56F70037585
:201987006F01200924200821ED04FEAC6FC3EE9C5015758220C006C005C0041214C7D00457
:2019A700D005D0061C80E68C6F300C0E75822DC0051214C7D005156F8023ED6020300A0E27
:2019C70075822BC0051214C7D005156F800F300B0C758220C0051214C7D005156F20082291
:2019E700AE6F8E041EC3ED9C502B3009047C3080027C208C82C006C0051214C7D005D00614
:201A070080E0C3ED956F5008E56FC39DF56F8007756F0080028E6FA9708D068E051EED60A7
:201A270026B21020100A09E7C4540FFD8D6480078705740F5DF564856482C006C001121414
:201A4700EAD001D00680D4200803021584AE6F8E051EED7003021584758220C0061214C741
:131A6700D00680EB8F821214C70215848565828566832296
:0B1F7A003C4E4F20464C4F41543E00AF
:1A1A7A00E582C583F582A2D133A2D592D11392D5ECCFFCEBCEFBEACDFA22F4
:181A9400AA82AB83121AAC6003A380F8C3E5829AF582E5839BF58322B2
:0D00510075817A121B76E582600302004E75
:1C1AAC0020F71430F6148883A88220F507E6A88375830022E280F7E49322E02249
:0B1AC800E4AC82FBFAF97486021B11EB
:081AD3007F86121B8EF58222B2
:201ADB00FCABF0AA83A982749EF582C2D1EC30E716D2D1E9F42401F9EAF43400FAEBF4340A
:0D1AFB0000FBECF43400FC12118202142BED
:131B0800FCABF0AA83A982749EC2D1F58212118202142BD9
:201B1B00121B7AC3749E95824039790012113F30D126E9F42401F582EAF43400F583EBF4BA
:201B3B003400F5F0ECF43400700AE582458345F0700122E430E70F22EC20E71489828A83A1
:1B1B5B008BF02230D10AE4F582F583F5F074802274FFF582F583F5F0747F229D
:041B76007582002252
:121B7A00AA82AB83A2F73392D1F5826002D2F7ACF02270
:201B8C007F9E121B7A30D10302144CC3EF9582500974FFF5F0F583F58222790012113F8920
:071BAC00828A838BF0EC221A
:00000001FF
