:040000000200513277
:01000B0032C2
:0100130032BA
:01001B0032B2
:0100230032AA
:01002B0032A2
:01003300329A
:01003B003292
:01004300328A
:03004B000207B0F9
:2000AA00E4F539F53A753B80753C3FF53DF53EF53FF540F541F542F543F544F5457546C86C
:1B00CA0075470AF548F549F54AF54B754C1EF54DF54EF551F552F55302004ED2
:03004E000205BBED
:2000E50075B1677E007F011EBEFF011FEE4F70F7E5B130E7FB75B288227598507589207568
:200105008DDCD28E438E10438780D29943A4012275FFDE75FFAD1200E51200FE43E104438C
:20012500E34022AF8210990280FB8F992210980280FB85998212012885998222C015858137
:2001450015E51524FBF886820886830886F0121A98E5828583F045F070028062E51524FB18
:20016500FF8F11E51524FBF8860E08860F08861090000175F0001212C190000175F0001218
:200185001A98AE827F00C3EF9E501FEF2401F582E43400F583E0FDBD0A0DEF2401F582E4FF
:2001A5003400F583740DF00F80DC752901752A00752B007528008E2C7582C6120457D0156E
:2001C5002275230074C025234017752E23752F00753040752D007531017582C61204CD80D5
:2001E500E375240C752924752A00752B40752800752C017582C612045722752E26752F0039
:20020500753040752D017531027582C61204CD74FFB52605758200805F7F008F068EF00549
:20022500F07C017D008006EC2CFCED33FDD5F0F7AA267B00EA5204EB5205EC4D600774314A
:200245002FF58280330E8E07BE080040D0E52730E0057582398021E52730E10575822A8012
:2002650017E52730E205758230800DE52730E30575822380037582FF22AF82E4FDFEEF7043
:200285001DC006C00574B7C0E0741BC0E07480C0E0120141158115811581D005D006C0069C
:2002A500C0057408C0E0E4C0E07408C0E0E4C0E07408C0E0E4C0E07408C0E0E4C0E0740878
:2002C500C0E0E4C0E074CDC0E0741BC0E07480C0E0120141E58124F3F58190A12075F0074D
:2002E500E41203F2D005D0067F00C007C006C0051201FFAC82D005D006D0078C03BCFF0284
:200305008003BB2A17902710E4F5F0C007C006C0051203F2D005D006D00780CEBB232AC0D8
:2003250006C0051201FFAC82D005D006BC2313902710E4F5F0C006C0051203F2D005D00643
:2003450080DD8D828E830203F1EBFA3395E0FCC007C006C005C004C003C002C002C0047407
:20036500DDC0E0741BC0E07480C0E0120141E58124FBF581D002D003D004D005D0068D1721
:200385008E1890000AC004C003C002121234A882A983D002D003D004D007EA28F8EC39F9A9
:2003A500E824D0FDE934FFFEC007C006C005C0031201FFAC82D003D005D006D007ECB503F7
:2003C5001B902710E4F5F0C007C006C005C0031203F2D003D005D006D00780CC0FC3EF648B
:2003E50080948550030202EF8D828E8322AC82AD83AEF0FF780079007A007B00C3E89CE9C6
:200405009DEA9EEB9F500F08B8000909B900050ABA00E90B80E62220C7FDD2C530C3FDC2CC
:20042500C5C2C3228582C210C30280FB228582C2D2C410C30280FB2230C3FD85C282C2C301
:200445002230C3FDAFC2C2C3D2C410C30280FB8F8222AF82C00712041CD00774FE5FF5822D
:200465001204298528821204297F00AD2C7E001DBDFF011E8F037C00C3EB9DEC64808EF055
:2004850063F08095F0501FEF2529FCE4352AFDAE2B8C828D838EF0121AB0F582C007120472
:2004A50029D0070F80C5AE2C7F001EBEFF011FEE2529FEEF352AFFAD2B8E828F838DF0127F
:2004C5001AB0F58212043222AF82C00712041CD0078F0674FE5EF582C007120429852D8255
:2004E50012043212041CD00774014FF5821204297F00AD317E001DBDFF011E8F037C00C388
:20050500EB9DEC64808EF063F08095F0502ED2C2EF252EFCE4352FFDAE30C007C006C005E3
:20052500C00412043DAB82D004D005D006D0078C828D838EF0EB1211E90F80B6C2C2AE31E1
:200545007F001EBEFF011FEE252EFEEF352FFFAD30C007C006C005120446AC82D005D00627
:20056500D0078E828F838DF0EC1211E922753223752932752A00752B40752820752C0175F9
:200585008230120457753200752932752A00752B40752821752C01758230120457753200A6
:2005A500752932752A00752B40752822752C0175823012045722120115120776120794125A
:2005C500079D1207FC1207AA75820D12012874E0C0E0741BC0E07480C0E01214A215811531
:2005E50081158175EA3775FAF575EC3775FCF5E4F533F534C3E5339401E534940040F574EC
:20060500E9C0E0741BC0E07480C0E01214A215811581158112081C1208AF740AC0E0741C52
:20062500C0E07480C0E01214A215811581158130B60302075A30B70302075AE5416038752B
:2006450041001209FA85824485834574FFB5440774FFB54502801BC3E544940FE5459400DD
:20066500500875EC3775FCF5800D75EC4775FCF48005E4F548F54975820512080685824D31
:20068500121ACCAC82AD83AEF0FFC004C005C006C007904DB475F067743D121072AC82ADCF
:2006A50083AEF0FFE58124FCF5818C828D838EF0EF121AD785824EE540600F7540001209D2
:2006C500D4858242858343120AC57414B551028003020634C044C0457435C0E0741CC0E0FB
:2006E5007480C0E01214A2E58124FBF58175170A751800854282854383120BC8AE82AF83A0
:20070500C006C0077441C0E0741CC0E07480C0E01214A2E58124FBF581AE4E7F00C006C06A
:2007250007744FC0E0741CC0E07480C0E01214A2E58124FBF581C046C047745DC0E0741CB5
:20074500C0E07480C0E01214A2E58124FBF58175510002063420B60620B70302063475EA4A
:200765003775FAF575EC3775FCF51208AF0206342275E12753BDDF43A50553A5DFAF9074D1
:20078500204FF59053A77FAFB074804FF5B02243A80243E608D2AF2275D98175DAC275DC8C
:2007A500C275D8402275CF93D2C622C0E0C0D010DF02803E0535E4B53502053675E900753B
:2007C500F970C374329535E4953650080533E4B533020534053D74FE253D5006754001759B
:2007E5003D000551053E74FC253E5006754101753E00D0D0D0E03275D10375AA8043AB0132
:20080500228582ACAFAA74DF5FF5AA43AA10E5AA30E5FB859C82227477C0E0741CC0E074C4
:2008250080C0E01214A21581158115817499C0E0741CC0E07480C0E01214A215811581158F
:200845008174DDC0E0741CC0E07480C0E01214A2158115811581120132AF82BF750B743278
:200865002537F537E43538F538BF640CE53724CEF537E53834FFF538BF6602802CC3E537D5
:200885009410E538940E400675371075380EC037C03874F2C0E0741CC0E07480C0E0121454
:2008A500A2E58124FBF58180AD227408C0E0741DC0E07480C0E01214A21581158115817468
:2008C50030C0E0741DC0E07480C0E01214A21581158115817468C0E0741DC0E07480C0E0B3
:2008E5001214A2158115811581120132AF82BF7530C00774CDC0E014C0E0C0E0743DC0E042
:20090500853982853A83853BF0E53C12134C85823985833A85F03BF53CE58124FCF581D0DF
:2009250007BF6430C00774CDC0E014C0E0C0E0743DC0E0853982853A83853BF0E53C120B9B
:20094500BD85823985833A85F03BF53CE58124FCF581D007BF66028075E4C0E0C0E074C02B
:20096500C0E0F4C0E0853982853A83853BF0E53C121204AF82E58124FCF581EF700AF539FF
:20098500F53A753BC0753C3FE4C0E0C0E0C0E0C0E0853982853A83853BF0E53C1211B9AF81
:2009A50082E58124FCF581EF7008F539F53AF53BF53CC039C03AC03BC03C747CC0E0741D84
:2009C500C0E0120BF1E58124FAF5810208EE22752E54752F00753040752D0275310275828D
:2009E500C01204CDAF547E00AC557D00EC4EF582ED4FF58322752E4F752F00753040752DAC
:200A0500027531027582E01204CDAF4F7E00AC507D00EC4206ED4207754F5175294F752A6D
:200A250000752B40752800752C017582E0C007C006120457D006D0078E828F8322AE82AFF1
:200A4500838E178F1890000AC007C006121234AC82AD83D006D007C007C006C005C0041210
:200A65000132AB82D004D005D006D007BB63048C068D07BB691FA9567A00E92EFEEA3FFF7A
:200A8500C3E5579EE55864808FF063F08095F05004AE57AF58BB6420A9567A00EEC399FE5C
:200AA500EF9AFFC3EE9559EF6480855AF063F08095F05004AE59AF5ABB759C8E828F83229C
:200AC500E537C39542F552E5389543F553C3E55294F8E55364809478500C74102552F5528B
:200AE500740E3553F553C37408955274878553F063F08095F0500CE55224F0F552E5533404
:200B0500F1F553C374379544E495455007E4F548F549801F7437C39544F517E49545F5181F
:200B2500AE4C7F008E828F83121234AE82AF838E488F498552828553831213EEAC82AD8388
:200B4500AEF0FFC004C005C006C007853982853A83853BF0E53C121072AC82AD83AEF0FFFB
:200B6500E58124FCF5818C828D838EF0EF1213FBE5828583F024C8FE740A35F0FFEEC39598
:200B850048F546EF9549F547C3E54694FCE547940850067546FC754708C374489546740DD2
:180BA5009547500675464875470D74FFC39546F5EA74FF9547F5FA22EA
:201BB7000A54797065206469676974733B20656E6420772F2300202020202025632563256E
:201BD7006325632563002563000A53746172740D0A000A0D506C6561736520696E70757403
:201BF7002064617461206F6E20746865204C43442E0A000A0D2D2D2D2D2D2D2D2D2D2D2D85
:201C17002D4441544120434F4C4C454354494F4E2D2D2D2D2D2D2D2D2D2D2D2D0A000D52D5
:201C3700616E67653A2025750A000D48656164696E673A2025750A000D566F6C746167655A
:201C57003A2025750A000D5374656572696E672050756C736577696474683A2025750A00DA
:201C77000D506C6561736520656E746572206120646573697265642068656164696E672E09
:201C97000A000D2775272077696C6C20696E6372656D656E7420627920352064656772651F
:201CB70065732E202764272077696C6C2064656372656D656E742062792035206465677274
:201CD7006565732E0A000D276627207768656E2066696E69736865642E0A000D44657369B1
:201CF7007265642068656164696E673A2025750A000D506C656173652073656C656374207D
:201D170061206465736972656420636F6D70617373206761696E2E0A000D2775272077696E
:201D37006C6C20696E6372656D656E7420627920302E312E202764272077696C6C20646564
:201D57006372656D656E7420627920302E312E0A000D276627207768656E2066696E6973D0
:201D77006865640A000D4465736972656420636F6D70617373206761696E3A2025322E315F
:031D9700660A00D9
:0B0BBD00A8811818C6B2E7C602134C4E
:200BC8007A10E4FBFCE58225E0F582E58333F583EB33FBEC33FCEB9517F5F0EC9518400623
:090BE800FCABF0438201DADD22CE
:200BF100C015858115E51524FDF8868318868218E493A3B42577C200C201C202C203C20462
:200C1100C20579087700C206E493A324C64017240A50157005B50802D205D204FAE775F027
:200C31000AA42AF780E2240A2430B46C04D20080D7B46804D20180D0B47303020C89B46487
:200C510006120F63020CE5B47506120F63020D05B4630518E6188017B47803020CC4B4665B
:200C710003020E19B42E0679097700809B6006121055020C0102106FC083C08286F0188635
:200C91008318868218300419C205C082C083121AB06007A31508E50870F4121040D083D016
:200CB10082121AB06006A312105580F5D082D083020C01120CDC20010C120CDC30000612B3
:200CD1000CDC120CDC121067020C01E6121045E618021046ED30E71CD203E9F42401F920D6
:200CF1000112EAF43400FA30000AEBF43400FBECF43400FC200110300008EB7024EC702107
:200D1100C200EA701CD201E97017200614300409E508600515081210407430121055020CD6
:200D310001C082C083120F7D300460790A30001DEB54F0703619EB540F703019EA54F07087
:200D51002A19EA540F702419EF54F0701E790520010BEF540F701419EE54F0700E7903EED1
:200D7100540F700719ED54F0700119E508A203994019F508C003C002C007C006C00512103A
:200D910040D005D006D007D002D003300319C003C002C007C006C005742D121055D005D0FB
:200DB10006D007D002D00320014030002CC005C006C0078A82EBF583121045E583121046EB
:200DD100E582121045E582121046D0E0F582121045E582D083D08280058D828E83EF121015
:200DF10046E583121045E58380038D82EE121046E582121045E582121046121067D083D034
:200E11008230060122020C0130040EE508D39509F50850287508008023E6547FFA1886034E
:200E310008AE82AF83901F667D07E4932BA3E4933A5003A3DDF48D098E828F83C000120F48
:200E510045C082C083EFB47E02801940112482FDC3EA33FAEB33FBEC33FCDDF48006F4248A
:200E71007F12114375F01BE4F8FFFEFD901EFAE933F9EA33FAEB33FBEC33FC5017E4932D13
:200E9100D4FD7401933ED4FE7402933FD4FF74039338D4F8A3A3A3A3D5F0D4E47C50FBFA65
:200EB100F9E509232354FC8883121143ED29D4F50DEE3AD4F50CEF3BD4F50BE5833CD4F5DF
:200ED1000A92D5D083D082D000120F45C000C3749E9F5005D000020C19C082121143D0823B
:200EF10030D50FE92401F9E43AFAE43BFBE43CFC40E2D206120D0520040CE5096008120FB3
:200F1100357003D509F4E5096015742E1210557800D20208E8120F35121046E8B509F4D066
:200F310000020C0114C31392D5240AF9E720D501C4540F22E618F9E618FC33E9339203FF1F
:200F51006003430480E618FBE618FA7900C201D20022E6F9FD18200112AA01E6F91830003C
:200F71000AAC02AB01E6FA18E6F91822E975F06484FE740AC5F084C445F0FD30010122EACC
:200F9100540FF9901D9A932DD4FDE94410933ED4FEEAC4540FF9901DBA932DD4FDE94410ED
:200FB100933ED4FEE94420933400D4FF20000122EB540FF9901DEA932DD4FDE94410933ED6
:200FD100D4FEE94420933FD4FFE43400FAEBC4540FF9901E1A932DD4FDE94410933ED4FEE6
:200FF100E94420933FD4FFE94430933AD4FAEC540FF9901E5A7B00121013ECC4540FF9905A
:201011001EAA932DD4FDE94410933ED4FEE94420933FD4FFE94430933AD4FAE94440933B61
:20103100D4FB22742030050274301210551508E50870F022C4540F7003300219D2022490CF
:20105100D43440D4C083C082C000F582120128D000D082D083222002FC7430021055D015C7
:01107100225C
:201D9A00005612682480369248046016722884400002050710121517202325283033353811
:201DBA00009692888480767268646056524844400040812263044586276809509132731486
:201DDA00000000010102020203030404040505060036720844801652882460963268044063
:201DFA000055106621763287429853086419753000061319263239455258657278859198A8
:201E1A0000765228048056320884603612886440008571574328140086715743291400862C
:201E3A00000409141924293438434853586368720001020304050607080910111213141586
:201E5A0000163248648096122844607692082440007244168860320577492193653810827E
:201E7A000077553310886644219977543210886500163350678300173450678401183451AC
:201E9A000000000000000101010101010202020200561268248036924804601672288440BE
:201EBA000054096318722781369145005409631800438730741761044891357922660953DD
:201EDA000068360573421079471584522189582600020508101316182124262932343740DC
:201EFA000000005000000025000050120000250600501203002556015012780025063900A7
:201F1A001253190056760900288804001444020007220100046100005230000026150000FA
:201F3A006307000081030000910100009500000048000000240000001200000006000000EE
:1A1F5A000300000001000000010000007DC5DDC334C2E0BE38BD86BBE4B91F
:20107200121115BC0003021450EF60FA30D502B2D1E583B4FF03021466E582B4FF03021461
:2010920066258340072482400B0214502483145003021466F582EA8DF0A4A8F0EA8EF0A4E2
:2010B20028F8E435F0F9EB8DF0A428E935F0F9E433CA8FF0A429F9EA35F0FAEBF88EF0A48D
:2010D20029F9EA35F0FAE433FBEC8DF0A429F9EA35F0FAE43BFBE88FF0A42AFAEB35F0FB35
:2010F200E433CCFD8EF0A42AFAEB35F0FBE43CFCED8FF0A42BFBEC35F0FC20E7031211869B
:0311120002142F95
:20111500AA82AB83A2F73392D1F5826002D2F7ACF0E58124F9F8E6FD08E6FE0886F008E63D
:0E113500A2F73392D5F5836002D2F7AFF02215
:06008000E478FFF6D8FD54
:201143006040F82582500274FFF582E824F8501ECCCBCAF9E4CC24F85014CBCAF9E4CB24B4
:20116300F8500BCAF9E4CA24F8500379002224086010F8C3EC13FCEB13FBEA13FAE913F967
:03118300D8F1227E
:201186007804EC7011E58224F8500AF582E4C9CACBFCD8EF22EC7820058220E713D5820168
:1311A60022C3E933F9EA33FAEB33FBEC33FCD8EA15822276
:20005E007900E94400601B7A00901F7F785175AF00E493F2A308B8000205AFD9F4DAF2753C
:02007E00AFFFD2
:2011B900FFA88118181213C3D2D133E6400730E70B7582012220E70675820022C2D11213B9
:1011D900A5E97003F5822230D101B3E433F5822207
:1B11E90020F71130F6138883A88220F509F6A8837583002280FEF280F5F02205
:20120400FFA88118181213C3D2D133E6400730E70B7582002220E70675820122C2D112136D
:10122400A5E97003F5822220D101B3E433F58222CB
:1D123400E5828517F0A4C582C0F08518F0A4D0F025F0C5838517F0A42583F583224F
:20125100C015858115C082058105810581E51524FBF8A9150909E6F70809E6F70809E6F71F
:20127100A815080886820886830886F0121AB0FAA3121AB0FBA3121AB0FF74012AFCE43B71
:20129100FD8F06A815080886820886830886F0EC1211E9A3ED1211E9A3EE1211E98A828B7F
:2012B100838FF0A81508E61211E9851581D0152285821285831385F0147567127568007545
:2012D1006940850E6A850F6B85106C85116D901251121574AE82AF83AB12AC13AD148B821A
:2012F1008C838DF0E41211E98E828F8322C015858115E51524F8FF8F6DE51524FBFF8F670E
:20131100756800756940E51524F8F8866A08866B08866C901251121574AE82AF83E51524C2
:1B133100FBF886030886040886058B828C838DF0E41211E98E828F83D015224E
:200086007800E84400600A790175AF00E4F309D8FC7850E84400600C7901900001E4F0A318
:0400A600D8FCD9FAAF
:20134C001211157900E583B58202800D5003121A7EE583C39582121143E5D0C465D020E14E
:20136C0017EA2DFAEB3EFBEC3FFC50097401121143EC4480FC02142FC3EA9DFAEB9EFBEC15
:19138C009FFC500FC3E499F9E49AFAE49BFBE49CFCB2D112118602142F36
:2013A5007901AA82E68F82B5821318E6B5F00E18E6B5830918E68A82B58202790022B4803F
:2013C5000FE5F0700AE5837006E58270027F00EFB6801518B6001018B6000B18B6000608A7
:0913E5000808760022080808221D
:0D13EE00AC83AB827A007900748E021AE89D
:2013FB00121B1F700AE582458345F0700122E430D112F4700BE5F0F47006E58330E70122CE
:14141B0090800022700AE5F07006E58320E70122907FFF2204
:20142F00B98003EA13B34010EA2401FAE43BFBE43CFC50047C800582BC000EBB000BBA0001
:20144F0008E4F5F0F583F58222A2D1E582138CF092F78B838A8222E4F583F58275F080F4C1
:0F146F00A2D11322E4F583F58275F0C0747F22B9
:20147E00C015858115120128D0152285826A85836B85F06CE4F567F568F56985166D9014B0
:20149E007E021574C015858115E51524FBFF8F6DE4F567F568F569E51524FBF8866A088697
:0D14BE006B08866C90147E121574D01522F8
:2014CB00AF82C05DC05EC05F1214D88007C05BC05C8F82221581158115810565E4B565025B
:2014EB00056622AF8274302FFF24C6500A74072FFF3007034307208F820214CBE582FFC4A4
:20150B00540FF582C0071214EED007740F5FF5820214EE85821785601885611985621A8537
:20152B00631BAA64751C20EA2AFAE51B235401FF8A064EFAE5182518F518E51933F519E59B
:20154B001A33F51AE51B33F51BC3EA95174008EAC39517FA431801D51CCD851860851961D7
:20156B00851A62851B638A642285825B85835C85675D85685E85695FE4F565F566AD6AAE47
:20158B006BAF6C8D828E838FF0121AB0FC74012DF56AE43EF56B8F6CECFF7003021A77BF15
:2015AB0025028003021A6FC208C209C20AC20BC20CC20DC20EC20F756E00756F007CFFAA93
:2015CB006AAB6BAE6C8A828B838EF0121AB0FFA3AA82AB838A6A8B6B8E6CBF25078F821204
:2015EB0014CB80998F7174D025715026E57124C64020BCFF12E56F75F00AA4FD2F24D0F5AF
:20160B006F70C2D20980BEEC75F00AA42F24D0FC80B3BF2E07BCFFAD7C0080A98F05BD6101
:20162B0000400CED248540075307DFD2078002C207BF2002806DBF2B028063BF2D028059B5
:20164B00BF42028063BF43028068BF4403021819BF460302182FBF48030215D0BF49030225
:20166B001819BF4A030215D0BF4C028040BF4F03021820BF50030217AEBF5302805CBF5447
:20168B00030215D0BF5503021825BF580302182ABF5A030215D0021833D2080215D0D20AB4
:2016AB000215D0D20B0215D0D20D0215D0D20E0215D0300D0CE56D14FE8E6D8E01870780A2
:2016CB0011E56D24FEFE8E6D8E018705098706198D078F821214CB02183CE56D24FDFE8ECC
:2016EB006D8E01870309870509870619198B608D618E628B828D838EF0C004121A98AD82E1
:20170B00AE83D004BCFF028D0420082AC3ED956F5024E56FC39DF56FAE6F8E031EEB6014AE
:20172B00758220C006C005C0041214CBD004D005D00680E68E6F8C0685608285618385621C
:20174B00F0121AB0FCFF602F8E041EC374808CF063F08095F050208F82C006C0051214CBF0
:20176B00D005D006AA60AB61AC620ABA00010B8A608B618C6280C120080302183CC3ED95F4
:20178B006F400302183CE56FC39DF56FAE6F8E041EEC700302183A758220C0061214CBD000
:2017AB000680EBE56D24FDFC8C6D8C01870209870309870419198A608B618C62AC62BC80C8
:2017CB000040047F438014BC600040047F50800BBC400040047F4980027F588F82C007125F
:2017EB0014CB75823A1214CB7582301214CB7582781214CBD007BF4902800BBF5002800662
:20180B008561821215078560821215078023D20C756E0A801C756E088017756E0A80127512
:20182B006E10800DD20F80098F821214CB80028E6F300F5CE56D24FCFE8E6D8E0187020980
:20184B0087030987040987061919198A608B618C628E6375607475611F7562808560728558
:20186B00617385627474012572FAE43573FCAE748A608C618E628572828573838574F012C8
:20188B001AB0FEFF70030215888F821214CB80CCE56E700302158875707A300D2DE56D1482
:2018AB00FC8C6D8C01E7FA3395E0FBFCFE8A608B618C628E63200C66AA607B007C007E0057
:2018CB008A608B618C628E638054300E21E56D24FCFE8E6D8E0187020987030987040987DB
:2018EB00061919198A608B618C628E638030E56D24FEFE8E6D8E01870409870619EE33953B
:20190B00E0FBFA8C608E618B628A63200C10AA60AB617C007E008A608B618C628E63300CF5
:20192B0022E56330E71BC3E49560FAE49561FBE49562FCE49563FE8A608B618C628E6380AF
:20194B0002C20CD210A9707E00756400856E82C006C00112151ED001D00620100BE564C42A
:20196B00FCE7FB4CF7198002A7640EB210E56045614562456370D289708E05E56F70037581
:20198B006F01200924200821ED04FEAC6FC3EE9C5015758220C006C005C0041214CBD0044F
:2019AB00D005D0061C80E68C6F300C0E75822DC0051214CBD005156F8023ED6020300A0E1F
:2019CB0075822BC0051214CBD005156F800F300B0C758220C0051214CBD005156F20082285
:2019EB00AE6F8E041EC3ED9C502B3009047C3080027C208C82C006C0051214CBD005D0060C
:201A0B0080E0C3ED956F5008E56FC39DF56F8007756F0080028E6FA9708D068E051EED60A3
:201A2B0026B21020100A09E7C4540FFD8D6480078705740F5DF564856482C006C001121410
:201A4B00EED001D00680D4200803021588AE6F8E051EED7003021588758220C0061214CB2D
:131A6B00D00680EB8F821214CB021588856582856683228A
:0B1F74003C4E4F20464C4F41543E00B5
:1A1A7E00E582C583F582A2D133A2D592D11392D5ECCFFCEBCEFBEACDFA22F0
:181A9800AA82AB83121AB06003A380F8C3E5829AF582E5839BF58322AA
:0D00510075817A121B7AE582600302004E71
:1C1AB00020F71430F6148883A88220F507E6A88375830022E280F7E49322E02245
:0B1ACC00E4AC82FBFAF97486021B15E3
:081AD7007F86121B92F58222AA
:201ADF00FCABF0AA83A982749EF582C2D1EC30E716D2D1E9F42401F9EAF43400FAEBF43406
:0D1AFF0000FBECF43400FC12118602142FE1
:131B0C00FCABF0AA83A982749EC2D1F58212118602142FCD
:201B1F00121B7EC3749E95824039790012114330D126E9F42401F582EAF43400F583EBF4AE
:201B3F003400F5F0ECF43400700AE582458345F0700122E430E70F22EC20E71489828A839D
:1B1B5F008BF02230D10AE4F582F583F5F074802274FFF582F583F5F0747F2299
:041B7A00758200224E
:121B7E00AA82AB83A2F73392D1F5826002D2F7ACF0226C
:201B90007F9E121B7E30D103021450C3EF9582500974FFF5F0F583F5822279001211438910
:071BB000828A838BF0EC2216
:00000001FF
