:040000000200513277
:01000B0032C2
:0100130032BA
:01001B0032B2
:0100230032AA
:01002B0032A2
:01003300329A
:01003B003292
:01004300328A
:03004B000206802A
:1D00AA00E4F538F539F53AF53B753C80753D3FF549F54AF54BF54C754D2802004E41
:03004E0002059D0B
:2000C70075B1677E007F011EBEFF011FEE4F70F7E5B130E7FB75B288227598507589207586
:2000E7008DDCD28E438E10438780D29943A4012275FFDE75FFAD1200C71200E043E10443E7
:20010700E34022AF8210990280FB8F992210980280FB85998212010A85998222C00F858179
:200127000FE50F24FBF886820886830886F01212E6E5828583F045F070028062E50F24FB02
:20014700FF8F0BE50F24FBF8860808860908860A90000175F000120B4C90000175F00012D0
:2001670012E6AE827F00C3EF9E501FEF2401F582E43400F583E0FDBD0A0DEF2401F582E4D7
:200187003400F583740DF00F80DC752801752900752A007527008E2B7582C6120439D00FB5
:2001A7002275220074C025224017752D22752E00752F40752C007530017582C61204AF8019
:2001C700E375230C752823752900752A40752700752B017582C612043922752D25752E007F
:2001E700752F40752C017530027582C61204AF74FFB52505758200805F7F008F068EF0058A
:20020700F07C017D008006EC2CFCED33FDD5F0F7AA257B00EA5204EB5205EC4D6007743169
:200227002FF58280330E8E07BE080040D0E52630E0057582398021E52630E10575822A8032
:2002470017E52630E205758230800DE52630E30575822380037582FF22AF82E4FDFEEF7063
:200267001DC006C0057412C0E07414C0E07480C0E0120123158115811581D005D006C00684
:20028700C0057408C0E0E4C0E07408C0E0E4C0E07408C0E0E4C0E07408C0E0E4C0E0740896
:2002A700C0E0E4C0E07428C0E07414C0E07480C0E0120123E58124F3F58190A12075F00735
:2002C700E41203D4D005D0067F00C007C006C0051201E1AC82D005D006D0078C03BCFF02DE
:2002E7008003BB2A17902710E4F5F0C007C006C0051203D4D005D006D00780CEBB232AC015
:2003070006C0051201E1AC82D005D006BC2313902710E4F5F0C006C0051203D4D005D0069D
:2003270080DD8D828E830203D3EBFA3395E0FCC007C006C005C004C003C002C002C0047443
:2003470038C0E07414C0E07480C0E0120123E58124FBF581D002D003D004D005D0068D110F
:200367008E1290000AC004C003C002120ABFA882A983D002D003D004D007EA28F8EC39F94A
:20038700E824D0FDE934FFFEC007C006C005C0031201E1AC82D003D005D006D007ECB50333
:2003A7001B902710E4F5F0C007C006C005C0031203D4D003D005D006D00780CC0FC3EF64C7
:2003C70080948550030202D18D828E8322AC82AD83AEF0FF780079007A007B00C3E89CE902
:2003E7009DEA9EEB9F500F08B8000909B900050ABA00E90B80E62220C7FDD2C530C3FDC2EB
:20040700C5C2C3228582C210C30280FB228582C2D2C410C30280FB2230C3FD85C282C2C31F
:200427002230C3FDAFC2C2C3D2C410C30280FB8F8222AF82C0071203FED00774FE5FF5826A
:2004470012040B85278212040B7F00AD2B7E001DBDFF011E8F037C00C3EB9DEC64808EF0B1
:2004670063F08095F0501FEF2528FCE43529FDAE2A8C828D838EF01212FEF582C00712044D
:200487000BD0070F80C5AE2B7F001EBEFF011FEE2528FEEF3529FFAD2A8E828F838DF012BF
:2004A70012FEF58212041422AF82C0071203FED0078F0674FE5EF582C00712040B852C8289
:2004C7001204141203FED00774014FF58212040B7F00AD307E001DBDFF011E8F037C00C302
:2004E700EB9DEC64808EF063F08095F0502ED2C2EF252DFCE4352EFDAE2FC007C006C00505
:20050700C00412041FAB82D004D005D006D0078C828D838EF0EB120AA40F80B6C2C2AE306A
:200527007F001EBEFF011FEE252DFEEF352EFFAD2FC007C006C005120428AC82D005D00666
:20054700D0078E828F838DF0EC120AA422753123752831752900752A40752720752B01756A
:200567008230120439753100752831752900752A40752721752B0175823012043975310008
:20058700752831752900752A40752722752B01758230120439221200F7120646120664121D
:2005A700066D1206E512067A75820D12010A743BC0E07414C0E07480C0E0120CF01581154D
:2005C70081158175EA3775FAF575EC3775FCF5E4F532F533C3E5329401E533940040F5740E
:2005E70044C0E07414C0E07480C0E0120CF0158115811581E54260FC12080785824585838C
:2006070046C3E545940FE5469400500875EC3775FCF5800675EC7F75FCF3C045C046746F30
:20062700C0E07414C0E07480C0E0120CF0E58124FBF58112084F754200753F0080B62275AD
:20064700E12753BDDF43A50553A5DFAF9074204FF59053A77FAFB074804FF5B02243A80262
:2006670043E608D2AF2275D98175DAC275DCC243D8402275CF93D2C622C0E0C0D010DF027D
:2006870080540536E4B5360205370534E4B53402053575E90075F970C374329534E49535D9
:2006A700500CE4F534F5350532B532020533053E74FE253E5006754101753E000540740BAC
:2006C700B54003754000053F74F6253F500B754201753F00800353D8C0D0D0D0E03275D157
:2006E7000375AA8043AB01228582ACAFAA74DF5FF5AA43AA10E5AA30E5FB859C822212016F
:20070700A8747BC0E07414C0E07480C0E0120123158115811581758201120260AE82AF8319
:200727008E048F05C374109C748E8DF063F08095F0500AEC24F0FCED34F1FD80E78C068DE7
:20074700078E048F05ED30E70A74102CFC740E3DFD80F28C068D07C007C0061201A8D00639
:20076700D0078E388F3974A4C0E07414C0E07480C0E0120CF0158115811581221201A87478
:20078700BCC0E07414C0E07480C0E0120123158115811581758201120260AE82AF83C007AD
:2007A700C0061201A8D006D0077511E87512038E828F8312135A120C5985823A85833B85EB
:2007C700F03CF53D74E2C0E07414C0E07480C0E0120CF015811581158122752D52752E0079
:2007E700752F40752C027530027582C01204AFAF527E00AC537D00EC4EF582ED4FF58322C6
:20080700752D50752E00752F40752C027530027582E01204AFAF507E00AC517D00EC420647
:20082700ED4207755051752850752900752A40752700752B017582E0C007C006120439D03B
:2008470006D0078E828F8322C3743C9545E495465007E4F549F54A801F743CC39545F511BA
:20086700E49546F512AE4D7F008E828F83120ABFAE82AF838E498F4A22E538C39543FEE565
:20088700399544FFC3EE94F8EF64809478500874102EFE740E3FFFC374089E74878FF063A2
:2008A700F08095F05008EE24F0FEEF34F1FFC3743C9545E495465007E4F549F54A802774F2
:2008C7003CC39545F511E49546F512AC4D7D008C828D83C007C006120ABFAC82AD83D0063C
:2008E700D0078C498D4A74C82549FC740A354AFD8E828F83C005C004120C59AA82AB83AEA4
:20090700F0FFC002C003C006C007853A82853B83853CF0E53D1209A0AA82AB83AEF0FFE5E1
:200927008124FCF581D004D0058C828D83C007C006C003C002120C66A882A983ACF0FDD07D
:2009470002D003D006D007C002C003C006C007888289838CF0ED120C00AC82AD83AEF0FF64
:20096700E58124FCF5818C828D838EF0EF120C72858247858348C3E54794EEE54894075032
:19098700067547EE754807C374AC9547740D954850067547AC75480D221C
:201412000A54797065206469676974733B20656E6420772F2300202020202025632563251A
:201432006325632563002563000A53746172740D0A000A0D2D2D2D2D2D2D2D2D2D2D2D2D3D
:201452004441544120434F4C4C454354494F4E2D2D2D2D2D2D2D2D2D2D2D2D0A000D52616E
:201472006E67653A2025750A000D456E74657220646573697265642068656164696E672007
:20149200666F722074686520636F6D706173732E0A000D5069636B5F48656164696E672081
:2014B20076657269666965640A000D456E7465722064657369726564206761696E20666F03
:2014D200722074686520636F6D706173732E0A000D5069636B5F436F6D706173735F476109
:0D14F200696E2076657269666965640A009E
:2009A000120A43BC0003020C9EEF60FA30D502B2D1E583B4FF03020CB4E582B4FF03020C8F
:2009C000B4258340072482400B020C9E2483145003020CB4F582EA8DF0A4A8F0EA8EF0A4E1
:2009E00028F8E435F0F9EB8DF0A428E935F0F9E433CA8FF0A429F9EA35F0FAEBF88EF0A466
:200A000029F9EA35F0FAE433FBEC8DF0A429F9EA35F0FAE43BFBE88FF0A42AFAEB35F0FB0D
:200A2000E433CCFD8EF0A42AFAEB35F0FBE43CFCED8FF0A42BFBEC35F0FC20E703120A718F
:030A4000020C7D28
:200A4300AA82AB83A2F73392D1F5826002D2F7ACF0E58124F9F8E6FD08E6FE0886F008E616
:0E0A6300A2F73392D5F5836002D2F7AFF022EE
:06008000E478FFF6D8FD54
:200A71007804EC7011E58224F8500AF582E4C9CACBFCD8EF22EC7820058220E713D5820184
:130A910022C3E933F9EA33FAEB33FBEC33FCD8EA15822292
:20005E007900E94400601B7A0090150A785175AF00E493F2A308B8000205AFD9F4DAF275BB
:02007E00AFFFD2
:1B0AA40020F71130F6138883A88220F509F6A8837583002280FEF280F5F02251
:1D0ABF00E5828511F0A4C582C0F08512F0A4D0F025F0C5838511F0A42583F58322DE
:200ADC00C00F85810FC082058105810581E50F24FBF8A90F0909E6F70809E6F70809E6F7B4
:200AFC00A80F080886820886830886F01212FEFAA31212FEFBA31212FEFF74012AFCE43B22
:200B1C00FD8F06A80F080886820886830886F0EC120AA4A3ED120AA4A3EE120AA48A828BE5
:200B3C00838FF0A80F08E6120AA4850F81D00F2285820C85830D85F00E75600C7561007545
:200B5C006240850863850964850A65850B66900ADC120DC2AE82AF83AB0CAC0DAD0E8B821A
:200B7C008C838DF0E4120AA48E828F8322C00F85810FE50F24F8FF8F66E50F24FBFF8F60FC
:200B9C00756100756240E50F24F8F88663088664088665900ADC120DC2AE82AF83E50F24A5
:1B0BBC00FBF886030886040886058B828C838DF0E4120AA48E828F83D00F221D
:200086007800E84400600A790175AF00E4F309D8FC7850E84400600C7901900001E4F0A318
:0400A600D8FCD9FAAF
:200BD7007A10E4FBFCE58225E0F582E58333F583EB33FBEC33FCEB9511F5F0EC9512400620
:090BF700FCABF0438201DADD22BF
:200C0000120A437900E583B58202800D50031212CCE583C39582121392E5D0C465D020E1E3
:200C200017EA2DFAEB3EFBEC3FFC50097401121392EC4480FC020C7DC3EA9DFAEB9EFBECD1
:190C40009FFC500FC3E499F9E49AFAE49BFBE49CFCB2D1120A71020C7D5F
:0D0C5900AC83AB827A007900748E02132305
:0C0C6600E4AC83AB82FAF9748E021350E8
:0B0C72007F8E1213DBF58385F08222D9
:200C7D00B98003EA13B34010EA2401FAE43BFBE43CFC50047C800582BC000EBB000BBA00BB
:200C9D0008E4F5F0F583F58222A2D1E582138CF092F78B838A8222E4F583F58275F080F47B
:0F0CBD00A2D11322E4F583F58275F0C0747F2273
:200CCC00C00F85810F12010AD00F2285826385836485F065E4F560F561F562851066900CD9
:200CEC00CC020DC2C00F85810FE50F24FBFF8F66E4F560F561F562E50F24FBF886630886F8
:0D0D0C0064088665900CCC120DC2D00F2239
:200D1900AF82C056C057C058120D268007C054C0558F8222158115811581055EE4B55E02FE
:200D3900055F22AF8274302FFF24C6500A74072FFF3000034307208F82020D19E582FFC424
:200D5900540FF582C007120D3CD007740F5FF582020D3C858211855912855A13855B148590
:200D79005C15AA5D751620EA2AFAE515235401FF8A064EFAE5122512F512E51333F513E593
:200D99001433F514E51533F515C3EA95114008EAC39511FA431201D516CD85125985135ADB
:200DB90085145B85155C8A5D22858254858355856056856157856258E4F55EF55FAD63AE6F
:200DD90064AF658D828E838FF01212FEFC74012DF563E43EF5648F65ECFF70030212C5BF66
:200DF900250280030212BDC201C202C203C204C205C206C207C2087567007568007CFFAA4D
:200E190063AB64AE658A828B838EF01212FEFFA3AA82AB838A638B648E65BF25078F8212A1
:200E39000D1980998F6A74D0256A5026E56A24C64020BCFF12E56875F00AA4FD2F24D0F53D
:200E59006870C2D20280BEEC75F00AA42F24D0FC80B3BF2E07BCFFAD7C0080A98F05BD61C9
:200E790000400CED248540075307DFD2008002C200BF2002806DBF2B028063BF2D0280597D
:200E9900BF42028063BF43028068BF4403021067BF460302107DBF4803020E1EBF4903020C
:200EB9001067BF4A03020E1EBF4C028040BF4F0302106EBF5003020FFCBF5302805CBF54E8
:200ED90003020E1EBF5503021073BF5803021078BF5A03020E1E021081D201020E1ED203D5
:200EF900020E1ED204020E1ED206020E1ED207020E1E30060CE56614FE8E668E018707806A
:200F190011E56624FEFE8E668E018705098706198D078F82120D1902108AE56624FDFE8E0D
:200F3900668E01870309870509870619198B598D5A8E5B8B828D838EF0C0041212E6AD8270
:200F5900AE83D004BCFF028D0420012AC3ED95685024E568C39DF568AE688E031EEB60148B
:200F7900758220C006C005C004120D19D004D005D00680E68E688C06855982855A83855BAB
:200F9900F01212FEFCFF602F8E041EC374808CF063F08095F050208F82C006C005120D191D
:200FB900D005D006AA59AB5AAC5B0ABA00010B8A598B5A8C5B80C120010302108AC3ED9599
:200FD90068400302108AE568C39DF568AE688E041EEC7003021088758220C006120D19D003
:200FF9000680EBE56624FDFC8C668C01870209870309870419198A598B5A8C5BAC5BBC80AC
:201019000040047F438014BC600040047F50800BBC400040047F4980027F588F82C0071218
:201039000D1975823A120D19758230120D19758278120D19D007BF4902800BBF50028006FF
:20105900855A82120D55855982120D558023D20575670A801C756708801775670A8012756A
:201079006710800DD20880098F82120D1980028E6830085CE56624FCFE8E668E018702091D
:2010990087030987040987061919198A598B5A8C5B8E5C7559FF755A14755B8085596B85D1
:2010B9005A6C855B6D7401256BFAE4356CFCAE6D8A598C5A8E5B856B82856C83856DF012DD
:2010D90012FEFEFF7003020DD68F82120D1980CCE5677003020DD675691C30062DE566149D
:2010F900FC8C668C01E7FA3395E0FBFCFE8A598B5A8C5B8E5C200566AA597B007C007E0042
:201119008A598B5A8C5B8E5C8054300721E56624FCFE8E668E0187020987030987040987C5
:20113900061919198A598B5A8C5B8E5C8030E56624FEFE8E668E01870409870619EE33951E
:20115900E0FBFA8C598E5A8B5B8A5C200510AA59AB5A7C007E008A598B5A8C5B8E5C300503
:2011790022E55C30E71BC3E49559FAE4955AFBE4955BFCE4955CFE8A598B5A8C5B8E5C80A8
:2011990002C205D209A9697E00755D00856782C006C001120D6CD001D00620090BE55DC4CF
:2011B900FCE7FB4CF7198002A75D0EB209E559455A455B455C70D289698E05E56870037573
:2011D9006801200224200121ED04FEAC68C3EE9C5015758220C006C005C004120D19D004DE
:2011F900D005D0061C80E68C6830050E75822DC005120D19D00515688023ED602030030EAE
:2012190075822BC005120D19D0051568800F30040C758220C005120D19D0051568200122CC
:20123900AE688E041EC3ED9C502B3002047C3080027C208C82C006C005120D19D005D0068C
:2012590080E0C3ED95685008E568C39DF568800775680080028E68A9698D068E051EED6087
:2012790026B20920090A09E7C4540FFD8D5D80078705740F5DF55D855D82C006C001120DF4
:201299003CD001D00680D4200103020DD6AE688E051EED7003020DD6758220C006120D19D4
:1312B900D00680EB8F82120D19020DD6855E82855F8322C5
:0B14FF003C4E4F20464C4F41543E0035
:1A12CC00E582C583F582A2D133A2D592D11392D5ECCFFCEBCEFBEACDFA22AA
:1812E600AA82AB831212FE6003A380F8C3E5829AF582E5839BF583221E
:0D00510075816D1213D5E582600302004E2B
:1C12FE0020F71430F6148883A88220F507E6A88375830022E280F7E49322E022FF
:20131A00FCABF0AA83A982749EF582C2D1EC30E716D2D1E9F42401F9EAF43400FAEBF434D2
:0D133A0000FBECF43400FC120A71020C7D83
:13134700FCABF0AA83A982749EC2D1F582120A71020C7D70
:20135A00C2D5E58330E70DD2D5E4C39582F582E49583F583E51230E70DB2D5E4C39511F51C
:18137A0011E49512F512120BD730D50BE4C39582F582E49583F58322E9
:201392006040F82582500274FFF582E824F8501ECCCBCAF9E4CC24F85014CBCAF9E4CB2463
:2013B200F8500BCAF9E4CA24F8500379002224086010F8C3EC13FCEB13FBEA13FAE913F916
:0313D200D8F1222D
:0413D50075820022FB
:2013D9007F9E12140030D103020C9EC3EF9582500974FFF5F0F583F58222790012139289BD
:0713F900828A838BF0EC22D5
:12140000AA82AB83A2F73392D1F5826002D2F7ACF022F1
:00000001FF
