:040000000200513277
:01000B0032C2
:0100130032BA
:01001B0032B2
:0100230032AA
:01002B0032A2
:01003300329A
:01003B003292
:01004300328A
:03004B000207ACFD
:2000AA00E4F539F53A753B80753C3FF53DF53EF53FF540F541F542F543F544F5457546C86C
:1B00CA0075470AF548F549F54AF54B754C3CF54DF54EF551F552F55302004EB4
:03004E000205BBED
:2000E50075B1677E007F011EBEFF011FEE4F70F7E5B130E7FB75B288227598507589207568
:200105008DDCD28E438E10438780D29943A4012275FFDE75FFAD1200E51200FE43E104438C
:20012500E34022AF8210990280FB8F992210980280FB85998212012885998222C015858137
:2001450015E51524FBF886820886830886F0121A95E5828583F045F070028062E51524FB1B
:20016500FF8F11E51524FBF8860E08860F08861090000175F0001212BE90000175F000121B
:200185001A95AE827F00C3EF9E501FEF2401F582E43400F583E0FDBD0A0DEF2401F582E402
:2001A5003400F583740DF00F80DC752901752A00752B007528008E2C7582C6120457D0156E
:2001C5002275230074C025234017752E23752F00753040752D007531017582C61204CD80D5
:2001E500E375240C752924752A00752B40752800752C017582C612045722752E26752F0039
:20020500753040752D017531027582C61204CD74FFB52605758200805F7F008F068EF00549
:20022500F07C017D008006EC2CFCED33FDD5F0F7AA267B00EA5204EB5205EC4D600774314A
:200245002FF58280330E8E07BE080040D0E52730E0057582398021E52730E10575822A8012
:2002650017E52730E205758230800DE52730E30575822380037582FF22AF82E4FDFEEF7043
:200285001DC006C00574B4C0E0741BC0E07480C0E0120141158115811581D005D006C0069F
:2002A500C0057408C0E0E4C0E07408C0E0E4C0E07408C0E0E4C0E07408C0E0E4C0E0740878
:2002C500C0E0E4C0E074CAC0E0741BC0E07480C0E0120141E58124F3F58190A12075F00750
:2002E500E41203F2D005D0067F00C007C006C0051201FFAC82D005D006D0078C03BCFF0284
:200305008003BB2A17902710E4F5F0C007C006C0051203F2D005D006D00780CEBB232AC0D8
:2003250006C0051201FFAC82D005D006BC2313902710E4F5F0C006C0051203F2D005D00643
:2003450080DD8D828E830203F1EBFA3395E0FCC007C006C005C004C003C002C002C0047407
:20036500DAC0E0741BC0E07480C0E0120141E58124FBF581D002D003D004D005D0068D1724
:200385008E1890000AC004C003C002121231A882A983D002D003D004D007EA28F8EC39F9AC
:2003A500E824D0FDE934FFFEC007C006C005C0031201FFAC82D003D005D006D007ECB503F7
:2003C5001B902710E4F5F0C007C006C005C0031203F2D003D005D006D00780CC0FC3EF648B
:2003E50080948550030202EF8D828E8322AC82AD83AEF0FF780079007A007B00C3E89CE9C6
:200405009DEA9EEB9F500F08B8000909B900050ABA00E90B80E62220C7FDD2C530C3FDC2CC
:20042500C5C2C3228582C210C30280FB228582C2D2C410C30280FB2230C3FD85C282C2C301
:200445002230C3FDAFC2C2C3D2C410C30280FB8F8222AF82C00712041CD00774FE5FF5822D
:200465001204298528821204297F00AD2C7E001DBDFF011E8F037C00C3EB9DEC64808EF055
:2004850063F08095F0501FEF2529FCE4352AFDAE2B8C828D838EF0121AADF582C007120475
:2004A50029D0070F80C5AE2C7F001EBEFF011FEE2529FEEF352AFFAD2B8E828F838DF0127F
:2004C5001AADF58212043222AF82C00712041CD0078F0674FE5EF582C007120429852D8258
:2004E50012043212041CD00774014FF5821204297F00AD317E001DBDFF011E8F037C00C388
:20050500EB9DEC64808EF063F08095F0502ED2C2EF252EFCE4352FFDAE30C007C006C005E3
:20052500C00412043DAB82D004D005D006D0078C828D838EF0EB1211E60F80B6C2C2AE31E4
:200545007F001EBEFF011FEE252EFEEF352FFFAD30C007C006C005120446AC82D005D00627
:20056500D0078E828F838DF0EC1211E622753223752932752A00752B40752820752C0175FC
:200585008230120457753200752932752A00752B40752821752C01758230120457753200A6
:2005A500752932752A00752B40752822752C01758230120457221201151207721207901262
:2005C50007991207F81207A675820D12012874DDC0E0741BC0E07480C0E012149F15811543
:2005E50081158175EA3775FAF575EC3775FCF5E4F533F534C3E5339401E534940040F574EC
:20060500E6C0E0741BC0E07480C0E012149F1581158115811208181208AB7407C0E0741C63
:20062500C0E07480C0E012149F15811581158130B60302075630B703020756E54160387536
:2006450041001209F785824485834574FFB5440774FFB54502801BC3E5449412E5459400DD
:20066500500875EC3775FCF5800D75EC1B75FCF38005E4F548F54975820512080285824D62
:20068500121AC9AC82AD83AEF0FFC004C005C006C007904DB475F067743D12106FAC82ADD5
:2006A50083AEF0FFE58124FCF5818C828D838EF0EF121AD485824EE540600F7540001209D5
:2006C500D1858242858343120AC27414B55102800302063475170A751800854282854383CC
:2006E500120BC5AE82AF83C006C0077432C0E0741CC0E07480C0E012149FE58124FBF5815A
:20070500C035C0367440C0E0741CC0E07480C0E012149FE58124FBF581C052C0537450C068
:20072500E0741CC0E07480C0E012149FE58124FBF581C046C0477464C0E0741CC0E07480A7
:20074500C0E012149FE58124FBF58175510002063420B60620B70302063475EA3775FAF546
:2007650075EC3775FCF51208AB0206342275E12753BDDF43A50553A5DFAF9074204FF5907C
:2007850053A77FAFB074804FF5B02243A80243E608D2AF2275D98175DAC275DCC275D84031
:2007A5002275CF93D2C622C0E0C0D010DF02803E0535E4B53502053675E90075F970C374EA
:2007C500329535E4953650080533E4B533020534053D74F8253D5006754001753D000551AE
:2007E500053E74F4253E5006754101753E00D0D0D0E03275D10375AA8043AB01228582ACF8
:20080500AFAA74DF5FF5AA43AA10E5AA30E5FB859C8222747EC0E0741CC0E07480C0E01260
:20082500149F15811581158174A0C0E0741CC0E07480C0E012149F15811581158174E4C027
:20084500E0741CC0E07480C0E012149F158115811581120132AF82BF750B74322537F53785
:20086500E43538F538BF640CE53724CEF537E53834FFF538BF6602802CC3E5379410E5389C
:20088500940E400675371075380EC037C03874F9C0E0741CC0E07480C0E012149FE58124E5
:2008A500FBF58180AD22740FC0E0741DC0E07480C0E012149F1581158115817437C0E07445
:2008C5001DC0E07480C0E012149F158115811581746FC0E0741DC0E07480C0E012149F1519
:2008E5008115811581120132AF82BF7530C00774CDC0E014C0E0C0E0743DC0E0853982855A
:200905003A83853BF0E53C12134985823985833A85F03BF53CE58124FCF581D007BF64304D
:20092500C00774CDC0E014C0E0C0E0743DC0E0853982853A83853BF0E53C120BBA858239FB
:2009450085833A85F03BF53CE58124FCF581D007BF66028076E4C0E0C0E07438C0E074415A
:20096500C0E0853982853A83853BF0E53C121201AF82E58124FCF581EF700AF539F53A75F2
:200985003B38753C41E4C0E0C0E0C0E0C0E0853982853A83853BF0E53C1211B6AF82E581C6
:2009A50024FCF581EF7008F539F53AF53BF53CC039C03AC03BC03C7483C0E0741DC0E012B3
:2009C5000BEEE58124FAF5810208EA22752E54752F00753040752D027531027582C0120470
:2009E500CDAF547E00AC557D00EC4EF582ED4FF58322752E4F752F00753040752D027531DA
:200A0500027582E01204CDAF4F7E00AC507D00EC4206ED4207754F5175294F752A00752B75
:200A250040752800752C017582E0C007C006120457D006D0078E828F8322AE82AF838E1769
:200A45008F1890000AC007C006121231AC82AD83D006D007C007C006C005C004120132AB5D
:200A650082D004D005D006D007BB63048C068D07BB691FA9567A00E92EFEEA3FFFC3E55759
:200A85009EE55864808FF063F08095F05004AE57AF58BB6420A9567A00EEC399FEEF9AFFD3
:200AA500C3EE9559EF6480855AF063F08095F05004AE59AF5ABB759C8E828F8322E537C345
:200AC5009542F552E5389543F553C3E55294F8E55364809478500C74102552F552740E35B3
:200AE50053F553C37408955274878553F063F08095F0500CE55224F0F552E55334F1F55382
:200B0500C374379544E495455007E4F548F549801F7437C39544F517E49545F518AE4C7FDF
:200B2500008E828F83121231AE82AF838E488F498552828553831213EBAC82AD83AEF0FF6A
:200B4500C004C005C006C007853982853A83853BF0E53C12106FAC82AD83AEF0FFE5812411
:200B6500FCF5818C828D838EF0EF1213F8E5828583F024C8FE740A35F0FFEEC39548F546A2
:200B8500EF9549F547C3E5469434E54794085006754634754708C374489546740D954750B9
:150BA5000675464875470D74FFC39546F5EA74FF9547F5FA2219
:201BB4000A54797065206469676974733B20656E6420772F23002020202020256325632571
:201BD4006325632563002563000A53746172740D0A000A0D506C6561736520696E70757406
:201BF4002064617461206F6E20746865204C43442E0A000A0D2D2D2D2D2D2D2D2D2D2D2D88
:201C14002D4441544120434F4C4C454354494F4E2D2D2D2D2D2D2D2D2D2D2D2D0A000D48E2
:201C3400656164696E673A2025750A000D4F766572666C6F77733A2025750A000D4865613D
:201C540064696E67204572726F723A2025640A000D5374656572696E672050756C736577C9
:201C7400696474683A2025750A000D506C6561736520656E746572206120646573697265E7
:201C9400642068656164696E672E0A000D2775272077696C6C20696E6372656D656E7420F7
:201CB4006279203520646567726565732E202764272077696C6C2064656372656D656E7432
:201CD400206279203520646567726565732E0A000D276627207768656E2066696E69736835
:201CF40065642E0A000D446573697265642068656164696E673A2025750A000D506C656185
:201D140073652073656C6563742061206465736972656420636F6D70617373206761696EE1
:201D34002E0A000D2775272077696C6C20696E6372656D656E7420627920302E312E2027AB
:201D540064272077696C6C2064656372656D656E7420627920302E312E0A000D2766272072
:201D74007768656E2066696E69736865640A000D4465736972656420636F6D706173732026
:0D1D94006761696E3A2025322E31660A0023
:0B0BBA00A8811818C6B2E7C602134954
:200BC5007A10E4FBFCE58225E0F582E58333F583EB33FBEC33FCEB9517F5F0EC9518400626
:090BE500FCABF0438201DADD22D1
:200BEE00C015858115E51524FDF8868318868218E493A3B42577C200C201C202C203C20465
:200C0E00C20579087700C206E493A324C64017240A50157005B50802D205D204FAE775F02A
:200C2E000AA42AF780E2240A2430B46C04D20080D7B46804D20180D0B47303020C86B4648D
:200C4E0006120F60020CE2B47506120F60020D02B4630518E6188017B47803020CC1B4666D
:200C6E0003020E16B42E0679097700809B6006121052020BFE02106CC083C08286F0188645
:200C8E008318868218300419C205C082C083121AAD6007A31508E50870F412103DD083D01F
:200CAE0082121AAD6006A312105280F5D082D083020BFE120CD920010C120CD930000612C6
:200CCE000CD9120CD9121064020BFEE6121042E618021043ED30E71CD203E9F42401F920EC
:200CEE000112EAF43400FA30000AEBF43400FBECF43400FC200110300008EB7024EC70210A
:200D0E00C200EA701CD201E97017200614300409E5086005150812103D7430121052020BE0
:200D2E00FEC082C083120F7A300460790A30001DEB54F0703619EB540F703019EA54F07090
:200D4E002A19EA540F702419EF54F0701E790520010BEF540F701419EE54F0700E7903EED4
:200D6E00540F700719ED54F0700119E508A203994019F508C003C002C007C006C00512103D
:200D8E003DD005D006D007D002D003300319C003C002C007C006C005742D121052D005D004
:200DAE0006D007D002D00320014030002CC005C006C0078A82EBF583121042E583121043F4
:200DCE00E582121042E582121043D0E0F582121042E582D083D08280058D828E83EF121021
:200DEE0043E583121042E58380038D82EE121043E582121042E582121043121064D083D049
:200E0E008230060122020BFE30040EE508D39509F50850287508008023E6547FFA18860355
:200E2E0008AE82AF83901F6D7D07E4932BA3E4933A5003A3DDF48D098E828F83C000120F44
:200E4E0042C082C083EFB47E02801940112482FDC3EA33FAEB33FBEC33FCDDF48006F42490
:200E6E007F12114075F01BE4F8FFFEFD901F01E933F9EA33FAEB33FBEC33FC5017E4932D11
:200E8E00D4FD7401933ED4FE7402933FD4FF74039338D4F8A3A3A3A3D5F0D4E47C50FBFA68
:200EAE00F9E509232354FC8883121140ED29D4F50DEE3AD4F50CEF3BD4F50BE5833CD4F5E5
:200ECE000A92D5D083D082D000120F42C000C3749E9F5005D000020C16C082121140D08247
:200EEE0030D50FE92401F9E43AFAE43BFBE43CFC40E2D206120D0220040CE5096008120FB9
:200F0E00327003D509F4E5096015742E1210527800D20208E8120F32121043E8B509F4D075
:200F2E0000020BFE14C31392D5240AF9E720D501C4540F22E618F9E618FC33E9339203FF26
:200F4E006003430480E618FBE618FA7900C201D20022E6F9FD18200112AA01E6F91830003F
:200F6E000AAC02AB01E6FA18E6F91822E975F06484FE740AC5F084C445F0FD30010122EACF
:200F8E00540FF9901DA1932DD4FDE94410933ED4FEEAC4540FF9901DC1932DD4FDE94410E2
:200FAE00933ED4FEE94420933400D4FF20000122EB540FF9901DF1932DD4FDE94410933ED2
:200FCE00D4FEE94420933FD4FFE43400FAEBC4540FF9901E21932DD4FDE94410933ED4FEE2
:200FEE00E94420933FD4FFE94430933AD4FAEC540FF9901E617B00121010ECC4540FF99059
:20100E001EB1932DD4FDE94410933ED4FEE94420933FD4FFE94430933AD4FAE94440933B5D
:20102E00D4FB22742030050274301210521508E50870F022C4540F7003300219D2022490D5
:20104E00D43440D4C083C082C000F582120128D000D082D083222002FC7430021052D015CD
:01106E00225F
:201DA10000561268248036924804601672288440000205071012151720232528303335380A
:201DC10000969288848076726864605652484440004081226304458627680950913273147F
:201DE10000000001010202020303040404050506003672084480165288246096326804405C
:201E01000055106621763287429853086419753000061319263239455258657278859198A0
:201E2100007652280480563208846036128864400085715743281400867157432914008625
:201E410000040914192429343843485358636872000102030405060708091011121314157F
:201E6100001632486480961228446076920824400072441688603205774921936538108277
:201E81000077553310886644219977543210886500163350678300173450678401183451A5
:201EA1000000000000000101010101010202020200561268248036924804601672288440B7
:201EC1000054096318722781369145005409631800438730741761044891357922660953D6
:201EE1000068360573421079471584522189582600020508101316182124262932343740D5
:201F010000000050000000250000501200002506005012030025560150127800250639009F
:201F21001253190056760900288804001444020007220100046100005230000026150000F3
:201F41006307000081030000910100009500000048000000240000001200000006000000E7
:1A1F61000300000001000000010000007DC5DDC334C2E0BE38BD86BBE4B918
:20106F00121112BC000302144DEF60FA30D502B2D1E583B4FF03021463E582B4FF0302146D
:20108F0063258340072482400B02144D2483145003021463F582EA8DF0A4A8F0EA8EF0A4EE
:2010AF0028F8E435F0F9EB8DF0A428E935F0F9E433CA8FF0A429F9EA35F0FAEBF88EF0A490
:2010CF0029F9EA35F0FAE433FBEC8DF0A429F9EA35F0FAE43BFBE88FF0A42AFAEB35F0FB38
:2010EF00E433CCFD8EF0A42AFAEB35F0FBE43CFCED8FF0A42BFBEC35F0FC20E703121183A1
:03110F0002142C9B
:20111200AA82AB83A2F73392D1F5826002D2F7ACF0E58124F9F8E6FD08E6FE0886F008E640
:0E113200A2F73392D5F5836002D2F7AFF02218
:06008000E478FFF6D8FD54
:201140006040F82582500274FFF582E824F8501ECCCBCAF9E4CC24F85014CBCAF9E4CB24B7
:20116000F8500BCAF9E4CA24F8500379002224086010F8C3EC13FCEB13FBEA13FAE913F96A
:03118000D8F12281
:201183007804EC7011E58224F8500AF582E4C9CACBFCD8EF22EC7820058220E713D582016B
:1311A30022C3E933F9EA33FAEB33FBEC33FCD8EA15822279
:20005E007900E94400601B7A00901F86785175AF00E493F2A308B8000205AFD9F4DAF27535
:02007E00AFFFD2
:2011B600FFA88118181213C0D2D133E6400730E70B7582012220E70675820022C2D11213BF
:1011D600A2E97003F5822230D101B3E433F582220D
:1B11E60020F71130F6138883A88220F509F6A8837583002280FEF280F5F02208
:20120100FFA88118181213C0D2D133E6400730E70B7582002220E70675820122C2D1121373
:10122100A2E97003F5822220D101B3E433F58222D1
:1D123100E5828517F0A4C582C0F08518F0A4D0F025F0C5838517F0A42583F5832252
:20124E00C015858115C082058105810581E51524FBF8A9150909E6F70809E6F70809E6F722
:20126E00A815080886820886830886F0121AADFAA3121AADFBA3121AADFF74012AFCE43B7D
:20128E00FD8F06A815080886820886830886F0EC1211E6A3ED1211E6A3EE1211E68A828B8B
:2012AE00838FF0A81508E61211E6851581D0152285821285831385F014756712756800754B
:2012CE006940850E6A850F6B85106C85116D90124E121571AE82AF83AB12AC13AD148B8223
:2012EE008C838DF0E41211E68E828F8322C015858115E51524F8FF8F6DE51524FBFF8F6714
:20130E00756800756940E51524F8F8866A08866B08866C90124E121571AE82AF83E51524CB
:1B132E00FBF886030886040886058B828C838DF0E41211E68E828F83D0152254
:200086007800E84400600A790175AF00E4F309D8FC7850E84400600C7901900001E4F0A318
:0400A600D8FCD9FAAF
:201349001211127900E583B58202800D5003121A7BE583C39582121140E5D0C465D020E15A
:2013690017EA2DFAEB3EFBEC3FFC50097401121140EC4480FC02142CC3EA9DFAEB9EFBEC1E
:191389009FFC500FC3E499F9E49AFAE49BFBE49CFCB2D112118302142C3F
:2013A2007901AA82E68F82B5821318E6B5F00E18E6B5830918E68A82B58202790022B48042
:2013C2000FE5F0700AE5837006E58270027F00EFB6801518B6001018B6000B18B6000608AA
:0913E20008087600220808082220
:0D13EB00AC83AB827A007900748E021AE5A3
:2013F800121B1C700AE582458345F0700122E430D112F4700BE5F0F47006E58330E70122D4
:1414180090800022700AE5F07006E58320E70122907FFF2207
:20142C00B98003EA13B34010EA2401FAE43BFBE43CFC50047C800582BC000EBB000BBA0004
:20144C0008E4F5F0F583F58222A2D1E582138CF092F78B838A8222E4F583F58275F080F4C4
:0F146C00A2D11322E4F583F58275F0C0747F22BC
:20147B00C015858115120128D0152285826A85836B85F06CE4F567F568F56985166D9014B3
:20149B007B021571C015858115E51524FBFF8F6DE4F567F568F569E51524FBF8866A0886A0
:0D14BB006B08866C90147B121571D0152201
:2014C800AF82C05DC05EC05F1214D58007C05BC05C8F82221581158115810565E4B5650261
:2014E800056622AF8274302FFF24C6500A74072FFF3007034307208F820214C8E582FFC4AA
:20150800540FF582C0071214EBD007740F5FF5820214EB85821785601885611985621A8540
:20152800631BAA64751C20EA2AFAE51B235401FF8A064EFAE5182518F518E51933F519E59E
:201548001A33F51AE51B33F51BC3EA95174008EAC39517FA431801D51CCD851860851961DA
:20156800851A62851B638A642285825B85835C85675D85685E85695FE4F565F566AD6AAE4A
:201588006BAF6C8D828E838FF0121AADFC74012DF56AE43EF56B8F6CECFF7003021A74BF1E
:2015A80025028003021A6CC208C209C20AC20BC20CC20DC20EC20F756E00756F007CFFAA99
:2015C8006AAB6BAE6C8A828B838EF0121AADFFA3AA82AB838A6A8B6B8E6CBF25078F82120A
:2015E80014C880998F7174D025715026E57124C64020BCFF12E56F75F00AA4FD2F24D0F5B5
:201608006F70C2D20980BEEC75F00AA42F24D0FC80B3BF2E07BCFFAD7C0080A98F05BD6104
:2016280000400CED248540075307DFD2078002C207BF2002806DBF2B028063BF2D028059B8
:20164800BF42028063BF43028068BF4403021816BF460302182CBF48030215CDBF49030231
:201668001816BF4A030215CDBF4C028040BF4F0302181DBF50030217ABBF5302805CBF5456
:20168800030215CDBF5503021822BF5803021827BF5A030215CD021830D2080215CDD20AC9
:2016A8000215CDD20B0215CDD20D0215CDD20E0215CD300D0CE56D14FE8E6D8E01870780B1
:2016C80011E56D24FEFE8E6D8E018705098706198D078F821214C8021839E56D24FDFE8ED5
:2016E8006D8E01870309870509870619198B608D618E628B828D838EF0C004121A95AD82E7
:20170800AE83D004BCFF028D0420082AC3ED956F5024E56FC39DF56FAE6F8E031EEB6014B1
:20172800758220C006C005C0041214C8D004D005D00680E68E6F8C06856082856183856222
:20174800F0121AADFCFF602F8E041EC374808CF063F08095F050208F82C006C0051214C8F9
:20176800D005D006AA60AB61AC620ABA00010B8A608B618C6280C1200803021839C3ED95FA
:201788006F4003021839E56FC39DF56FAE6F8E041EEC7003021837758220C0061214C8D00C
:2017A8000680EBE56D24FDFC8C6D8C01870209870309870419198A608B618C62AC62BC80CB
:2017C8000040047F438014BC600040047F50800BBC400040047F4980027F588F82C0071262
:2017E80014C875823A1214C87582301214C87582781214C8D007BF4902800BBF5002800671
:201808008561821215048560821215048023D20C756E0A801C756E088017756E0A8012751B
:201828006E10800DD20F80098F821214C880028E6F300F5CE56D24FCFE8E6D8E0187020986
:2018480087030987040987061919198A608B618C628E6375607B75611F7562808560728554
:20186800617385627474012572FAE43573FCAE748A608C618E628572828573838574F012CB
:201888001AADFEFF70030215858F821214C880CCE56E700302158575707A300D2DE56D1491
:2018A800FC8C6D8C01E7FA3395E0FBFCFE8A608B618C628E63200C66AA607B007C007E005A
:2018C8008A608B618C628E638054300E21E56D24FCFE8E6D8E0187020987030987040987DE
:2018E800061919198A608B618C628E638030E56D24FEFE8E6D8E01870409870619EE33953E
:20190800E0FBFA8C608E618B628A63200C10AA60AB617C007E008A608B618C628E63300CF8
:2019280022E56330E71BC3E49560FAE49561FBE49562FCE49563FE8A608B618C628E6380B2
:2019480002C20CD210A9707E00756400856E82C006C00112151BD001D00620100BE564C430
:20196800FCE7FB4CF7198002A7640EB210E56045614562456370D289708E05E56F70037584
:201988006F01200924200821ED04FEAC6FC3EE9C5015758220C006C005C0041214C8D00455
:2019A800D005D0061C80E68C6F300C0E75822DC0051214C8D005156F8023ED6020300A0E25
:2019C80075822BC0051214C8D005156F800F300B0C758220C0051214C8D005156F2008228E
:2019E800AE6F8E041EC3ED9C502B3009047C3080027C208C82C006C0051214C8D005D00612
:201A080080E0C3ED956F5008E56FC39DF56F8007756F0080028E6FA9708D068E051EED60A6
:201A280026B21020100A09E7C4540FFD8D6480078705740F5DF564856482C006C001121413
:201A4800EBD001D00680D4200803021585AE6F8E051EED7003021585758220C0061214C83C
:131A6800D00680EB8F821214C80215858565828566832293
:0B1F7B003C4E4F20464C4F41543E00AE
:1A1A7B00E582C583F582A2D133A2D592D11392D5ECCFFCEBCEFBEACDFA22F3
:181A9500AA82AB83121AAD6003A380F8C3E5829AF582E5839BF58322B0
:0D00510075817A121B77E582600302004E74
:1C1AAD0020F71430F6148883A88220F507E6A88375830022E280F7E49322E02248
:0B1AC900E4AC82FBFAF97486021B12E9
:081AD4007F86121B8FF58222B0
:201ADC00FCABF0AA83A982749EF582C2D1EC30E716D2D1E9F42401F9EAF43400FAEBF43409
:0D1AFC0000FBECF43400FC12118302142CEA
:131B0900FCABF0AA83A982749EC2D1F58212118302142CD6
:201B1C00121B7BC3749E95824039790012114030D126E9F42401F582EAF43400F583EBF4B7
:201B3C003400F5F0ECF43400700AE582458345F0700122E430E70F22EC20E71489828A83A0
:1B1B5C008BF02230D10AE4F582F583F5F074802274FFF582F583F5F0747F229C
:041B77007582002251
:121B7B00AA82AB83A2F73392D1F5826002D2F7ACF0226F
:201B8D007F9E121B7B30D10302144DC3EF9582500974FFF5F0F583F582227900121140891C
:071BAD00828A838BF0EC2219
:00000001FF
