:040000000200513277
:01000B0032C2
:0100130032BA
:01001B0032B2
:0100230032AA
:01002B0032A2
:01003300329A
:01003B003292
:01004300328A
:03004B000207C5E4
:2000AA00E4F539F53A753B80753C3FF53DF53EF53FF540F541F542F543F544F5457546C86C
:1B00CA0075470AF548F549F54AF54B754C1EF54DF54EF551F552F55302004ED2
:03004E000205BBED
:2000E50075B1677E007F011EBEFF011FEE4F70F7E5B130E7FB75B288227598507589207568
:200105008DDCD28E438E10438780D29943A4012275FFDE75FFAD1200E51200FE43E104438C
:20012500E34022AF8210990280FB8F992210980280FB85998212012885998222C015858137
:2001450015E51524FBF886820886830886F0121A2BE5828583F045F070028062E51524FB85
:20016500FF8F11E51524FBF8860E08860F08861090000175F00012125490000175F0001285
:200185001A2BAE827F00C3EF9E501FEF2401F582E43400F583E0FDBD0A0DEF2401F582E46C
:2001A5003400F583740DF00F80DC752901752A00752B007528008E2C7582C6120457D0156E
:2001C5002275230074C025234017752E23752F00753040752D007531017582C61204CD80D5
:2001E500E375240C752924752A00752B40752800752C017582C612045722752E26752F0039
:20020500753040752D017531027582C61204CD74FFB52605758200805F7F008F068EF00549
:20022500F07C017D008006EC2CFCED33FDD5F0F7AA267B00EA5204EB5205EC4D600774314A
:200245002FF58280330E8E07BE080040D0E52730E0057582398021E52730E10575822A8012
:2002650017E52730E205758230800DE52730E30575822380037582FF22AF82E4FDFEEF7043
:200285001DC006C005744AC0E0741BC0E07480C0E0120141158115811581D005D006C00609
:2002A500C0057408C0E0E4C0E07408C0E0E4C0E07408C0E0E4C0E07408C0E0E4C0E0740878
:2002C500C0E0E4C0E07460C0E0741BC0E07480C0E0120141E58124F3F58190A12075F007BA
:2002E500E41203F2D005D0067F00C007C006C0051201FFAC82D005D006D0078C03BCFF0284
:200305008003BB2A17902710E4F5F0C007C006C0051203F2D005D006D00780CEBB232AC0D8
:2003250006C0051201FFAC82D005D006BC2313902710E4F5F0C006C0051203F2D005D00643
:2003450080DD8D828E830203F1EBFA3395E0FCC007C006C005C004C003C002C002C0047407
:2003650070C0E0741BC0E07480C0E0120141E58124FBF581D002D003D004D005D0068D178E
:200385008E1890000AC004C003C0021211C7A882A983D002D003D004D007EA28F8EC39F917
:2003A500E824D0FDE934FFFEC007C006C005C0031201FFAC82D003D005D006D007ECB503F7
:2003C5001B902710E4F5F0C007C006C005C0031203F2D003D005D006D00780CC0FC3EF648B
:2003E50080948550030202EF8D828E8322AC82AD83AEF0FF780079007A007B00C3E89CE9C6
:200405009DEA9EEB9F500F08B8000909B900050ABA00E90B80E62220C7FDD2C530C3FDC2CC
:20042500C5C2C3228582C210C30280FB228582C2D2C410C30280FB2230C3FD85C282C2C301
:200445002230C3FDAFC2C2C3D2C410C30280FB8F8222AF82C00712041CD00774FE5FF5822D
:200465001204298528821204297F00AD2C7E001DBDFF011E8F037C00C3EB9DEC64808EF055
:2004850063F08095F0501FEF2529FCE4352AFDAE2B8C828D838EF0121A43F582C0071204DF
:2004A50029D0070F80C5AE2C7F001EBEFF011FEE2529FEEF352AFFAD2B8E828F838DF0127F
:2004C5001A43F58212043222AF82C00712041CD0078F0674FE5EF582C007120429852D82C2
:2004E50012043212041CD00774014FF5821204297F00AD317E001DBDFF011E8F037C00C388
:20050500EB9DEC64808EF063F08095F0502ED2C2EF252EFCE4352FFDAE30C007C006C005E3
:20052500C00412043DAB82D004D005D006D0078C828D838EF0EB12117C0F80B6C2C2AE314E
:200545007F001EBEFF011FEE252EFEEF352FFFAD30C007C006C005120446AC82D005D00627
:20056500D0078E828F838DF0EC12117C22753223752932752A00752B40752820752C017566
:200585008230120457753200752932752A00752B40752821752C01758230120457753200A6
:2005A500752932752A00752B40752822752C017582301204572212011512078B1207A91230
:2005C50007B21208111207BF75820D1201287473C0E0741BC0E07480C0E0121435158115CB
:2005E50081158175EA3775FAF575EC3775FCF5E4F533F534C3E5339401E534940040F574EC
:200605007CC0E0741BC0E07480C0E01214351581158115811208311208C4749DC0E0741B70
:20062500C0E07480C0E012143515811581158130B60302076F30B70302076FE5416038756E
:200645004100120A1085824485834574FFB5440774FFB54502801BC3E5449412E5459400C3
:20066500500875EC3775FCF5800D75EC1B75FCF38005E4F548F54975820512081B85824D49
:20068500121A5FAC82AD83AEF0FFC004C005C006C007909A6775F04D743D121005AC82ADC3
:2006A50083AEF0FFE58124FCF5818C828D838EF0EF121A6A85824EE540600F75400012093F
:2006C500EA858242858343120A587414B551028003020634C044C04574C8C0E0741BC0E0C0
:2006E5007480C0E0121435E58124FBF58175170A751800854282854383120B5BAE82AF837A
:20070500C006C00774D4C0E0741BC0E07480C0E0121435E58124FBF581C035C03674E2C045
:20072500E0741BC0E07480C0E0121435E58124FBF581C052C05374F2C0E0741BC0E074806D
:20074500C0E0121435E58124FBF581C046C0477406C0E0741CC0E07480C0E0121435E581F2
:2007650024FBF58175510002063420B60620B70302063475EA3775FAF575EC3775FCF512E1
:2007850008C40206342275E12753BDDF43A50553A5DFAF9074204FF59053A77FAFB0748087
:2007A5004FF5B02243A80243E608D2AF2275D98175DAC275DCC275D8402275CF93D2C6222A
:2007C500C0E0C0D010DF02803E0535E4B53502053675E90075F970C374329535E495365082
:2007E500080533E4B533020534053D74F8253D5006754001753D000551053E74F4253E502B
:2008050006754101753E00D0D0D0E03275D10375AA8043AB01228582ACAFAA74DF5FF5AA8B
:2008250043AA10E5AA30E5FB859C82227420C0E0741CC0E07480C0E01214351581158115BE
:20084500817442C0E0741CC0E07480C0E01214351581158115817486C0E0741CC0E074801D
:20086500C0E0121435158115811581120132AF82BF750B74322537F537E43538F538BF6432
:200885000CE53724CEF537E53834FFF538BF6602802CC3E5379410E538940E400675371079
:2008A50075380EC037C038749BC0E0741CC0E07480C0E0121435E58124FBF58180AD2274FD
:2008C500B1C0E0741CC0E07480C0E012143515811581158174D9C0E0741CC0E07480C0E030
:2008E5001214351581158115817411C0E0741DC0E07480C0E01214351581158115811201BC
:2009050032AF82BF7530C00774CDC0E014C0E0C0E0743DC0E0853982853A83853BF0E53C6B
:200925001212DF85823985833A85F03BF53CE58124FCF581D007BF6430C00774CDC0E0146A
:20094500C0E0C0E0743DC0E0853982853A83853BF0E53C120B5085823985833A85F03BF51A
:200965003CE58124FCF581D007BF66028076E4C0E0C0E07438C0E07441C0E0853982853A82
:2009850083853BF0E53C121197AF82E58124FCF581EF700AF539F53A753B38753C41E4C0D3
:2009A500E0C0E0C0E0C0E0853982853A83853BF0E53C12114CAF82E58124FCF581EF70081C
:2009C500F539F53AF53BF53CC039C03AC03BC03C7425C0E0741DC0E0120B84E58124FAF5E6
:2009E5008102090322752E54752F00753040752D027531027582C01204CDAF547E00AC5559
:200A05007D00EC4EF582ED4FF58322752E4F752F00753040752D027531027582E01204CD4C
:200A2500AF4F7E00AC507D00EC4206ED4207754F5175294F752A00752B40752800752C0192
:200A45007582E0C007C006120457D006D0078E828F8322E537C39542F552E5389543F55395
:200A6500C3E55294F8E55364809478500C74102552F552740E3553F553C3740895527487B2
:200A85008553F063F08095F0500CE55224F0F552E55334F1F553C374379544E49545500742
:200AA500E4F548F549801F7437C39544F517E49545F518AE4C7F008E828F831211C7AE8260
:200AC500AF838E488F49855282855383121381AC82AD83AEF0FFC004C005C006C007853908
:200AE50082853A83853BF0E53C121005AC82AD83AEF0FFE58124FCF5818C828D838EF0EFB3
:200B050012138EE5828583F024C8FE740A35F0FFEEC39548F546EF9549F547C3E5469434AA
:200B2500E54794085006754634754708C374489546740D9547500675464875470D74FFC3D0
:0B0B45009546F5EA74FF9547F5FA228B
:201B4A000A54797065206469676974733B20656E6420772F230020202020202563256325DB
:201B6A006325632563002563000A53746172740D0A000A0D506C6561736520696E70757470
:201B8A002064617461206F6E20746865204C43442E0A000A0D2D2D2D2D2D2D2D2D2D2D2DF2
:201BAA002D4441544120434F4C4C454354494F4E2D2D2D2D2D2D2D2D2D2D2D2D0A000D5243
:201BCA00616E67653A2025750A000D48656164696E673A2025750A000D4F766572666C6FBD
:201BEA0077733A2025750A000D48656164696E67204572726F723A2025640A000D537465E6
:201C0A006572696E672050756C736577696474683A2025750A000D506C6561736520656E04
:201C2A00746572206120646573697265642068656164696E672E0A000D2775272077696C6A
:201C4A006C20696E6372656D656E74206279203520646567726565732E20276427207769DA
:201C6A006C6C2064656372656D656E74206279203520646567726565732E0A000D27662763
:201C8A00207768656E2066696E69736865642E0A000D446573697265642068656164696E70
:201CAA00673A2025750A000D506C656173652073656C65637420612064657369726564200D
:201CCA00636F6D70617373206761696E2E0A000D2775272077696C6C20696E6372656D6562
:201CEA006E7420627920302E312E202764272077696C6C2064656372656D656E74206279A4
:201D0A0020302E312E0A000D276627207768656E2066696E69736865640A000D4465736939
:191D2A0072656420636F6D70617373206761696E3A2025322E31660A0010
:0B0B5000A8811818C6B2E7C60212DF29
:200B5B007A10E4FBFCE58225E0F582E58333F583EB33FBEC33FCEB9517F5F0EC9518400690
:090B7B00FCABF0438201DADD223B
:200B8400C015858115E51524FDF8868318868218E493A3B42577C200C201C202C203C204CF
:200BA400C20579087700C206E493A324C64017240A50157005B50802D205D204FAE775F095
:200BC4000AA42AF780E2240A2430B46C04D20080D7B46804D20180D0B47303020C1CB46462
:200BE40006120EF6020C78B47506120EF6020C98B4630518E6188017B47803020C57B466ED
:200C040003020DACB42E0679097700809B6006120FE8020B94021002C083C08286F0188659
:200C24008318868218300419C205C082C083121A436007A31508E50870F4120FD3D083D05E
:200C440082121A436006A3120FE880F5D082D083020B94120C6F20010C120C6F3000061243
:200C64000C6F120C6F120FFA020B94E6120FD8E618020FD9ED30E71CD203E9F42401F920D5
:200C84000112EAF43400FA30000AEBF43400FBECF43400FC200110300008EB7024EC702174
:200CA400C200EA701CD201E97017200614300409E50860051508120FD37430120FE8020B21
:200CC40094C082C083120F10300460790A30001DEB54F0703619EB540F703019EA54F070CF
:200CE4002A19EA540F702419EF54F0701E790520010BEF540F701419EE54F0700E7903EE3F
:200D0400540F700719ED54F0700119E508A203994019F508C003C002C007C006C005120FA8
:200D2400D3D005D006D007D002D003300319C003C002C007C006C005742D120FE8D005D043
:200D440006D007D002D00320014030002CC005C006C0078A82EBF583120FD8E583120FD934
:200D6400E582120FD8E582120FD9D0E0F582120FD8E582D083D08280058D828E83EF120FCD
:200D8400D9E583120FD8E58380038D82EE120FD9E582120FD8E582120FD9120FFAD083D034
:200DA4008230060122020B9430040EE508D39509F50850287508008023E6547FFA1886032A
:200DC40008AE82AF83901F0F7D07E4932BA3E4933A5003A3DDF48D098E828F83C000120E0E
:200DE400D8C082C083EFB47E02801940112482FDC3EA33FAEB33FBEC33FCDDF48006F42465
:200E04007F1210D675F01BE4F8FFFEFD901EA3E933F9EA33FAEB33FBEC33FC5017E4932D45
:200E2400D4FD7401933ED4FE7402933FD4FF74039338D4F8A3A3A3A3D5F0D4E47C50FBFAD2
:200E4400F9E509232354FC88831210D6ED29D4F50DEE3AD4F50CEF3BD4F50BE5833CD4F5BA
:200E64000A92D5D083D082D000120ED8C000C3749E9F5005D000020BACC0821210D6D082F2
:200E840030D50FE92401F9E43AFAE43BFBE43CFC40E2D206120C9820040CE5096008120E8F
:200EA400C87003D509F4E5096015742E120FE87800D20208E8120EC8120FD9E8B509F4D08B
:200EC40000020B9414C31392D5240AF9E720D501C4540F22E618F9E618FC33E9339203FFFB
:200EE4006003430480E618FBE618FA7900C201D20022E6F9FD18200112AA01E6F9183000AA
:200F04000AAC02AB01E6FA18E6F91822E975F06484FE740AC5F084C445F0FD30010122EA39
:200F2400540FF9901D43932DD4FDE94410933ED4FEEAC4540FF9901D63932DD4FDE9441008
:200F4400933ED4FEE94420933400D4FF20000122EB540FF9901D93932DD4FDE94410933E9A
:200F6400D4FEE94420933FD4FFE43400FAEBC4540FF9901DC3932DD4FDE94410933ED4FEAB
:200F8400E94420933FD4FFE94430933AD4FAEC540FF9901E037B00120FA6ECC4540FF9908C
:200FA4001E53932DD4FDE94410933ED4FEE94420933FD4FFE94430933AD4FAE94440933B26
:200FC400D4FB2274203005027430120FE81508E50870F022C4540F7003300219D2022490AB
:200FE400D43440D4C083C082C000F582120128D000D082D083222002FC7430020FE8D015A3
:0110040022C9
:201D4300005612682480369248046016722884400002050710121517202325283033353868
:201D63000096928884807672686460565248444000408122630445862768095091327314DD
:201D83000000000101020202030304040405050600367208448016528824609632680440BA
:201DA3000055106621763287429853086419753000061319263239455258657278859198FF
:201DC300007652280480563208846036128864400085715743281400867157432914008684
:201DE3000004091419242934384348535863687200010203040506070809101112131415DE
:201E03000016324864809612284460769208244000724416886032057749219365381082D5
:201E2300007755331088664421997754321088650016335067830017345067840118345103
:201E4300000000000000010101010101020202020056126824803692480460167228844015
:201E6300005409631872278136914500540963180043873074176104489135792266095334
:201E8300006836057342107947158452218958260002050810131618212426293234374033
:201EA3000000005000000025000050120000250600501203002556015012780025063900FE
:201EC300125319005676090028880400144402000722010004610000523000002615000052
:201EE300630700008103000091010000950000004800000024000000120000000600000046
:1A1F03000300000001000000010000007DC5DDC334C2E0BE38BD86BBE4B976
:201005001210A8BC00030213E3EF60FA30D502B2D1E583B4FF030213F9E582B4FF03021319
:20102500F9258340072482400B0213E324831450030213F9F582EA8DF0A4A8F0EA8EF0A498
:2010450028F8E435F0F9EB8DF0A428E935F0F9E433CA8FF0A429F9EA35F0FAEBF88EF0A4FA
:2010650029F9EA35F0FAE433FBEC8DF0A429F9EA35F0FAE43BFBE88FF0A42AFAEB35F0FBA2
:20108500E433CCFD8EF0A42AFAEB35F0FBE43CFCED8FF0A42BFBEC35F0FC20E70312111975
:0310A5000213C271
:2010A800AA82AB83A2F73392D1F5826002D2F7ACF0E58124F9F8E6FD08E6FE0886F008E6AB
:0E10C800A2F73392D5F5836002D2F7AFF02283
:06008000E478FFF6D8FD54
:2010D6006040F82582500274FFF582E824F8501ECCCBCAF9E4CC24F85014CBCAF9E4CB2422
:2010F600F8500BCAF9E4CA24F8500379002224086010F8C3EC13FCEB13FBEA13FAE913F9D5
:03111600D8F122EB
:201119007804EC7011E58224F8500AF582E4C9CACBFCD8EF22EC7820058220E713D58201D5
:1311390022C3E933F9EA33FAEB33FBEC33FCD8EA158222E3
:20005E007900E94400601B7A00901F28785175AF00E493F2A308B8000205AFD9F4DAF27593
:02007E00AFFFD2
:20114C00FFA8811818121356D2D133E6400730E70B7582012220E70675820022C2D1121393
:10116C0038E97003F5822230D101B3E433F58222E1
:1B117C0020F71130F6138883A88220F509F6A8837583002280FEF280F5F02272
:20119700FFA8811818121356D2D133E6400730E70B7582002220E70675820122C2D1121348
:1011B70038E97003F5822220D101B3E433F58222A6
:1D11C700E5828517F0A4C582C0F08518F0A4D0F025F0C5838517F0A42583F58322BD
:2011E400C015858115C082058105810581E51524FBF8A9150909E6F70809E6F70809E6F78D
:20120400A815080886820886830886F0121A43FAA3121A43FBA3121A43FF74012AFCE43B25
:20122400FD8F06A815080886820886830886F0EC12117CA3ED12117CA3EE12117C8A828B33
:20124400838FF0A81508E612117C851581D0152285821285831385F0147562127563007529
:201264006440850E65850F668510678511689011E4121507AE82AF83AB12AC13AD148B827B
:201284008C838DF0E412117C8E828F8322C015858115E51524F8FF8F68E51524FBFF8F62F2
:2012A400756300756440E51524F8F886650886660886679011E4121507AE82AF83E5152424
:1B12C400FBF886030886040886058B828C838DF0E412117C8E828F83D0152229
:200086007800E84400600A790175AF00E4F309D8FC7850E84400600C7901900001E4F0A318
:0400A600D8FCD9FAAF
:2012DF001210A87900E583B58202800D5003121A11E583C395821210D6E5D0C465D020E105
:2012FF0017EA2DFAEB3EFBEC3FFC500974011210D6EC4480FC0213C2C3EA9DFAEB9EFBEC5F
:19131F009FFC500FC3E499F9E49AFAE49BFBE49CFCB2D11211190213C27E
:201338007901AA82E68F82B5821318E6B5F00E18E6B5830918E68A82B58202790022B480AC
:201358000FE5F0700AE5837006E58270027F00EFB6801518B6001018B6000B18B600060814
:091378000808760022080808228A
:0D138100AC83AB827A007900748E021A7B77
:20138E00121AB2700AE582458345F0700122E430D112F4700BE5F0F47006E58330E70122A9
:1413AE0090800022700AE5F07006E58320E70122907FFF2272
:2013C200B98003EA13B34010EA2401FAE43BFBE43CFC50047C800582BC000EBB000BBA006F
:2013E20008E4F5F0F583F58222A2D1E582138CF092F78B838A8222E4F583F58275F080F42F
:0F140200A2D11322E4F583F58275F0C0747F2226
:20141100C015858115120128D0152285826585836685F067E4F562F563F564851668901440
:2014310011021507C015858115E51524FBFF8F68E4F562F563F564E51524FBF886650886F7
:0D14510066088667901411121507D0152249
:20145E00AF82C058C059C05A12146B8007C056C0578F82221581158115810560E4B5600258
:20147E00056122AF8274302FFF24C6500A74072FFF3007034307208F8202145EE582FFC483
:20149E00540FF582C007121481D007740F5FF582021481858217855B18855C19855D1A858E
:2014BE005E1BAA5F751C20EA2AFAE51B235401FF8A064EFAE5182518F518E51933F519E513
:2014DE001A33F51AE51B33F51BC3EA95174008EAC39517FA431801D51CCD85185B85195C4F
:2014FE00851A5D851B5E8A5F2285825685835785625885635985645AE4F560F561AD65AEFB
:20151E0066AF678D828E838FF0121A43FC74012DF565E43EF5668F67ECFF7003021A0ABF75
:20153E0025028003021A02C208C209C20AC20BC20CC20DC20EC20F756900756A007CFFAA77
:20155E0065AB66AE678A828B838EF0121A43FFA3AA82AB838A658B668E67BF25078F8212FC
:20157E00145E80998F6C74D0256C5026E56C24C64020BCFF12E56A75F00AA4FD2F24D0F59D
:20159E006A70C2D20980BEEC75F00AA42F24D0FC80B3BF2E07BCFFAD7C0080A98F05BD6174
:2015BE0000400CED248540075307DFD2078002C207BF2002806DBF2B028063BF2D02805923
:2015DE00BF42028063BF43028068BF44030217ACBF46030217C2BF4803021563BF490302DC
:2015FE0017ACBF4A03021563BF4C028040BF4F030217B3BF5003021741BF5302805CBF546B
:20161E0003021563BF55030217B8BF58030217BDBF5A030215630217C6D208021563D20AB2
:20163E00021563D20B021563D20D021563D20E021563300D0CE56814FE8E688E01870780CD
:20165E0011E56824FEFE8E688E018705098706198D078F8212145E0217CFE56824FDFE8E23
:20167E00688E01870309870509870619198B5B8D5C8E5D8B828D838EF0C004121A2BAD82CF
:20169E00AE83D004BCFF028D0420082AC3ED956A5024E56AC39DF56AAE6A8E031EEB601430
:2016BE00758220C006C005C00412145ED004D005D00680E68E6A8C06855B82855C83855D0B
:2016DE00F0121A43FCFF602F8E041EC374808CF063F08095F050208F82C006C00512145E38
:2016FE00D005D006AA5BAB5CAC5D0ABA00010B8A5B8B5C8C5D80C12008030217CFC3ED95EE
:20171E006A40030217CFE56AC39DF56AAE6A8E041EEC70030217CD758220C00612145ED0CA
:20173E000680EBE56824FDFC8C688C01870209870309870419198A5B8B5C8C5DAC5DBC8053
:20175E000040047F438014BC600040047F50800BBC400040047F4980027F588F82C00712CC
:20177E00145E75823A12145E75823012145E75827812145ED007BF4902800BBF5002800683
:20179E00855C8212149A855B8212149A8023D20C75690A801C756908801775690A80127575
:2017BE006910800DD20F80098F8212145E80028E6A300F5CE56824FCFE8E688E018702096F
:2017DE0087030987040987061919198A5B8B5C8C5D8E5E755B1D755C1F755D80855B6D854A
:2017FE005C6E855D6F7401256DFAE4356EFCAE6F8A5B8C5C8E5D856D82856E83856FF01277
:20181E001A43FEFF700302151B8F8212145E80CCE569700302151B756B75300D2DE56814B7
:20183E00FC8C688C01E7FA3395E0FBFCFE8A5B8B5C8C5D8E5E200C66AA5B7B007C007E00E2
:20185E008A5B8B5C8C5D8E5E8054300E21E56824FCFE8E688E018702098703098704098766
:20187E00061919198A5B8B5C8C5D8E5E8030E56824FEFE8E688E01870409870619EE3395C6
:20189E00E0FBFA8C5B8E5C8B5D8A5E200C10AA5BAB5C7C007E008A5B8B5C8C5D8E5E300C95
:2018BE0022E55E30E71BC3E4955BFAE4955CFBE4955DFCE4955EFE8A5B8B5C8C5D8E5E804A
:2018DE0002C20CD210A96B7E00755F00856982C006C0011214B1D001D00620100BE55FC41A
:2018FE00FCE7FB4CF7198002A75F0EB210E55B455C455D455E70D2896B8E05E56A70037512
:20191E006A01200924200821ED04FEAC6AC3EE9C5015758220C006C005C00412145ED00433
:20193E00D005D0061C80E68C6A300C0E75822DC00512145ED005156A8023ED6020300A0E03
:20195E0075822BC00512145ED005156A800F300B0C758220C00512145ED005156A200822D6
:20197E00AE6A8E041EC3ED9C502B3009047C3080027C208C82C006C00512145ED005D006EB
:20199E0080E0C3ED956A5008E56AC39DF56A8007756A0080028E6AA96B8D068E051EED602F
:2019BE0026B21020100A09E7C4540FFD8D5F80078705740F5DF55F855F82C006C00112148D
:2019DE0081D001D00680D420080302151BAE6A8E051EED700302151B758220C00612145E54
:1319FE00D00680EB8F8212145E02151B85608285618322DC
:0B1F1D003C4E4F20464C4F41543E000C
:1A1A1100E582C583F582A2D133A2D592D11392D5ECCFFCEBCEFBEACDFA225D
:181A2B00AA82AB83121A436003A380F8C3E5829AF582E5839BF5832284
:0D005100758175121B0DE582600302004EE3
:1C1A430020F71430F6148883A88220F507E6A88375830022E280F7E49322E022B2
:0B1A5F00E4AC82FBFAF97486021AA8BE
:081A6A007F86121B25F5822284
:201A7200FCABF0AA83A982749EF582C2D1EC30E716D2D1E9F42401F9EAF43400FAEBF43473
:0D1A920000FBECF43400FC1211190213C229
:131A9F00FCABF0AA83A982749EC2D1F5821211190213C216
:201AB200121B11C3749E9582403979001210D630D126E9F42401F582EAF43400F583EBF4F7
:201AD2003400F5F0ECF43400700AE582458345F0700122E430E70F22EC20E71489828A830B
:1B1AF2008BF02230D10AE4F582F583F5F074802274FFF582F583F5F0747F2207
:041B0D0075820022BB
:121B1100AA82AB83A2F73392D1F5826002D2F7ACF022D9
:201B23007F9E121B1130D1030213E3C3EF9582500974FFF5F0F583F5822279001210D689C6
:071B4300828A838BF0EC2283
:00000001FF
