:040000000200513277
:01000B0032C2
:0100130032BA
:01001B0032B2
:0100230032AA
:01002B0032A2
:01003300329A
:01003B003292
:01004300328A
:03004B0002066E3C
:2000AA00E4F532F533F534F535F53AF53BF53CF53DF53EF53FF540F541F542F54302004E5D
:03004E000205A008
:2000CA0075B1677E007F011EBEFF011FEE4F70F7E5B130E7FB75B288227598507589207583
:2000EA008DDCD28E438E10438780D29943A4012275FFDE75FFAD1200CA1200E343E10443DE
:20010A00E34022AF8210990280FB8F992210980280FB85998212010D85998222C00F858173
:20012A000FE50F24FBF886820886830886F0120F2BE5828583F045F070028062E50F24FBBD
:20014A00FF8F0BE50F24FBF8860808860908860A90000175F00012087790000175F00012A5
:20016A000F2BAE827F00C3EF9E501FEF2401F582E43400F583E0FDBD0A0DEF2401F582E492
:20018A003400F583740DF00F80DC752801752900752A007527008E2B7582C612043CD00FAF
:2001AA002275220074C025224017752D22752E00752F40752C007530017582C61204B28013
:2001CA00E375230C752823752900752A40752700752B017582C612043C22752D25752E0079
:2001EA00752F40752C017530027582C61204B274FFB52505758200805F7F008F068EF00584
:20020A00F07C017D008006EC2CFCED33FDD5F0F7AA257B00EA5204EB5205EC4D6007743166
:20022A002FF58280330E8E07BE080040D0E52630E0057582398021E52630E10575822A802F
:20024A0017E52630E205758230800DE52630E30575822380037582FF22AF82E4FDFEEF7060
:20026A001DC006C005749BC0E0740FC0E07480C0E0120126158115811581D005D006C006FA
:20028A00C0057408C0E0E4C0E07408C0E0E4C0E07408C0E0E4C0E07408C0E0E4C0E0740893
:2002AA00C0E0E4C0E074B1C0E0740FC0E07480C0E0120126E58124F3F58190A12075F007AB
:2002CA00E41203D7D005D0067F00C007C006C0051201E4AC82D005D006D0078C03BCFF02D5
:2002EA008003BB2A17902710E4F5F0C007C006C0051203D7D005D006D00780CEBB232AC00F
:20030A0006C0051201E4AC82D005D006BC2313902710E4F5F0C006C0051203D7D005D00694
:20032A0080DD8D828E830203D6EBFA3395E0FCC007C006C005C004C003C002C002C004743D
:20034A00C1C0E0740FC0E07480C0E0120126E58124FBF581D002D003D004D005D0068D1185
:20036A008E1290000AC004C003C0021207EAA882A983D002D003D004D007EA28F8EC39F91F
:20038A00E824D0FDE934FFFEC007C006C005C0031201E4AC82D003D005D006D007ECB5032D
:2003AA001B902710E4F5F0C007C006C005C0031203D7D003D005D006D00780CC0FC3EF64C1
:2003CA0080948550030202D48D828E8322AC82AD83AEF0FF780079007A007B00C3E89CE9FC
:2003EA009DEA9EEB9F500F08B8000909B900050ABA00E90B80E62220C7FDD2C530C3FDC2E8
:20040A00C5C2C3228582C210C30280FB228582C2D2C410C30280FB2230C3FD85C282C2C31C
:20042A002230C3FDAFC2C2C3D2C410C30280FB8F8222AF82C007120401D00774FE5FF58263
:20044A0012040E85278212040E7F00AD2B7E001DBDFF011E8F037C00C3EB9DEC64808EF0A8
:20046A0063F08095F0501FEF2528FCE43529FDAE2A8C828D838EF0120F43F582C007120408
:20048A000ED0070F80C5AE2B7F001EBEFF011FEE2528FEEF3529FFAD2A8E828F838DF012B9
:2004AA000F43F58212041722AF82C007120401D0078F0674FE5EF582C00712040E852C823A
:2004CA00120417120401D00774014FF58212040E7F00AD307E001DBDFF011E8F037C00C3F5
:2004EA00EB9DEC64808EF063F08095F0502ED2C2EF252DFCE4352EFDAE2FC007C006C00502
:20050A00C004120422AB82D004D005D006D0078C828D838EF0EB1207CF0F80B6C2C2AE303C
:20052A007F001EBEFF011FEE252DFEEF352EFFAD2FC007C006C00512042BAC82D005D00660
:20054A00D0078E828F838DF0EC1207CF22753123752831752900752A40752720752B01753F
:20056A00823012043C753100752831752900752A40752721752B0175823012043C753100FF
:20058A00752831752900752A40752722752B0175823012043C221200FA12064E120652121E
:2005AA00065B12066812055775820D12010D74C4C0E0740FC0E07480C0E012094F1581151A
:2005CA00811581E4F536F537C3E5369401E537940040F574CDC0E0740FC0E07480C0E012BD
:2005EA00094F15811581158174F8C0E0740FC0E07480C0E012094F158115811581E53C6067
:20060A0006753C001206DE7414B53DF1740FC0E07410C0E07480C0E012094F158115811532
:20062A0081C040C041C03EC03F741AC0E07410C0E07480C0E012094FE58124F9F581753D36
:20064A000080BA2275E1272243A80243E608D2AF2275D98175DAC275DCC275D8402275CFEE
:20066A0093D2C622C0E0C0D010DF0280320538E4B53802053975E90075F970C37432953890
:20068A00E4953950080536E4B536020537053D053A74FF253A500B753A00753C0180035319
:2006AA00D8C0D0D0D0E0321206DE75420022752D44752E00752F40752C2775300275823044
:2006CA001204B2E5446009E5456005758201800375820022754A30E4F53CFEF532F533F54D
:2006EA0034F5357C007D008E03C005C004C0031206B8E582D003D004D00570030207867592
:20070A002D46752E00752F40752CA8753004854A82C005C004C0031204B2D003D004D00502
:20072A00AA47E5473395E08A077A008A4BEFC4C54BC4540F654BC54B540FC54B654BC54B2D
:20074A0030E30244F0F54CAA49E5493395E08A077A00EFC4CAC4540F6ACA540FCA6ACA30C8
:20076A00E30244F0FFE54B2532F532E54C3533F533EA2534F534EF3535F5350B0CBC000125
:20078A000DC3EC9408ED6480948050030206F38B06EE60307F008E118F1285328285338382
:2007AA00C007C006120F5F85823E85833FD006D0078E118F12853482853583120F5F8582AA
:0507CA0040858341227F
:200F9B000A54797065206469676974733B20656E6420772F23002020202020256325632596
:200FBB006325632563002563000A53746172740D0A000A0D2D2D2D2D2D2D2D2D2D2D2D2DB9
:200FDB004441544120434F4C4C454354494F4E2D2D2D2D2D2D2D2D2D2D2D2D0A000A0D583B
:200FFB002D416363656C09097C09592D416363656C0A0D000D583A09097C09593A0A000DE5
:0B101B0025642009097C0925640A00F7
:06008000E478FFF6D8FD54
:20005E007900E94400601B7A00901031785175AF00E493F2A308B8000205AFD9F4DAF27599
:02007E00AFFFD2
:1B07CF0020F71130F6138883A88220F509F6A8837583002280FEF280F5F02229
:1D07EA00E5828511F0A4C582C0F08512F0A4D0F025F0C5838511F0A42583F58322B6
:20080700C00F85810FC082058105810581E50F24FBF8A90F0909E6F70809E6F70809E6F78B
:20082700A80F080886820886830886F0120F43FAA3120F43FBA3120F43FF74012AFCE43B33
:20084700FD8F06A80F080886820886830886F0EC1207CFA3ED1207CFA3EE1207CF8A828B45
:20086700838FF0A80F08E61207CF850F81D00F2285820C85830D85F00E75590C755A007503
:200887005B4085085C85095D850A5E850B5F900807120A21AE82AF83AB0CAC0DAD0E8B8290
:2008A7008C838DF0E41207CF8E828F8322C00F85810FE50F24F8FF8F5FE50F24FBFF8F59BA
:2008C700755A00755B40E50F24F8F8865C08865D08865E900807120A21AE82AF83E50F241B
:1B08E700FBF886030886040886058B828C838DF0E41207CF8E828F83D00F22CD
:200086007800E84400600A790175AF00E4F309D8FC7850E84400600C7901900001E4F0A318
:0400A600D8FCD9FAAF
:200902007A10E4FBFCE58225E0F582E58333F583EB33FBEC33FCEB9511F5F0EC95124006F7
:09092200FCABF0438201DADD2296
:20092B00C00F85810F12010DD00F2285825C85835D85F05EE4F559F55AF55B85105F9009AE
:20094B002B020A21C00F85810FE50F24FBFF8F5FE4F559F55AF55BE50F24FBF8865C088604
:0D096B005D08865E90092B120A21D00F2234
:20097800AF82C04FC050C0511209858007C04DC04E8F82221581158115810557E4B5570279
:20099800055822AF8274302FFF24C6500A74072FFF3000034307208F82020978E582FFC475
:2009B800540FF582C00712099BD007740F5FF58202099B8582118552128553138554148594
:2009D8005515AA56751620EA2AFAE515235401FF8A064EFAE5122512F512E51333F513E546
:2009F8001433F514E51533F515C3EA95114008EAC39511FA431201D516CD8512528513538E
:200A18008514548515558A562285824D85834E85594F855A50855B51E4F557F558AD5CAE75
:200A38005DAF5E8D828E838FF0120F43FC74012DF55CE43EF55D8F5EECFF7003020F24BF8F
:200A580025028003020F1CC201C202C203C204C205C206C207C2087560007561007CFFAAA3
:200A78005CAB5DAE5E8A828B838EF0120F43FFA3AA82AB838A5C8B5D8E5EBF25078F82122E
:200A9800097880998F6374D025635026E56324C64020BCFF12E56175F00AA4FD2F24D0F5A3
:200AB8006170C2D20280BEEC75F00AA42F24D0FC80B3BF2E07BCFFAD7C0080A98F05BD6175
:200AD80000400CED248540075307DFD2008002C200BF2002806DBF2B028063BF2D02805922
:200AF800BF42028063BF43028068BF4403020CC6BF4603020CDCBF4803020A7DBF490302A0
:200B18000CC6BF4A03020A7DBF4C028040BF4F03020CCDBF5003020C5BBF5302805CBF541F
:200B380003020A7DBF5503020CD2BF5803020CD7BF5A03020A7D020CE0D201020A7DD20357
:200B5800020A7DD204020A7DD206020A7DD207020A7D30060CE55F14FE8E5F8E01870780B0
:200B780011E55F24FEFE8E5F8E018705098706198D078F82120978020CE9E55F24FDFE8E11
:200B98005F8E01870309870509870619198B528D538E548B828D838EF0C004120F2BAD82EF
:200BB800AE83D004BCFF028D0420012AC3ED95615024E561C39DF561AE618E031EEB60144C
:200BD800758220C006C005C004120978D004D005D00680E68E618C06855282855383855411
:200BF800F0120F43FCFF602F8E041EC374808CF063F08095F050208F82C006C00512097825
:200C1800D005D006AA52AB53AC540ABA00010B8A528B538C5480C1200103020CE9C3ED950C
:200C3800614003020CE9E561C39DF561AE618E041EEC7003020CE7758220C006120978D0B2
:200C58000680EBE55F24FDFC8C5F8C01870209870309870419198A528B538C54AC54BC807A
:200C78000040047F438014BC600040047F50800BBC400040047F4980027F588F82C00712BD
:200C9800097875823A120978758230120978758278120978D007BF4902800BBF5002800638
:200CB8008553821209B48552821209B48023D20575600A801C756008801775600A8012757C
:200CD8006010800DD20880098F8212097880028E6130085CE55F24FCFE8E5F8E0187020983
:200CF80087030987040987061919198A528B538C548E557552267553107554808552648592
:200D1800536585546674012564FAE43565FCAE668A528C538E548564828565838566F012DC
:200D38000F43FEFF7003020A358F8212097880CCE5607003020A3575621C30062DE55F1401
:200D5800FC8C5F8C01E7FA3395E0FBFCFE8A528B538C548E55200566AA527B007C007E0010
:200D78008A528B538C548E558054300721E55F24FCFE8E5F8E018702098703098704098794
:200D9800061919198A528B538C548E558030E55F24FEFE8E5F8E01870409870619EE3395ED
:200DB800E0FBFA8C528E538B548A55200510AA52AB537C007E008A528B538C548E553005EE
:200DD80022E55530E71BC3E49552FAE49553FBE49554FCE49555FE8A528B538C548E55808C
:200DF80002C205D209A9627E00755600856082C006C0011209CBD001D00620090BE556C435
:200E1800FCE7FB4CF7198002A7560EB209E55245534554455570D289628E05E56170037548
:200E38006101200224200121ED04FEAC61C3EE9C5015758220C006C005C004120978D00435
:200E5800D005D0061C80E68C6130050E75822DC005120978D00515618023ED602030030E05
:200E780075822BC005120978D0051561800F30040C758220C005120978D0051561200122C9
:200E9800AE618E041EC3ED9C502B3002047C3080027C208C82C006C005120978D005D006DD
:200EB80080E0C3ED95615008E561C39DF561800775610080028E61A9628D068E051EED6056
:200ED80026B20920090A09E7C4540FFD8D5680078705740F5DF556855682C006C0011209B2
:200EF8009BD001D00680D4200103020A35AE618E051EED7003020A35758220C0061209780E
:130F1800D00680EB8F82120978020A3585578285588322C0
:0B1026003C4E4F20464C4F41543E0012
:180F2B00AA82AB83120F436003A380F8C3E5829AF582E5839BF583229A
:0D005100758166120F97E582600302004E74
:1C0F430020F71430F6148883A88220F507E6A88375830022E280F7E49322E022BD
:200F5F00C2D5E58330E70DD2D5E4C39582F582E49583F583E51230E70DB2D5E4C39511F51B
:180F7F0011E49512F51212090230D50BE4C39582F582E49583F58322BF
:040F9700758200223D
:00000001FF
